{
	"contracts/CryptoGuardPass.sol": {
		"CryptoGuardPass": {
			"abi": [
				{
					"anonymous": false,
					"inputs": [
						{
							"indexed": false,
							"internalType": "address",
							"name": "owner",
							"type": "address"
						},
						{
							"indexed": false,
							"internalType": "string",
							"name": "url",
							"type": "string"
						},
						{
							"indexed": false,
							"internalType": "string",
							"name": "account",
							"type": "string"
						}
					],
					"name": "KeyAdd",
					"type": "event"
				},
				{
					"anonymous": false,
					"inputs": [
						{
							"indexed": false,
							"internalType": "address",
							"name": "owner",
							"type": "address"
						},
						{
							"indexed": false,
							"internalType": "string",
							"name": "url",
							"type": "string"
						},
						{
							"indexed": false,
							"internalType": "string",
							"name": "account",
							"type": "string"
						}
					],
					"name": "KeyRemove",
					"type": "event"
				},
				{
					"anonymous": false,
					"inputs": [
						{
							"indexed": false,
							"internalType": "address",
							"name": "owner",
							"type": "address"
						},
						{
							"indexed": false,
							"internalType": "uint256",
							"name": "keyId",
							"type": "uint256"
						}
					],
					"name": "KeyUpdate",
					"type": "event"
				},
				{
					"inputs": [
						{
							"internalType": "string",
							"name": "_url",
							"type": "string"
						},
						{
							"internalType": "string",
							"name": "_account",
							"type": "string"
						},
						{
							"internalType": "string",
							"name": "_password",
							"type": "string"
						},
						{
							"internalType": "string",
							"name": "_comment",
							"type": "string"
						}
					],
					"name": "addKey",
					"outputs": [],
					"stateMutability": "nonpayable",
					"type": "function"
				},
				{
					"inputs": [],
					"name": "getAllMyKeys",
					"outputs": [
						{
							"components": [
								{
									"internalType": "uint256",
									"name": "keyId",
									"type": "uint256"
								},
								{
									"internalType": "address",
									"name": "owner",
									"type": "address"
								},
								{
									"internalType": "string",
									"name": "url",
									"type": "string"
								},
								{
									"internalType": "string",
									"name": "account",
									"type": "string"
								},
								{
									"internalType": "string",
									"name": "password",
									"type": "string"
								},
								{
									"internalType": "string",
									"name": "comment",
									"type": "string"
								}
							],
							"internalType": "struct CryptoGuardPass.Key[]",
							"name": "",
							"type": "tuple[]"
						},
						{
							"internalType": "uint256",
							"name": "",
							"type": "uint256"
						}
					],
					"stateMutability": "view",
					"type": "function"
				},
				{
					"inputs": [
						{
							"internalType": "uint256",
							"name": "",
							"type": "uint256"
						}
					],
					"name": "idToKeyIndex",
					"outputs": [
						{
							"internalType": "uint256",
							"name": "",
							"type": "uint256"
						}
					],
					"stateMutability": "view",
					"type": "function"
				},
				{
					"inputs": [
						{
							"internalType": "uint256",
							"name": "",
							"type": "uint256"
						}
					],
					"name": "keys",
					"outputs": [
						{
							"internalType": "uint256",
							"name": "keyId",
							"type": "uint256"
						},
						{
							"internalType": "address",
							"name": "owner",
							"type": "address"
						},
						{
							"internalType": "string",
							"name": "url",
							"type": "string"
						},
						{
							"internalType": "string",
							"name": "account",
							"type": "string"
						},
						{
							"internalType": "string",
							"name": "password",
							"type": "string"
						},
						{
							"internalType": "string",
							"name": "comment",
							"type": "string"
						}
					],
					"stateMutability": "view",
					"type": "function"
				},
				{
					"inputs": [],
					"name": "owner",
					"outputs": [
						{
							"internalType": "address",
							"name": "",
							"type": "address"
						}
					],
					"stateMutability": "view",
					"type": "function"
				},
				{
					"inputs": [
						{
							"internalType": "uint256",
							"name": "_keyId",
							"type": "uint256"
						}
					],
					"name": "removeKey",
					"outputs": [],
					"stateMutability": "nonpayable",
					"type": "function"
				},
				{
					"inputs": [
						{
							"internalType": "uint256",
							"name": "_keyId",
							"type": "uint256"
						},
						{
							"internalType": "string",
							"name": "_account",
							"type": "string"
						},
						{
							"internalType": "string",
							"name": "_password",
							"type": "string"
						},
						{
							"internalType": "string",
							"name": "_comment",
							"type": "string"
						}
					],
					"name": "updateInfo",
					"outputs": [],
					"stateMutability": "nonpayable",
					"type": "function"
				}
			],
			"devdoc": {
				"kind": "dev",
				"methods": {},
				"version": 1
			},
			"evm": {
				"assembly": "    /* \"contracts/CryptoGuardPass.sol\":61:3640  contract CryptoGuardPass{... */\n  mstore(0x40, 0x80)\n  callvalue\n  dup1\n  iszero\n  tag_1\n  jumpi\n  0x00\n  dup1\n  revert\ntag_1:\n  pop\n  dataSize(sub_0)\n  dup1\n  dataOffset(sub_0)\n  0x00\n  codecopy\n  0x00\n  return\nstop\n\nsub_0: assembly {\n        /* \"contracts/CryptoGuardPass.sol\":61:3640  contract CryptoGuardPass{... */\n      mstore(0x40, 0x80)\n      callvalue\n      dup1\n      iszero\n      tag_1\n      jumpi\n      0x00\n      dup1\n      revert\n    tag_1:\n      pop\n      jumpi(tag_2, lt(calldatasize, 0x04))\n      shr(0xe0, calldataload(0x00))\n      dup1\n      0x83659cd9\n      gt\n      tag_10\n      jumpi\n      dup1\n      0x83659cd9\n      eq\n      tag_6\n      jumpi\n      dup1\n      0x8da5cb5b\n      eq\n      tag_7\n      jumpi\n      dup1\n      0xa8d20d61\n      eq\n      tag_8\n      jumpi\n      dup1\n      0xd6700e37\n      eq\n      tag_9\n      jumpi\n      jump(tag_2)\n    tag_10:\n      dup1\n      0x5b0732\n      eq\n      tag_3\n      jumpi\n      dup1\n      0x0cb6aaf1\n      eq\n      tag_4\n      jumpi\n      dup1\n      0x74a2d74e\n      eq\n      tag_5\n      jumpi\n    tag_2:\n      0x00\n      dup1\n      revert\n        /* \"contracts/CryptoGuardPass.sol\":1478:2012  function updateInfo(uint256 _keyId,string memory _account,string memory _password,string memory _comment) external NotNullInfo(_account,_password) NotZeroId(_keyId) {... */\n    tag_3:\n      tag_11\n      0x04\n      dup1\n      calldatasize\n      sub\n      dup2\n      add\n      swap1\n      tag_12\n      swap2\n      swap1\n      tag_13\n      jump\t// in\n    tag_12:\n      tag_14\n      jump\t// in\n    tag_11:\n      stop\n        /* \"contracts/CryptoGuardPass.sol\":352:370  Key [] public keys */\n    tag_4:\n      tag_15\n      0x04\n      dup1\n      calldatasize\n      sub\n      dup2\n      add\n      swap1\n      tag_16\n      swap2\n      swap1\n      tag_17\n      jump\t// in\n    tag_16:\n      tag_18\n      jump\t// in\n    tag_15:\n      mload(0x40)\n      tag_19\n      swap7\n      swap6\n      swap5\n      swap4\n      swap3\n      swap2\n      swap1\n      tag_20\n      jump\t// in\n    tag_19:\n      mload(0x40)\n      dup1\n      swap2\n      sub\n      swap1\n      return\n        /* \"contracts/CryptoGuardPass.sol\":2657:3049  function getAllMyKeys() public view returns (Key[]memory,uint256){... */\n    tag_5:\n      tag_21\n      tag_22\n      jump\t// in\n    tag_21:\n      mload(0x40)\n      tag_23\n      swap3\n      swap2\n      swap1\n      tag_24\n      jump\t// in\n    tag_23:\n      mload(0x40)\n      dup1\n      swap2\n      sub\n      swap1\n      return\n        /* \"contracts/CryptoGuardPass.sol\":947:1470  function addKey(string memory _url,string memory _account,string memory _password,string memory _comment) external NotNullInfo(_account,_password){... */\n    tag_6:\n      tag_25\n      0x04\n      dup1\n      calldatasize\n      sub\n      dup2\n      add\n      swap1\n      tag_26\n      swap2\n      swap1\n      tag_27\n      jump\t// in\n    tag_26:\n      tag_28\n      jump\t// in\n    tag_25:\n      stop\n        /* \"contracts/CryptoGuardPass.sol\":92:112  address public owner */\n    tag_7:\n      tag_29\n      tag_30\n      jump\t// in\n    tag_29:\n      mload(0x40)\n      tag_31\n      swap2\n      swap1\n      tag_32\n      jump\t// in\n    tag_31:\n      mload(0x40)\n      dup1\n      swap2\n      sub\n      swap1\n      return\n        /* \"contracts/CryptoGuardPass.sol\":2020:2651  function removeKey(uint256 _keyId) external {... */\n    tag_8:\n      tag_33\n      0x04\n      dup1\n      calldatasize\n      sub\n      dup2\n      add\n      swap1\n      tag_34\n      swap2\n      swap1\n      tag_17\n      jump\t// in\n    tag_34:\n      tag_35\n      jump\t// in\n    tag_33:\n      stop\n        /* \"contracts/CryptoGuardPass.sol\":408:454  mapping (uint256=>uint256) public idToKeyIndex */\n    tag_9:\n      tag_36\n      0x04\n      dup1\n      calldatasize\n      sub\n      dup2\n      add\n      swap1\n      tag_37\n      swap2\n      swap1\n      tag_17\n      jump\t// in\n    tag_37:\n      tag_38\n      jump\t// in\n    tag_36:\n      mload(0x40)\n      tag_39\n      swap2\n      swap1\n      tag_40\n      jump\t// in\n    tag_39:\n      mload(0x40)\n      dup1\n      swap2\n      sub\n      swap1\n      return\n        /* \"contracts/CryptoGuardPass.sol\":1478:2012  function updateInfo(uint256 _keyId,string memory _account,string memory _password,string memory _comment) external NotNullInfo(_account,_password) NotZeroId(_keyId) {... */\n    tag_14:\n        /* \"contracts/CryptoGuardPass.sol\":1605:1613  _account */\n      dup3\n        /* \"contracts/CryptoGuardPass.sol\":1614:1623  _password */\n      dup3\n        /* \"contracts/CryptoGuardPass.sol\":830:853  isStringEmpty(_account) */\n      tag_42\n        /* \"contracts/CryptoGuardPass.sol\":844:852  _account */\n      dup3\n        /* \"contracts/CryptoGuardPass.sol\":830:843  isStringEmpty */\n      tag_43\n        /* \"contracts/CryptoGuardPass.sol\":830:853  isStringEmpty(_account) */\n      jump\t// in\n    tag_42:\n        /* \"contracts/CryptoGuardPass.sol\":829:853  !isStringEmpty(_account) */\n      iszero\n        /* \"contracts/CryptoGuardPass.sol\":829:880  !isStringEmpty(_account)&&!isStringEmpty(_password) */\n      dup1\n      iszero\n      tag_44\n      jumpi\n      pop\n        /* \"contracts/CryptoGuardPass.sol\":856:880  isStringEmpty(_password) */\n      tag_45\n        /* \"contracts/CryptoGuardPass.sol\":870:879  _password */\n      dup2\n        /* \"contracts/CryptoGuardPass.sol\":856:869  isStringEmpty */\n      tag_43\n        /* \"contracts/CryptoGuardPass.sol\":856:880  isStringEmpty(_password) */\n      jump\t// in\n    tag_45:\n        /* \"contracts/CryptoGuardPass.sol\":855:880  !isStringEmpty(_password) */\n      iszero\n        /* \"contracts/CryptoGuardPass.sol\":829:880  !isStringEmpty(_account)&&!isStringEmpty(_password) */\n    tag_44:\n        /* \"contracts/CryptoGuardPass.sol\":821:921  require(!isStringEmpty(_account)&&!isStringEmpty(_password),\"Account and Password cannot be empty!\") */\n      tag_46\n      jumpi\n      mload(0x40)\n      0x08c379a000000000000000000000000000000000000000000000000000000000\n      dup2\n      mstore\n      0x04\n      add\n      tag_47\n      swap1\n      tag_48\n      jump\t// in\n    tag_47:\n      mload(0x40)\n      dup1\n      swap2\n      sub\n      swap1\n      revert\n    tag_46:\n        /* \"contracts/CryptoGuardPass.sol\":1635:1641  _keyId */\n      dup6\n        /* \"contracts/CryptoGuardPass.sol\":699:700  0 */\n      0x00\n        /* \"contracts/CryptoGuardPass.sol\":692:698  _keyId */\n      dup2\n        /* \"contracts/CryptoGuardPass.sol\":692:700  _keyId>0 */\n      gt\n        /* \"contracts/CryptoGuardPass.sol\":684:716  require(_keyId>0,\"KeyId Wrong!\") */\n      tag_50\n      jumpi\n      mload(0x40)\n      0x08c379a000000000000000000000000000000000000000000000000000000000\n      dup2\n      mstore\n      0x04\n      add\n      tag_51\n      swap1\n      tag_52\n      jump\t// in\n    tag_51:\n      mload(0x40)\n      dup1\n      swap2\n      sub\n      swap1\n      revert\n    tag_50:\n        /* \"contracts/CryptoGuardPass.sol\":1654:1670  Key storage item */\n      0x00\n        /* \"contracts/CryptoGuardPass.sol\":1671:1678  keyOfId */\n      0x01\n        /* \"contracts/CryptoGuardPass.sol\":1671:1686  keyOfId[_keyId] */\n      0x00\n        /* \"contracts/CryptoGuardPass.sol\":1679:1685  _keyId */\n      dup10\n        /* \"contracts/CryptoGuardPass.sol\":1671:1686  keyOfId[_keyId] */\n      dup2\n      mstore\n      0x20\n      add\n      swap1\n      dup2\n      mstore\n      0x20\n      add\n      0x00\n      keccak256\n        /* \"contracts/CryptoGuardPass.sol\":1654:1686  Key storage item=keyOfId[_keyId] */\n      swap1\n      pop\n        /* \"contracts/CryptoGuardPass.sol\":1717:1721  item */\n      dup1\n        /* \"contracts/CryptoGuardPass.sol\":1717:1727  item.owner */\n      0x01\n      add\n      0x00\n      swap1\n      sload\n      swap1\n      0x0100\n      exp\n      swap1\n      div\n      0xffffffffffffffffffffffffffffffffffffffff\n      and\n        /* \"contracts/CryptoGuardPass.sol\":1705:1727  msg.sender==item.owner */\n      0xffffffffffffffffffffffffffffffffffffffff\n      and\n        /* \"contracts/CryptoGuardPass.sol\":1705:1715  msg.sender */\n      caller\n        /* \"contracts/CryptoGuardPass.sol\":1705:1727  msg.sender==item.owner */\n      0xffffffffffffffffffffffffffffffffffffffff\n      and\n      eq\n        /* \"contracts/CryptoGuardPass.sol\":1697:1756  require(msg.sender==item.owner,\"Only owner can call this!\") */\n      tag_54\n      jumpi\n      mload(0x40)\n      0x08c379a000000000000000000000000000000000000000000000000000000000\n      dup2\n      mstore\n      0x04\n      add\n      tag_55\n      swap1\n      tag_56\n      jump\t// in\n    tag_55:\n      mload(0x40)\n      dup1\n      swap2\n      sub\n      swap1\n      revert\n    tag_54:\n        /* \"contracts/CryptoGuardPass.sol\":1781:1790  _password */\n      dup6\n        /* \"contracts/CryptoGuardPass.sol\":1767:1771  item */\n      dup2\n        /* \"contracts/CryptoGuardPass.sol\":1767:1780  item.password */\n      0x04\n      add\n        /* \"contracts/CryptoGuardPass.sol\":1767:1790  item.password=_password */\n      swap1\n      dup2\n      tag_57\n      swap2\n      swap1\n      tag_58\n      jump\t// in\n    tag_57:\n      pop\n        /* \"contracts/CryptoGuardPass.sol\":1814:1822  _account */\n      dup7\n        /* \"contracts/CryptoGuardPass.sol\":1801:1805  item */\n      dup2\n        /* \"contracts/CryptoGuardPass.sol\":1801:1813  item.account */\n      0x03\n      add\n        /* \"contracts/CryptoGuardPass.sol\":1801:1822  item.account=_account */\n      swap1\n      dup2\n      tag_59\n      swap2\n      swap1\n      tag_58\n      jump\t// in\n    tag_59:\n      pop\n        /* \"contracts/CryptoGuardPass.sol\":1846:1854  _comment */\n      dup5\n        /* \"contracts/CryptoGuardPass.sol\":1833:1837  item */\n      dup2\n        /* \"contracts/CryptoGuardPass.sol\":1833:1845  item.comment */\n      0x05\n      add\n        /* \"contracts/CryptoGuardPass.sol\":1833:1854  item.comment=_comment */\n      swap1\n      dup2\n      tag_60\n      swap2\n      swap1\n      tag_58\n      jump\t// in\n    tag_60:\n      pop\n        /* \"contracts/CryptoGuardPass.sol\":1883:1887  item */\n      dup1\n        /* \"contracts/CryptoGuardPass.sol\":1867:1874  keyOfId */\n      0x01\n        /* \"contracts/CryptoGuardPass.sol\":1867:1882  keyOfId[_keyId] */\n      0x00\n        /* \"contracts/CryptoGuardPass.sol\":1875:1881  _keyId */\n      dup11\n        /* \"contracts/CryptoGuardPass.sol\":1867:1882  keyOfId[_keyId] */\n      dup2\n      mstore\n      0x20\n      add\n      swap1\n      dup2\n      mstore\n      0x20\n      add\n      0x00\n      keccak256\n        /* \"contracts/CryptoGuardPass.sol\":1867:1887  keyOfId[_keyId]=item */\n      0x00\n      dup3\n      add\n      sload\n      dup2\n      0x00\n      add\n      sstore\n      0x01\n      dup3\n      add\n      0x00\n      swap1\n      sload\n      swap1\n      0x0100\n      exp\n      swap1\n      div\n      0xffffffffffffffffffffffffffffffffffffffff\n      and\n      dup2\n      0x01\n      add\n      exp(0x0100, 0x00)\n      dup2\n      sload\n      dup2\n      0xffffffffffffffffffffffffffffffffffffffff\n      mul\n      not\n      and\n      swap1\n      dup4\n      0xffffffffffffffffffffffffffffffffffffffff\n      and\n      mul\n      or\n      swap1\n      sstore\n      pop\n      0x02\n      dup3\n      add\n      dup2\n      0x02\n      add\n      swap1\n      dup2\n      tag_61\n      swap2\n      swap1\n      tag_62\n      jump\t// in\n    tag_61:\n      pop\n      0x03\n      dup3\n      add\n      dup2\n      0x03\n      add\n      swap1\n      dup2\n      tag_63\n      swap2\n      swap1\n      tag_62\n      jump\t// in\n    tag_63:\n      pop\n      0x04\n      dup3\n      add\n      dup2\n      0x04\n      add\n      swap1\n      dup2\n      tag_64\n      swap2\n      swap1\n      tag_62\n      jump\t// in\n    tag_64:\n      pop\n      0x05\n      dup3\n      add\n      dup2\n      0x05\n      add\n      swap1\n      dup2\n      tag_65\n      swap2\n      swap1\n      tag_62\n      jump\t// in\n    tag_65:\n      pop\n      swap1\n      pop\n      pop\n        /* \"contracts/CryptoGuardPass.sol\":1898:1911  uint256 index */\n      0x00\n        /* \"contracts/CryptoGuardPass.sol\":1912:1924  idToKeyIndex */\n      0x03\n        /* \"contracts/CryptoGuardPass.sol\":1912:1932  idToKeyIndex[_keyId] */\n      0x00\n        /* \"contracts/CryptoGuardPass.sol\":1925:1931  _keyId */\n      dup11\n        /* \"contracts/CryptoGuardPass.sol\":1912:1932  idToKeyIndex[_keyId] */\n      dup2\n      mstore\n      0x20\n      add\n      swap1\n      dup2\n      mstore\n      0x20\n      add\n      0x00\n      keccak256\n      sload\n        /* \"contracts/CryptoGuardPass.sol\":1898:1932  uint256 index=idToKeyIndex[_keyId] */\n      swap1\n      pop\n        /* \"contracts/CryptoGuardPass.sol\":1955:1959  item */\n      dup2\n        /* \"contracts/CryptoGuardPass.sol\":1943:1947  keys */\n      0x02\n        /* \"contracts/CryptoGuardPass.sol\":1948:1953  index */\n      dup3\n        /* \"contracts/CryptoGuardPass.sol\":1943:1954  keys[index] */\n      dup2\n      sload\n      dup2\n      lt\n      tag_66\n      jumpi\n      tag_67\n      tag_68\n      jump\t// in\n    tag_67:\n    tag_66:\n      swap1\n      0x00\n      mstore\n      keccak256(0x00, 0x20)\n      swap1\n      0x06\n      mul\n      add\n        /* \"contracts/CryptoGuardPass.sol\":1943:1959  keys[index]=item */\n      0x00\n      dup3\n      add\n      sload\n      dup2\n      0x00\n      add\n      sstore\n      0x01\n      dup3\n      add\n      0x00\n      swap1\n      sload\n      swap1\n      0x0100\n      exp\n      swap1\n      div\n      0xffffffffffffffffffffffffffffffffffffffff\n      and\n      dup2\n      0x01\n      add\n      exp(0x0100, 0x00)\n      dup2\n      sload\n      dup2\n      0xffffffffffffffffffffffffffffffffffffffff\n      mul\n      not\n      and\n      swap1\n      dup4\n      0xffffffffffffffffffffffffffffffffffffffff\n      and\n      mul\n      or\n      swap1\n      sstore\n      pop\n      0x02\n      dup3\n      add\n      dup2\n      0x02\n      add\n      swap1\n      dup2\n      tag_70\n      swap2\n      swap1\n      tag_62\n      jump\t// in\n    tag_70:\n      pop\n      0x03\n      dup3\n      add\n      dup2\n      0x03\n      add\n      swap1\n      dup2\n      tag_71\n      swap2\n      swap1\n      tag_62\n      jump\t// in\n    tag_71:\n      pop\n      0x04\n      dup3\n      add\n      dup2\n      0x04\n      add\n      swap1\n      dup2\n      tag_72\n      swap2\n      swap1\n      tag_62\n      jump\t// in\n    tag_72:\n      pop\n      0x05\n      dup3\n      add\n      dup2\n      0x05\n      add\n      swap1\n      dup2\n      tag_73\n      swap2\n      swap1\n      tag_62\n      jump\t// in\n    tag_73:\n      pop\n      swap1\n      pop\n      pop\n        /* \"contracts/CryptoGuardPass.sol\":1975:2004  KeyUpdate(msg.sender, _keyId) */\n      0x76b5986448b778accbcad74a1d0e785699894c90208cdb318547a8a2fb93bf28\n        /* \"contracts/CryptoGuardPass.sol\":1985:1995  msg.sender */\n      caller\n        /* \"contracts/CryptoGuardPass.sol\":1997:2003  _keyId */\n      dup11\n        /* \"contracts/CryptoGuardPass.sol\":1975:2004  KeyUpdate(msg.sender, _keyId) */\n      mload(0x40)\n      tag_74\n      swap3\n      swap2\n      swap1\n      tag_75\n      jump\t// in\n    tag_74:\n      mload(0x40)\n      dup1\n      swap2\n      sub\n      swap1\n      log1\n        /* \"contracts/CryptoGuardPass.sol\":1643:2012  {... */\n      pop\n      pop\n        /* \"contracts/CryptoGuardPass.sol\":932:933  _ */\n      pop\n        /* \"contracts/CryptoGuardPass.sol\":1478:2012  function updateInfo(uint256 _keyId,string memory _account,string memory _password,string memory _comment) external NotNullInfo(_account,_password) NotZeroId(_keyId) {... */\n      pop\n      pop\n      pop\n      pop\n      pop\n      pop\n      jump\t// out\n        /* \"contracts/CryptoGuardPass.sol\":352:370  Key [] public keys */\n    tag_18:\n      0x02\n      dup2\n      dup2\n      sload\n      dup2\n      lt\n      tag_76\n      jumpi\n      0x00\n      dup1\n      revert\n    tag_76:\n      swap1\n      0x00\n      mstore\n      keccak256(0x00, 0x20)\n      swap1\n      0x06\n      mul\n      add\n      0x00\n      swap2\n      pop\n      swap1\n      pop\n      dup1\n      0x00\n      add\n      sload\n      swap1\n      dup1\n      0x01\n      add\n      0x00\n      swap1\n      sload\n      swap1\n      0x0100\n      exp\n      swap1\n      div\n      0xffffffffffffffffffffffffffffffffffffffff\n      and\n      swap1\n      dup1\n      0x02\n      add\n      dup1\n      sload\n      tag_78\n      swap1\n      tag_79\n      jump\t// in\n    tag_78:\n      dup1\n      0x1f\n      add\n      0x20\n      dup1\n      swap2\n      div\n      mul\n      0x20\n      add\n      mload(0x40)\n      swap1\n      dup2\n      add\n      0x40\n      mstore\n      dup1\n      swap3\n      swap2\n      swap1\n      dup2\n      dup2\n      mstore\n      0x20\n      add\n      dup3\n      dup1\n      sload\n      tag_80\n      swap1\n      tag_79\n      jump\t// in\n    tag_80:\n      dup1\n      iszero\n      tag_81\n      jumpi\n      dup1\n      0x1f\n      lt\n      tag_82\n      jumpi\n      0x0100\n      dup1\n      dup4\n      sload\n      div\n      mul\n      dup4\n      mstore\n      swap2\n      0x20\n      add\n      swap2\n      jump(tag_81)\n    tag_82:\n      dup3\n      add\n      swap2\n      swap1\n      0x00\n      mstore\n      keccak256(0x00, 0x20)\n      swap1\n    tag_83:\n      dup2\n      sload\n      dup2\n      mstore\n      swap1\n      0x01\n      add\n      swap1\n      0x20\n      add\n      dup1\n      dup4\n      gt\n      tag_83\n      jumpi\n      dup3\n      swap1\n      sub\n      0x1f\n      and\n      dup3\n      add\n      swap2\n    tag_81:\n      pop\n      pop\n      pop\n      pop\n      pop\n      swap1\n      dup1\n      0x03\n      add\n      dup1\n      sload\n      tag_84\n      swap1\n      tag_79\n      jump\t// in\n    tag_84:\n      dup1\n      0x1f\n      add\n      0x20\n      dup1\n      swap2\n      div\n      mul\n      0x20\n      add\n      mload(0x40)\n      swap1\n      dup2\n      add\n      0x40\n      mstore\n      dup1\n      swap3\n      swap2\n      swap1\n      dup2\n      dup2\n      mstore\n      0x20\n      add\n      dup3\n      dup1\n      sload\n      tag_85\n      swap1\n      tag_79\n      jump\t// in\n    tag_85:\n      dup1\n      iszero\n      tag_86\n      jumpi\n      dup1\n      0x1f\n      lt\n      tag_87\n      jumpi\n      0x0100\n      dup1\n      dup4\n      sload\n      div\n      mul\n      dup4\n      mstore\n      swap2\n      0x20\n      add\n      swap2\n      jump(tag_86)\n    tag_87:\n      dup3\n      add\n      swap2\n      swap1\n      0x00\n      mstore\n      keccak256(0x00, 0x20)\n      swap1\n    tag_88:\n      dup2\n      sload\n      dup2\n      mstore\n      swap1\n      0x01\n      add\n      swap1\n      0x20\n      add\n      dup1\n      dup4\n      gt\n      tag_88\n      jumpi\n      dup3\n      swap1\n      sub\n      0x1f\n      and\n      dup3\n      add\n      swap2\n    tag_86:\n      pop\n      pop\n      pop\n      pop\n      pop\n      swap1\n      dup1\n      0x04\n      add\n      dup1\n      sload\n      tag_89\n      swap1\n      tag_79\n      jump\t// in\n    tag_89:\n      dup1\n      0x1f\n      add\n      0x20\n      dup1\n      swap2\n      div\n      mul\n      0x20\n      add\n      mload(0x40)\n      swap1\n      dup2\n      add\n      0x40\n      mstore\n      dup1\n      swap3\n      swap2\n      swap1\n      dup2\n      dup2\n      mstore\n      0x20\n      add\n      dup3\n      dup1\n      sload\n      tag_90\n      swap1\n      tag_79\n      jump\t// in\n    tag_90:\n      dup1\n      iszero\n      tag_91\n      jumpi\n      dup1\n      0x1f\n      lt\n      tag_92\n      jumpi\n      0x0100\n      dup1\n      dup4\n      sload\n      div\n      mul\n      dup4\n      mstore\n      swap2\n      0x20\n      add\n      swap2\n      jump(tag_91)\n    tag_92:\n      dup3\n      add\n      swap2\n      swap1\n      0x00\n      mstore\n      keccak256(0x00, 0x20)\n      swap1\n    tag_93:\n      dup2\n      sload\n      dup2\n      mstore\n      swap1\n      0x01\n      add\n      swap1\n      0x20\n      add\n      dup1\n      dup4\n      gt\n      tag_93\n      jumpi\n      dup3\n      swap1\n      sub\n      0x1f\n      and\n      dup3\n      add\n      swap2\n    tag_91:\n      pop\n      pop\n      pop\n      pop\n      pop\n      swap1\n      dup1\n      0x05\n      add\n      dup1\n      sload\n      tag_94\n      swap1\n      tag_79\n      jump\t// in\n    tag_94:\n      dup1\n      0x1f\n      add\n      0x20\n      dup1\n      swap2\n      div\n      mul\n      0x20\n      add\n      mload(0x40)\n      swap1\n      dup2\n      add\n      0x40\n      mstore\n      dup1\n      swap3\n      swap2\n      swap1\n      dup2\n      dup2\n      mstore\n      0x20\n      add\n      dup3\n      dup1\n      sload\n      tag_95\n      swap1\n      tag_79\n      jump\t// in\n    tag_95:\n      dup1\n      iszero\n      tag_96\n      jumpi\n      dup1\n      0x1f\n      lt\n      tag_97\n      jumpi\n      0x0100\n      dup1\n      dup4\n      sload\n      div\n      mul\n      dup4\n      mstore\n      swap2\n      0x20\n      add\n      swap2\n      jump(tag_96)\n    tag_97:\n      dup3\n      add\n      swap2\n      swap1\n      0x00\n      mstore\n      keccak256(0x00, 0x20)\n      swap1\n    tag_98:\n      dup2\n      sload\n      dup2\n      mstore\n      swap1\n      0x01\n      add\n      swap1\n      0x20\n      add\n      dup1\n      dup4\n      gt\n      tag_98\n      jumpi\n      dup3\n      swap1\n      sub\n      0x1f\n      and\n      dup3\n      add\n      swap2\n    tag_96:\n      pop\n      pop\n      pop\n      pop\n      pop\n      swap1\n      pop\n      dup7\n      jump\t// out\n        /* \"contracts/CryptoGuardPass.sol\":2657:3049  function getAllMyKeys() public view returns (Key[]memory,uint256){... */\n    tag_22:\n        /* \"contracts/CryptoGuardPass.sol\":2702:2713  Key[]memory */\n      0x60\n        /* \"contracts/CryptoGuardPass.sol\":2714:2721  uint256 */\n      0x00\n        /* \"contracts/CryptoGuardPass.sol\":2733:2752  Key []memory myKeys */\n      dup1\n        /* \"contracts/CryptoGuardPass.sol\":2763:2767  keys */\n      0x02\n        /* \"contracts/CryptoGuardPass.sol\":2763:2774  keys.length */\n      dup1\n      sload\n      swap1\n      pop\n        /* \"contracts/CryptoGuardPass.sol\":2753:2775  new Key[](keys.length) */\n      0xffffffffffffffff\n      dup2\n      gt\n      iszero\n      tag_100\n      jumpi\n      tag_101\n      tag_102\n      jump\t// in\n    tag_101:\n    tag_100:\n      mload(0x40)\n      swap1\n      dup1\n      dup3\n      mstore\n      dup1\n      0x20\n      mul\n      0x20\n      add\n      dup3\n      add\n      0x40\n      mstore\n      dup1\n      iszero\n      tag_103\n      jumpi\n      dup2\n      0x20\n      add\n    tag_104:\n      tag_105\n      tag_106\n      jump\t// in\n    tag_105:\n      dup2\n      mstore\n      0x20\n      add\n      swap1\n      0x01\n      swap1\n      sub\n      swap1\n      dup2\n      tag_104\n      jumpi\n      swap1\n      pop\n    tag_103:\n      pop\n        /* \"contracts/CryptoGuardPass.sol\":2733:2775  Key []memory myKeys=new Key[](keys.length) */\n      swap1\n      pop\n        /* \"contracts/CryptoGuardPass.sol\":2786:2799  uint256 count */\n      0x00\n        /* \"contracts/CryptoGuardPass.sol\":2816:2825  uint256 i */\n      dup1\n        /* \"contracts/CryptoGuardPass.sol\":2812:3010  for(uint256 i=0;i<keys.length;i++){... */\n    tag_107:\n        /* \"contracts/CryptoGuardPass.sol\":2830:2834  keys */\n      0x02\n        /* \"contracts/CryptoGuardPass.sol\":2830:2841  keys.length */\n      dup1\n      sload\n      swap1\n      pop\n        /* \"contracts/CryptoGuardPass.sol\":2828:2829  i */\n      dup2\n        /* \"contracts/CryptoGuardPass.sol\":2828:2841  i<keys.length */\n      lt\n        /* \"contracts/CryptoGuardPass.sol\":2812:3010  for(uint256 i=0;i<keys.length;i++){... */\n      iszero\n      tag_108\n      jumpi\n        /* \"contracts/CryptoGuardPass.sol\":2879:2889  msg.sender */\n      caller\n        /* \"contracts/CryptoGuardPass.sol\":2864:2889  keys[i].owner==msg.sender */\n      0xffffffffffffffffffffffffffffffffffffffff\n      and\n        /* \"contracts/CryptoGuardPass.sol\":2864:2868  keys */\n      0x02\n        /* \"contracts/CryptoGuardPass.sol\":2869:2870  i */\n      dup3\n        /* \"contracts/CryptoGuardPass.sol\":2864:2871  keys[i] */\n      dup2\n      sload\n      dup2\n      lt\n      tag_110\n      jumpi\n      tag_111\n      tag_68\n      jump\t// in\n    tag_111:\n    tag_110:\n      swap1\n      0x00\n      mstore\n      keccak256(0x00, 0x20)\n      swap1\n      0x06\n      mul\n      add\n        /* \"contracts/CryptoGuardPass.sol\":2864:2877  keys[i].owner */\n      0x01\n      add\n      0x00\n      swap1\n      sload\n      swap1\n      0x0100\n      exp\n      swap1\n      div\n      0xffffffffffffffffffffffffffffffffffffffff\n      and\n        /* \"contracts/CryptoGuardPass.sol\":2864:2889  keys[i].owner==msg.sender */\n      0xffffffffffffffffffffffffffffffffffffffff\n      and\n      eq\n        /* \"contracts/CryptoGuardPass.sol\":2864:2916  keys[i].owner==msg.sender&&keys[i].owner!=address(0) */\n      dup1\n      iszero\n      tag_113\n      jumpi\n      pop\n        /* \"contracts/CryptoGuardPass.sol\":2914:2915  0 */\n      0x00\n        /* \"contracts/CryptoGuardPass.sol\":2891:2916  keys[i].owner!=address(0) */\n      0xffffffffffffffffffffffffffffffffffffffff\n      and\n        /* \"contracts/CryptoGuardPass.sol\":2891:2895  keys */\n      0x02\n        /* \"contracts/CryptoGuardPass.sol\":2896:2897  i */\n      dup3\n        /* \"contracts/CryptoGuardPass.sol\":2891:2898  keys[i] */\n      dup2\n      sload\n      dup2\n      lt\n      tag_114\n      jumpi\n      tag_115\n      tag_68\n      jump\t// in\n    tag_115:\n    tag_114:\n      swap1\n      0x00\n      mstore\n      keccak256(0x00, 0x20)\n      swap1\n      0x06\n      mul\n      add\n        /* \"contracts/CryptoGuardPass.sol\":2891:2904  keys[i].owner */\n      0x01\n      add\n      0x00\n      swap1\n      sload\n      swap1\n      0x0100\n      exp\n      swap1\n      div\n      0xffffffffffffffffffffffffffffffffffffffff\n      and\n        /* \"contracts/CryptoGuardPass.sol\":2891:2916  keys[i].owner!=address(0) */\n      0xffffffffffffffffffffffffffffffffffffffff\n      and\n      eq\n      iszero\n        /* \"contracts/CryptoGuardPass.sol\":2864:2916  keys[i].owner==msg.sender&&keys[i].owner!=address(0) */\n    tag_113:\n        /* \"contracts/CryptoGuardPass.sol\":2861:2999  if(keys[i].owner==msg.sender&&keys[i].owner!=address(0)){... */\n      iszero\n      tag_117\n      jumpi\n        /* \"contracts/CryptoGuardPass.sol\":2950:2954  keys */\n      0x02\n        /* \"contracts/CryptoGuardPass.sol\":2955:2956  i */\n      dup2\n        /* \"contracts/CryptoGuardPass.sol\":2950:2957  keys[i] */\n      dup2\n      sload\n      dup2\n      lt\n      tag_118\n      jumpi\n      tag_119\n      tag_68\n      jump\t// in\n    tag_119:\n    tag_118:\n      swap1\n      0x00\n      mstore\n      keccak256(0x00, 0x20)\n      swap1\n      0x06\n      mul\n      add\n        /* \"contracts/CryptoGuardPass.sol\":2936:2957  myKeys[count]=keys[i] */\n      mload(0x40)\n      dup1\n      0xc0\n      add\n      0x40\n      mstore\n      swap1\n      dup2\n      0x00\n      dup3\n      add\n      sload\n      dup2\n      mstore\n      0x20\n      add\n      0x01\n      dup3\n      add\n      0x00\n      swap1\n      sload\n      swap1\n      0x0100\n      exp\n      swap1\n      div\n      0xffffffffffffffffffffffffffffffffffffffff\n      and\n      0xffffffffffffffffffffffffffffffffffffffff\n      and\n      0xffffffffffffffffffffffffffffffffffffffff\n      and\n      dup2\n      mstore\n      0x20\n      add\n      0x02\n      dup3\n      add\n      dup1\n      sload\n      tag_121\n      swap1\n      tag_79\n      jump\t// in\n    tag_121:\n      dup1\n      0x1f\n      add\n      0x20\n      dup1\n      swap2\n      div\n      mul\n      0x20\n      add\n      mload(0x40)\n      swap1\n      dup2\n      add\n      0x40\n      mstore\n      dup1\n      swap3\n      swap2\n      swap1\n      dup2\n      dup2\n      mstore\n      0x20\n      add\n      dup3\n      dup1\n      sload\n      tag_122\n      swap1\n      tag_79\n      jump\t// in\n    tag_122:\n      dup1\n      iszero\n      tag_123\n      jumpi\n      dup1\n      0x1f\n      lt\n      tag_124\n      jumpi\n      0x0100\n      dup1\n      dup4\n      sload\n      div\n      mul\n      dup4\n      mstore\n      swap2\n      0x20\n      add\n      swap2\n      jump(tag_123)\n    tag_124:\n      dup3\n      add\n      swap2\n      swap1\n      0x00\n      mstore\n      keccak256(0x00, 0x20)\n      swap1\n    tag_125:\n      dup2\n      sload\n      dup2\n      mstore\n      swap1\n      0x01\n      add\n      swap1\n      0x20\n      add\n      dup1\n      dup4\n      gt\n      tag_125\n      jumpi\n      dup3\n      swap1\n      sub\n      0x1f\n      and\n      dup3\n      add\n      swap2\n    tag_123:\n      pop\n      pop\n      pop\n      pop\n      pop\n      dup2\n      mstore\n      0x20\n      add\n      0x03\n      dup3\n      add\n      dup1\n      sload\n      tag_126\n      swap1\n      tag_79\n      jump\t// in\n    tag_126:\n      dup1\n      0x1f\n      add\n      0x20\n      dup1\n      swap2\n      div\n      mul\n      0x20\n      add\n      mload(0x40)\n      swap1\n      dup2\n      add\n      0x40\n      mstore\n      dup1\n      swap3\n      swap2\n      swap1\n      dup2\n      dup2\n      mstore\n      0x20\n      add\n      dup3\n      dup1\n      sload\n      tag_127\n      swap1\n      tag_79\n      jump\t// in\n    tag_127:\n      dup1\n      iszero\n      tag_128\n      jumpi\n      dup1\n      0x1f\n      lt\n      tag_129\n      jumpi\n      0x0100\n      dup1\n      dup4\n      sload\n      div\n      mul\n      dup4\n      mstore\n      swap2\n      0x20\n      add\n      swap2\n      jump(tag_128)\n    tag_129:\n      dup3\n      add\n      swap2\n      swap1\n      0x00\n      mstore\n      keccak256(0x00, 0x20)\n      swap1\n    tag_130:\n      dup2\n      sload\n      dup2\n      mstore\n      swap1\n      0x01\n      add\n      swap1\n      0x20\n      add\n      dup1\n      dup4\n      gt\n      tag_130\n      jumpi\n      dup3\n      swap1\n      sub\n      0x1f\n      and\n      dup3\n      add\n      swap2\n    tag_128:\n      pop\n      pop\n      pop\n      pop\n      pop\n      dup2\n      mstore\n      0x20\n      add\n      0x04\n      dup3\n      add\n      dup1\n      sload\n      tag_131\n      swap1\n      tag_79\n      jump\t// in\n    tag_131:\n      dup1\n      0x1f\n      add\n      0x20\n      dup1\n      swap2\n      div\n      mul\n      0x20\n      add\n      mload(0x40)\n      swap1\n      dup2\n      add\n      0x40\n      mstore\n      dup1\n      swap3\n      swap2\n      swap1\n      dup2\n      dup2\n      mstore\n      0x20\n      add\n      dup3\n      dup1\n      sload\n      tag_132\n      swap1\n      tag_79\n      jump\t// in\n    tag_132:\n      dup1\n      iszero\n      tag_133\n      jumpi\n      dup1\n      0x1f\n      lt\n      tag_134\n      jumpi\n      0x0100\n      dup1\n      dup4\n      sload\n      div\n      mul\n      dup4\n      mstore\n      swap2\n      0x20\n      add\n      swap2\n      jump(tag_133)\n    tag_134:\n      dup3\n      add\n      swap2\n      swap1\n      0x00\n      mstore\n      keccak256(0x00, 0x20)\n      swap1\n    tag_135:\n      dup2\n      sload\n      dup2\n      mstore\n      swap1\n      0x01\n      add\n      swap1\n      0x20\n      add\n      dup1\n      dup4\n      gt\n      tag_135\n      jumpi\n      dup3\n      swap1\n      sub\n      0x1f\n      and\n      dup3\n      add\n      swap2\n    tag_133:\n      pop\n      pop\n      pop\n      pop\n      pop\n      dup2\n      mstore\n      0x20\n      add\n      0x05\n      dup3\n      add\n      dup1\n      sload\n      tag_136\n      swap1\n      tag_79\n      jump\t// in\n    tag_136:\n      dup1\n      0x1f\n      add\n      0x20\n      dup1\n      swap2\n      div\n      mul\n      0x20\n      add\n      mload(0x40)\n      swap1\n      dup2\n      add\n      0x40\n      mstore\n      dup1\n      swap3\n      swap2\n      swap1\n      dup2\n      dup2\n      mstore\n      0x20\n      add\n      dup3\n      dup1\n      sload\n      tag_137\n      swap1\n      tag_79\n      jump\t// in\n    tag_137:\n      dup1\n      iszero\n      tag_138\n      jumpi\n      dup1\n      0x1f\n      lt\n      tag_139\n      jumpi\n      0x0100\n      dup1\n      dup4\n      sload\n      div\n      mul\n      dup4\n      mstore\n      swap2\n      0x20\n      add\n      swap2\n      jump(tag_138)\n    tag_139:\n      dup3\n      add\n      swap2\n      swap1\n      0x00\n      mstore\n      keccak256(0x00, 0x20)\n      swap1\n    tag_140:\n      dup2\n      sload\n      dup2\n      mstore\n      swap1\n      0x01\n      add\n      swap1\n      0x20\n      add\n      dup1\n      dup4\n      gt\n      tag_140\n      jumpi\n      dup3\n      swap1\n      sub\n      0x1f\n      and\n      dup3\n      add\n      swap2\n    tag_138:\n      pop\n      pop\n      pop\n      pop\n      pop\n      dup2\n      mstore\n      pop\n      pop\n        /* \"contracts/CryptoGuardPass.sol\":2936:2942  myKeys */\n      dup4\n        /* \"contracts/CryptoGuardPass.sol\":2943:2948  count */\n      dup4\n        /* \"contracts/CryptoGuardPass.sol\":2936:2949  myKeys[count] */\n      dup2\n      mload\n      dup2\n      lt\n      tag_141\n      jumpi\n      tag_142\n      tag_68\n      jump\t// in\n    tag_142:\n    tag_141:\n      0x20\n      mul\n      0x20\n      add\n      add\n        /* \"contracts/CryptoGuardPass.sol\":2936:2957  myKeys[count]=keys[i] */\n      dup2\n      swap1\n      mstore\n      pop\n        /* \"contracts/CryptoGuardPass.sol\":2976:2983  count++ */\n      dup2\n      dup1\n      tag_143\n      swap1\n      tag_144\n      jump\t// in\n    tag_143:\n      swap3\n      pop\n      pop\n        /* \"contracts/CryptoGuardPass.sol\":2861:2999  if(keys[i].owner==msg.sender&&keys[i].owner!=address(0)){... */\n    tag_117:\n        /* \"contracts/CryptoGuardPass.sol\":2842:2845  i++ */\n      dup1\n      dup1\n      tag_145\n      swap1\n      tag_144\n      jump\t// in\n    tag_145:\n      swap2\n      pop\n      pop\n        /* \"contracts/CryptoGuardPass.sol\":2812:3010  for(uint256 i=0;i<keys.length;i++){... */\n      jump(tag_107)\n    tag_108:\n      pop\n        /* \"contracts/CryptoGuardPass.sol\":3028:3034  myKeys */\n      dup2\n        /* \"contracts/CryptoGuardPass.sol\":3035:3040  count */\n      dup2\n        /* \"contracts/CryptoGuardPass.sol\":3020:3041  return (myKeys,count) */\n      swap4\n      pop\n      swap4\n      pop\n      pop\n      pop\n        /* \"contracts/CryptoGuardPass.sol\":2657:3049  function getAllMyKeys() public view returns (Key[]memory,uint256){... */\n      swap1\n      swap2\n      jump\t// out\n        /* \"contracts/CryptoGuardPass.sol\":947:1470  function addKey(string memory _url,string memory _account,string memory _password,string memory _comment) external NotNullInfo(_account,_password){... */\n    tag_28:\n        /* \"contracts/CryptoGuardPass.sol\":1074:1082  _account */\n      dup3\n        /* \"contracts/CryptoGuardPass.sol\":1083:1092  _password */\n      dup3\n        /* \"contracts/CryptoGuardPass.sol\":830:853  isStringEmpty(_account) */\n      tag_147\n        /* \"contracts/CryptoGuardPass.sol\":844:852  _account */\n      dup3\n        /* \"contracts/CryptoGuardPass.sol\":830:843  isStringEmpty */\n      tag_43\n        /* \"contracts/CryptoGuardPass.sol\":830:853  isStringEmpty(_account) */\n      jump\t// in\n    tag_147:\n        /* \"contracts/CryptoGuardPass.sol\":829:853  !isStringEmpty(_account) */\n      iszero\n        /* \"contracts/CryptoGuardPass.sol\":829:880  !isStringEmpty(_account)&&!isStringEmpty(_password) */\n      dup1\n      iszero\n      tag_148\n      jumpi\n      pop\n        /* \"contracts/CryptoGuardPass.sol\":856:880  isStringEmpty(_password) */\n      tag_149\n        /* \"contracts/CryptoGuardPass.sol\":870:879  _password */\n      dup2\n        /* \"contracts/CryptoGuardPass.sol\":856:869  isStringEmpty */\n      tag_43\n        /* \"contracts/CryptoGuardPass.sol\":856:880  isStringEmpty(_password) */\n      jump\t// in\n    tag_149:\n        /* \"contracts/CryptoGuardPass.sol\":855:880  !isStringEmpty(_password) */\n      iszero\n        /* \"contracts/CryptoGuardPass.sol\":829:880  !isStringEmpty(_account)&&!isStringEmpty(_password) */\n    tag_148:\n        /* \"contracts/CryptoGuardPass.sol\":821:921  require(!isStringEmpty(_account)&&!isStringEmpty(_password),\"Account and Password cannot be empty!\") */\n      tag_150\n      jumpi\n      mload(0x40)\n      0x08c379a000000000000000000000000000000000000000000000000000000000\n      dup2\n      mstore\n      0x04\n      add\n      tag_151\n      swap1\n      tag_48\n      jump\t// in\n    tag_151:\n      mload(0x40)\n      dup1\n      swap2\n      sub\n      swap1\n      revert\n    tag_150:\n        /* \"contracts/CryptoGuardPass.sol\":1113:1132  isStringEmpty(_url) */\n      tag_153\n        /* \"contracts/CryptoGuardPass.sol\":1127:1131  _url */\n      dup7\n        /* \"contracts/CryptoGuardPass.sol\":1113:1126  isStringEmpty */\n      tag_43\n        /* \"contracts/CryptoGuardPass.sol\":1113:1132  isStringEmpty(_url) */\n      jump\t// in\n    tag_153:\n        /* \"contracts/CryptoGuardPass.sol\":1112:1132  !isStringEmpty(_url) */\n      iszero\n        /* \"contracts/CryptoGuardPass.sol\":1104:1156  require(!isStringEmpty(_url),\"URL cannot be empty!\") */\n      tag_154\n      jumpi\n      mload(0x40)\n      0x08c379a000000000000000000000000000000000000000000000000000000000\n      dup2\n      mstore\n      0x04\n      add\n      tag_155\n      swap1\n      tag_156\n      jump\t// in\n    tag_155:\n      mload(0x40)\n      dup1\n      swap2\n      sub\n      swap1\n      revert\n    tag_154:\n        /* \"contracts/CryptoGuardPass.sol\":1167:1180  uint256 keyId */\n      0x00\n        /* \"contracts/CryptoGuardPass.sol\":1181:1231  generateHashId(_url, _account, _password,_comment) */\n      tag_157\n        /* \"contracts/CryptoGuardPass.sol\":1196:1200  _url */\n      dup8\n        /* \"contracts/CryptoGuardPass.sol\":1202:1210  _account */\n      dup8\n        /* \"contracts/CryptoGuardPass.sol\":1212:1221  _password */\n      dup8\n        /* \"contracts/CryptoGuardPass.sol\":1222:1230  _comment */\n      dup8\n        /* \"contracts/CryptoGuardPass.sol\":1181:1195  generateHashId */\n      tag_158\n        /* \"contracts/CryptoGuardPass.sol\":1181:1231  generateHashId(_url, _account, _password,_comment) */\n      jump\t// in\n    tag_157:\n        /* \"contracts/CryptoGuardPass.sol\":1167:1231  uint256 keyId=generateHashId(_url, _account, _password,_comment) */\n      swap1\n      pop\n        /* \"contracts/CryptoGuardPass.sol\":1242:1257  Key memory item */\n      0x00\n        /* \"contracts/CryptoGuardPass.sol\":1258:1312  Key(keyId,msg.sender,_url,_account,_password,_comment) */\n      mload(0x40)\n      dup1\n      0xc0\n      add\n      0x40\n      mstore\n      dup1\n        /* \"contracts/CryptoGuardPass.sol\":1262:1267  keyId */\n      dup4\n        /* \"contracts/CryptoGuardPass.sol\":1258:1312  Key(keyId,msg.sender,_url,_account,_password,_comment) */\n      dup2\n      mstore\n      0x20\n      add\n        /* \"contracts/CryptoGuardPass.sol\":1268:1278  msg.sender */\n      caller\n        /* \"contracts/CryptoGuardPass.sol\":1258:1312  Key(keyId,msg.sender,_url,_account,_password,_comment) */\n      0xffffffffffffffffffffffffffffffffffffffff\n      and\n      dup2\n      mstore\n      0x20\n      add\n        /* \"contracts/CryptoGuardPass.sol\":1279:1283  _url */\n      dup10\n        /* \"contracts/CryptoGuardPass.sol\":1258:1312  Key(keyId,msg.sender,_url,_account,_password,_comment) */\n      dup2\n      mstore\n      0x20\n      add\n        /* \"contracts/CryptoGuardPass.sol\":1284:1292  _account */\n      dup9\n        /* \"contracts/CryptoGuardPass.sol\":1258:1312  Key(keyId,msg.sender,_url,_account,_password,_comment) */\n      dup2\n      mstore\n      0x20\n      add\n        /* \"contracts/CryptoGuardPass.sol\":1293:1302  _password */\n      dup8\n        /* \"contracts/CryptoGuardPass.sol\":1258:1312  Key(keyId,msg.sender,_url,_account,_password,_comment) */\n      dup2\n      mstore\n      0x20\n      add\n        /* \"contracts/CryptoGuardPass.sol\":1303:1311  _comment */\n      dup7\n        /* \"contracts/CryptoGuardPass.sol\":1258:1312  Key(keyId,msg.sender,_url,_account,_password,_comment) */\n      dup2\n      mstore\n      pop\n        /* \"contracts/CryptoGuardPass.sol\":1242:1312  Key memory item=Key(keyId,msg.sender,_url,_account,_password,_comment) */\n      swap1\n      pop\n        /* \"contracts/CryptoGuardPass.sol\":1338:1342  item */\n      dup1\n        /* \"contracts/CryptoGuardPass.sol\":1323:1330  keyOfId */\n      0x01\n        /* \"contracts/CryptoGuardPass.sol\":1323:1337  keyOfId[keyId] */\n      0x00\n        /* \"contracts/CryptoGuardPass.sol\":1331:1336  keyId */\n      dup5\n        /* \"contracts/CryptoGuardPass.sol\":1323:1337  keyOfId[keyId] */\n      dup2\n      mstore\n      0x20\n      add\n      swap1\n      dup2\n      mstore\n      0x20\n      add\n      0x00\n      keccak256\n        /* \"contracts/CryptoGuardPass.sol\":1323:1342  keyOfId[keyId]=item */\n      0x00\n      dup3\n      add\n      mload\n      dup2\n      0x00\n      add\n      sstore\n      0x20\n      dup3\n      add\n      mload\n      dup2\n      0x01\n      add\n      exp(0x0100, 0x00)\n      dup2\n      sload\n      dup2\n      0xffffffffffffffffffffffffffffffffffffffff\n      mul\n      not\n      and\n      swap1\n      dup4\n      0xffffffffffffffffffffffffffffffffffffffff\n      and\n      mul\n      or\n      swap1\n      sstore\n      pop\n      0x40\n      dup3\n      add\n      mload\n      dup2\n      0x02\n      add\n      swap1\n      dup2\n      tag_159\n      swap2\n      swap1\n      tag_58\n      jump\t// in\n    tag_159:\n      pop\n      0x60\n      dup3\n      add\n      mload\n      dup2\n      0x03\n      add\n      swap1\n      dup2\n      tag_160\n      swap2\n      swap1\n      tag_58\n      jump\t// in\n    tag_160:\n      pop\n      0x80\n      dup3\n      add\n      mload\n      dup2\n      0x04\n      add\n      swap1\n      dup2\n      tag_161\n      swap2\n      swap1\n      tag_58\n      jump\t// in\n    tag_161:\n      pop\n      0xa0\n      dup3\n      add\n      mload\n      dup2\n      0x05\n      add\n      swap1\n      dup2\n      tag_162\n      swap2\n      swap1\n      tag_58\n      jump\t// in\n    tag_162:\n      pop\n      swap1\n      pop\n      pop\n        /* \"contracts/CryptoGuardPass.sol\":1353:1357  keys */\n      0x02\n        /* \"contracts/CryptoGuardPass.sol\":1363:1367  item */\n      dup2\n        /* \"contracts/CryptoGuardPass.sol\":1353:1368  keys.push(item) */\n      swap1\n      dup1\n      0x01\n      dup2\n      sload\n      add\n      dup1\n      dup3\n      sstore\n      dup1\n      swap2\n      pop\n      pop\n      0x01\n      swap1\n      sub\n      swap1\n      0x00\n      mstore\n      keccak256(0x00, 0x20)\n      swap1\n      0x06\n      mul\n      add\n      0x00\n      swap1\n      swap2\n      swap1\n      swap2\n      swap1\n      swap2\n      pop\n      0x00\n      dup3\n      add\n      mload\n      dup2\n      0x00\n      add\n      sstore\n      0x20\n      dup3\n      add\n      mload\n      dup2\n      0x01\n      add\n      exp(0x0100, 0x00)\n      dup2\n      sload\n      dup2\n      0xffffffffffffffffffffffffffffffffffffffff\n      mul\n      not\n      and\n      swap1\n      dup4\n      0xffffffffffffffffffffffffffffffffffffffff\n      and\n      mul\n      or\n      swap1\n      sstore\n      pop\n      0x40\n      dup3\n      add\n      mload\n      dup2\n      0x02\n      add\n      swap1\n      dup2\n      tag_164\n      swap2\n      swap1\n      tag_58\n      jump\t// in\n    tag_164:\n      pop\n      0x60\n      dup3\n      add\n      mload\n      dup2\n      0x03\n      add\n      swap1\n      dup2\n      tag_165\n      swap2\n      swap1\n      tag_58\n      jump\t// in\n    tag_165:\n      pop\n      0x80\n      dup3\n      add\n      mload\n      dup2\n      0x04\n      add\n      swap1\n      dup2\n      tag_166\n      swap2\n      swap1\n      tag_58\n      jump\t// in\n    tag_166:\n      pop\n      0xa0\n      dup3\n      add\n      mload\n      dup2\n      0x05\n      add\n      swap1\n      dup2\n      tag_167\n      swap2\n      swap1\n      tag_58\n      jump\t// in\n    tag_167:\n      pop\n      pop\n      pop\n        /* \"contracts/CryptoGuardPass.sol\":1411:1412  1 */\n      0x01\n        /* \"contracts/CryptoGuardPass.sol\":1399:1403  keys */\n      0x02\n        /* \"contracts/CryptoGuardPass.sol\":1399:1410  keys.length */\n      dup1\n      sload\n      swap1\n      pop\n        /* \"contracts/CryptoGuardPass.sol\":1399:1412  keys.length-1 */\n      tag_168\n      swap2\n      swap1\n      tag_169\n      jump\t// in\n    tag_168:\n        /* \"contracts/CryptoGuardPass.sol\":1379:1391  idToKeyIndex */\n      0x03\n        /* \"contracts/CryptoGuardPass.sol\":1379:1398  idToKeyIndex[keyId] */\n      0x00\n        /* \"contracts/CryptoGuardPass.sol\":1392:1397  keyId */\n      dup5\n        /* \"contracts/CryptoGuardPass.sol\":1379:1398  idToKeyIndex[keyId] */\n      dup2\n      mstore\n      0x20\n      add\n      swap1\n      dup2\n      mstore\n      0x20\n      add\n      0x00\n      keccak256\n        /* \"contracts/CryptoGuardPass.sol\":1379:1412  idToKeyIndex[keyId]=keys.length-1 */\n      dup2\n      swap1\n      sstore\n      pop\n        /* \"contracts/CryptoGuardPass.sol\":1428:1462  KeyAdd(msg.sender, _url, _account) */\n      0xa9822cc0eabc6aef1c5dd603a158adad7d7dfa01b760a5b9031127808c0728e3\n        /* \"contracts/CryptoGuardPass.sol\":1435:1445  msg.sender */\n      caller\n        /* \"contracts/CryptoGuardPass.sol\":1447:1451  _url */\n      dup10\n        /* \"contracts/CryptoGuardPass.sol\":1453:1461  _account */\n      dup10\n        /* \"contracts/CryptoGuardPass.sol\":1428:1462  KeyAdd(msg.sender, _url, _account) */\n      mload(0x40)\n      tag_170\n      swap4\n      swap3\n      swap2\n      swap1\n      tag_171\n      jump\t// in\n    tag_170:\n      mload(0x40)\n      dup1\n      swap2\n      sub\n      swap1\n      log1\n        /* \"contracts/CryptoGuardPass.sol\":1093:1470  {... */\n      pop\n      pop\n        /* \"contracts/CryptoGuardPass.sol\":947:1470  function addKey(string memory _url,string memory _account,string memory _password,string memory _comment) external NotNullInfo(_account,_password){... */\n      pop\n      pop\n      pop\n      pop\n      pop\n      pop\n      jump\t// out\n        /* \"contracts/CryptoGuardPass.sol\":92:112  address public owner */\n    tag_30:\n      0x00\n      dup1\n      sload\n      swap1\n      0x0100\n      exp\n      swap1\n      div\n      0xffffffffffffffffffffffffffffffffffffffff\n      and\n      dup2\n      jump\t// out\n        /* \"contracts/CryptoGuardPass.sol\":2020:2651  function removeKey(uint256 _keyId) external {... */\n    tag_35:\n        /* \"contracts/CryptoGuardPass.sol\":2075:2088  uint256 index */\n      0x00\n        /* \"contracts/CryptoGuardPass.sol\":2089:2101  idToKeyIndex */\n      0x03\n        /* \"contracts/CryptoGuardPass.sol\":2089:2109  idToKeyIndex[_keyId] */\n      0x00\n        /* \"contracts/CryptoGuardPass.sol\":2102:2108  _keyId */\n      dup4\n        /* \"contracts/CryptoGuardPass.sol\":2089:2109  idToKeyIndex[_keyId] */\n      dup2\n      mstore\n      0x20\n      add\n      swap1\n      dup2\n      mstore\n      0x20\n      add\n      0x00\n      keccak256\n      sload\n        /* \"contracts/CryptoGuardPass.sol\":2075:2109  uint256 index=idToKeyIndex[_keyId] */\n      swap1\n      pop\n        /* \"contracts/CryptoGuardPass.sol\":2120:2137  uint256 lastIndex */\n      0x00\n        /* \"contracts/CryptoGuardPass.sol\":2150:2151  1 */\n      0x01\n        /* \"contracts/CryptoGuardPass.sol\":2138:2142  keys */\n      0x02\n        /* \"contracts/CryptoGuardPass.sol\":2138:2149  keys.length */\n      dup1\n      sload\n      swap1\n      pop\n        /* \"contracts/CryptoGuardPass.sol\":2138:2151  keys.length-1 */\n      tag_173\n      swap2\n      swap1\n      tag_169\n      jump\t// in\n    tag_173:\n        /* \"contracts/CryptoGuardPass.sol\":2120:2151  uint256 lastIndex=keys.length-1 */\n      swap1\n      pop\n        /* \"contracts/CryptoGuardPass.sol\":2162:2186  string memory deletedUrl */\n      0x60\n        /* \"contracts/CryptoGuardPass.sol\":2197:2225  string memory deletedAccount */\n      dup1\n        /* \"contracts/CryptoGuardPass.sol\":2246:2255  lastIndex */\n      dup3\n        /* \"contracts/CryptoGuardPass.sol\":2239:2244  index */\n      dup5\n        /* \"contracts/CryptoGuardPass.sol\":2239:2255  index!=lastIndex */\n      eq\n        /* \"contracts/CryptoGuardPass.sol\":2236:2487  if(index!=lastIndex){... */\n      tag_174\n      jumpi\n        /* \"contracts/CryptoGuardPass.sol\":2271:2291  Key storage lastItem */\n      0x00\n        /* \"contracts/CryptoGuardPass.sol\":2292:2296  keys */\n      0x02\n        /* \"contracts/CryptoGuardPass.sol\":2297:2306  lastIndex */\n      dup5\n        /* \"contracts/CryptoGuardPass.sol\":2292:2307  keys[lastIndex] */\n      dup2\n      sload\n      dup2\n      lt\n      tag_175\n      jumpi\n      tag_176\n      tag_68\n      jump\t// in\n    tag_176:\n    tag_175:\n      swap1\n      0x00\n      mstore\n      keccak256(0x00, 0x20)\n      swap1\n      0x06\n      mul\n      add\n        /* \"contracts/CryptoGuardPass.sol\":2271:2307  Key storage lastItem=keys[lastIndex] */\n      swap1\n      pop\n        /* \"contracts/CryptoGuardPass.sol\":2333:2341  lastItem */\n      dup1\n        /* \"contracts/CryptoGuardPass.sol\":2333:2345  lastItem.url */\n      0x02\n      add\n        /* \"contracts/CryptoGuardPass.sol\":2322:2345  deletedUrl=lastItem.url */\n      dup1\n      sload\n      tag_178\n      swap1\n      tag_79\n      jump\t// in\n    tag_178:\n      dup1\n      0x1f\n      add\n      0x20\n      dup1\n      swap2\n      div\n      mul\n      0x20\n      add\n      mload(0x40)\n      swap1\n      dup2\n      add\n      0x40\n      mstore\n      dup1\n      swap3\n      swap2\n      swap1\n      dup2\n      dup2\n      mstore\n      0x20\n      add\n      dup3\n      dup1\n      sload\n      tag_179\n      swap1\n      tag_79\n      jump\t// in\n    tag_179:\n      dup1\n      iszero\n      tag_180\n      jumpi\n      dup1\n      0x1f\n      lt\n      tag_181\n      jumpi\n      0x0100\n      dup1\n      dup4\n      sload\n      div\n      mul\n      dup4\n      mstore\n      swap2\n      0x20\n      add\n      swap2\n      jump(tag_180)\n    tag_181:\n      dup3\n      add\n      swap2\n      swap1\n      0x00\n      mstore\n      keccak256(0x00, 0x20)\n      swap1\n    tag_182:\n      dup2\n      sload\n      dup2\n      mstore\n      swap1\n      0x01\n      add\n      swap1\n      0x20\n      add\n      dup1\n      dup4\n      gt\n      tag_182\n      jumpi\n      dup3\n      swap1\n      sub\n      0x1f\n      and\n      dup3\n      add\n      swap2\n    tag_180:\n      pop\n      pop\n      pop\n      pop\n      pop\n      swap3\n      pop\n        /* \"contracts/CryptoGuardPass.sol\":2375:2383  lastItem */\n      dup1\n        /* \"contracts/CryptoGuardPass.sol\":2375:2391  lastItem.account */\n      0x03\n      add\n        /* \"contracts/CryptoGuardPass.sol\":2360:2391  deletedAccount=lastItem.account */\n      dup1\n      sload\n      tag_183\n      swap1\n      tag_79\n      jump\t// in\n    tag_183:\n      dup1\n      0x1f\n      add\n      0x20\n      dup1\n      swap2\n      div\n      mul\n      0x20\n      add\n      mload(0x40)\n      swap1\n      dup2\n      add\n      0x40\n      mstore\n      dup1\n      swap3\n      swap2\n      swap1\n      dup2\n      dup2\n      mstore\n      0x20\n      add\n      dup3\n      dup1\n      sload\n      tag_184\n      swap1\n      tag_79\n      jump\t// in\n    tag_184:\n      dup1\n      iszero\n      tag_185\n      jumpi\n      dup1\n      0x1f\n      lt\n      tag_186\n      jumpi\n      0x0100\n      dup1\n      dup4\n      sload\n      div\n      mul\n      dup4\n      mstore\n      swap2\n      0x20\n      add\n      swap2\n      jump(tag_185)\n    tag_186:\n      dup3\n      add\n      swap2\n      swap1\n      0x00\n      mstore\n      keccak256(0x00, 0x20)\n      swap1\n    tag_187:\n      dup2\n      sload\n      dup2\n      mstore\n      swap1\n      0x01\n      add\n      swap1\n      0x20\n      add\n      dup1\n      dup4\n      gt\n      tag_187\n      jumpi\n      dup3\n      swap1\n      sub\n      0x1f\n      and\n      dup3\n      add\n      swap2\n    tag_185:\n      pop\n      pop\n      pop\n      pop\n      pop\n      swap2\n      pop\n        /* \"contracts/CryptoGuardPass.sol\":2418:2426  lastItem */\n      dup1\n        /* \"contracts/CryptoGuardPass.sol\":2406:2410  keys */\n      0x02\n        /* \"contracts/CryptoGuardPass.sol\":2411:2416  index */\n      dup7\n        /* \"contracts/CryptoGuardPass.sol\":2406:2417  keys[index] */\n      dup2\n      sload\n      dup2\n      lt\n      tag_188\n      jumpi\n      tag_189\n      tag_68\n      jump\t// in\n    tag_189:\n    tag_188:\n      swap1\n      0x00\n      mstore\n      keccak256(0x00, 0x20)\n      swap1\n      0x06\n      mul\n      add\n        /* \"contracts/CryptoGuardPass.sol\":2406:2426  keys[index]=lastItem */\n      0x00\n      dup3\n      add\n      sload\n      dup2\n      0x00\n      add\n      sstore\n      0x01\n      dup3\n      add\n      0x00\n      swap1\n      sload\n      swap1\n      0x0100\n      exp\n      swap1\n      div\n      0xffffffffffffffffffffffffffffffffffffffff\n      and\n      dup2\n      0x01\n      add\n      exp(0x0100, 0x00)\n      dup2\n      sload\n      dup2\n      0xffffffffffffffffffffffffffffffffffffffff\n      mul\n      not\n      and\n      swap1\n      dup4\n      0xffffffffffffffffffffffffffffffffffffffff\n      and\n      mul\n      or\n      swap1\n      sstore\n      pop\n      0x02\n      dup3\n      add\n      dup2\n      0x02\n      add\n      swap1\n      dup2\n      tag_191\n      swap2\n      swap1\n      tag_62\n      jump\t// in\n    tag_191:\n      pop\n      0x03\n      dup3\n      add\n      dup2\n      0x03\n      add\n      swap1\n      dup2\n      tag_192\n      swap2\n      swap1\n      tag_62\n      jump\t// in\n    tag_192:\n      pop\n      0x04\n      dup3\n      add\n      dup2\n      0x04\n      add\n      swap1\n      dup2\n      tag_193\n      swap2\n      swap1\n      tag_62\n      jump\t// in\n    tag_193:\n      pop\n      0x05\n      dup3\n      add\n      dup2\n      0x05\n      add\n      swap1\n      dup2\n      tag_194\n      swap2\n      swap1\n      tag_62\n      jump\t// in\n    tag_194:\n      pop\n      swap1\n      pop\n      pop\n        /* \"contracts/CryptoGuardPass.sol\":2470:2475  index */\n      dup5\n        /* \"contracts/CryptoGuardPass.sol\":2441:2453  idToKeyIndex */\n      0x03\n        /* \"contracts/CryptoGuardPass.sol\":2441:2469  idToKeyIndex[lastItem.keyId] */\n      0x00\n        /* \"contracts/CryptoGuardPass.sol\":2454:2462  lastItem */\n      dup4\n        /* \"contracts/CryptoGuardPass.sol\":2454:2468  lastItem.keyId */\n      0x00\n      add\n      sload\n        /* \"contracts/CryptoGuardPass.sol\":2441:2469  idToKeyIndex[lastItem.keyId] */\n      dup2\n      mstore\n      0x20\n      add\n      swap1\n      dup2\n      mstore\n      0x20\n      add\n      0x00\n      keccak256\n        /* \"contracts/CryptoGuardPass.sol\":2441:2475  idToKeyIndex[lastItem.keyId]=index */\n      dup2\n      swap1\n      sstore\n      pop\n        /* \"contracts/CryptoGuardPass.sol\":2256:2487  {... */\n      pop\n        /* \"contracts/CryptoGuardPass.sol\":2236:2487  if(index!=lastIndex){... */\n    tag_174:\n        /* \"contracts/CryptoGuardPass.sol\":2497:2501  keys */\n      0x02\n        /* \"contracts/CryptoGuardPass.sol\":2497:2507  keys.pop() */\n      dup1\n      sload\n      dup1\n      tag_195\n      jumpi\n      tag_196\n      tag_197\n      jump\t// in\n    tag_196:\n    tag_195:\n      0x01\n      swap1\n      sub\n      dup2\n      dup2\n      swap1\n      0x00\n      mstore\n      keccak256(0x00, 0x20)\n      swap1\n      0x06\n      mul\n      add\n      0x00\n      dup1\n      dup3\n      add\n      0x00\n      swap1\n      sstore\n      0x01\n      dup3\n      add\n      exp(0x0100, 0x00)\n      dup2\n      sload\n      swap1\n      0xffffffffffffffffffffffffffffffffffffffff\n      mul\n      not\n      and\n      swap1\n      sstore\n      0x02\n      dup3\n      add\n      0x00\n      tag_199\n      swap2\n      swap1\n      tag_200\n      jump\t// in\n    tag_199:\n      0x03\n      dup3\n      add\n      0x00\n      tag_201\n      swap2\n      swap1\n      tag_200\n      jump\t// in\n    tag_201:\n      0x04\n      dup3\n      add\n      0x00\n      tag_202\n      swap2\n      swap1\n      tag_200\n      jump\t// in\n    tag_202:\n      0x05\n      dup3\n      add\n      0x00\n      tag_203\n      swap2\n      swap1\n      tag_200\n      jump\t// in\n    tag_203:\n      pop\n      pop\n      swap1\n      sstore\n        /* \"contracts/CryptoGuardPass.sol\":2525:2532  keyOfId */\n      0x01\n        /* \"contracts/CryptoGuardPass.sol\":2525:2540  keyOfId[_keyId] */\n      0x00\n        /* \"contracts/CryptoGuardPass.sol\":2533:2539  _keyId */\n      dup7\n        /* \"contracts/CryptoGuardPass.sol\":2525:2540  keyOfId[_keyId] */\n      dup2\n      mstore\n      0x20\n      add\n      swap1\n      dup2\n      mstore\n      0x20\n      add\n      0x00\n      keccak256\n      0x00\n        /* \"contracts/CryptoGuardPass.sol\":2518:2540  delete keyOfId[_keyId] */\n      dup1\n      dup3\n      add\n      0x00\n      swap1\n      sstore\n      0x01\n      dup3\n      add\n      exp(0x0100, 0x00)\n      dup2\n      sload\n      swap1\n      0xffffffffffffffffffffffffffffffffffffffff\n      mul\n      not\n      and\n      swap1\n      sstore\n      0x02\n      dup3\n      add\n      0x00\n      tag_204\n      swap2\n      swap1\n      tag_200\n      jump\t// in\n    tag_204:\n      0x03\n      dup3\n      add\n      0x00\n      tag_205\n      swap2\n      swap1\n      tag_200\n      jump\t// in\n    tag_205:\n      0x04\n      dup3\n      add\n      0x00\n      tag_206\n      swap2\n      swap1\n      tag_200\n      jump\t// in\n    tag_206:\n      0x05\n      dup3\n      add\n      0x00\n      tag_207\n      swap2\n      swap1\n      tag_200\n      jump\t// in\n    tag_207:\n      pop\n      pop\n        /* \"contracts/CryptoGuardPass.sol\":2558:2570  idToKeyIndex */\n      0x03\n        /* \"contracts/CryptoGuardPass.sol\":2558:2578  idToKeyIndex[_keyId] */\n      0x00\n        /* \"contracts/CryptoGuardPass.sol\":2571:2577  _keyId */\n      dup7\n        /* \"contracts/CryptoGuardPass.sol\":2558:2578  idToKeyIndex[_keyId] */\n      dup2\n      mstore\n      0x20\n      add\n      swap1\n      dup2\n      mstore\n      0x20\n      add\n      0x00\n      keccak256\n        /* \"contracts/CryptoGuardPass.sol\":2551:2578  delete idToKeyIndex[_keyId] */\n      0x00\n      swap1\n      sstore\n        /* \"contracts/CryptoGuardPass.sol\":2594:2643  KeyRemove(msg.sender, deletedUrl, deletedAccount) */\n      0x0b3f2c0aa6113baac4dedb6c1515fa11432fedf07a6086743d28b5d82eeb6904\n        /* \"contracts/CryptoGuardPass.sol\":2604:2614  msg.sender */\n      caller\n        /* \"contracts/CryptoGuardPass.sol\":2616:2626  deletedUrl */\n      dup4\n        /* \"contracts/CryptoGuardPass.sol\":2628:2642  deletedAccount */\n      dup4\n        /* \"contracts/CryptoGuardPass.sol\":2594:2643  KeyRemove(msg.sender, deletedUrl, deletedAccount) */\n      mload(0x40)\n      tag_208\n      swap4\n      swap3\n      swap2\n      swap1\n      tag_171\n      jump\t// in\n    tag_208:\n      mload(0x40)\n      dup1\n      swap2\n      sub\n      swap1\n      log1\n        /* \"contracts/CryptoGuardPass.sol\":2064:2651  {... */\n      pop\n      pop\n      pop\n      pop\n        /* \"contracts/CryptoGuardPass.sol\":2020:2651  function removeKey(uint256 _keyId) external {... */\n      pop\n      jump\t// out\n        /* \"contracts/CryptoGuardPass.sol\":408:454  mapping (uint256=>uint256) public idToKeyIndex */\n    tag_38:\n      mstore(0x20, 0x03)\n      dup1\n      0x00\n      mstore\n      keccak256(0x00, 0x40)\n      0x00\n      swap2\n      pop\n      swap1\n      pop\n      sload\n      dup2\n      jump\t// out\n        /* \"contracts/CryptoGuardPass.sol\":3473:3636  function isStringEmpty(string memory str) internal  pure returns (bool) {... */\n    tag_43:\n        /* \"contracts/CryptoGuardPass.sol\":3539:3543  bool */\n      0x00\n        /* \"contracts/CryptoGuardPass.sol\":3556:3577  bytes memory strBytes */\n      dup1\n        /* \"contracts/CryptoGuardPass.sol\":3586:3589  str */\n      dup3\n        /* \"contracts/CryptoGuardPass.sol\":3556:3590  bytes memory strBytes = bytes(str) */\n      swap1\n      pop\n        /* \"contracts/CryptoGuardPass.sol\":3627:3628  0 */\n      0x00\n        /* \"contracts/CryptoGuardPass.sol\":3608:3616  strBytes */\n      dup2\n        /* \"contracts/CryptoGuardPass.sol\":3608:3623  strBytes.length */\n      mload\n        /* \"contracts/CryptoGuardPass.sol\":3608:3628  strBytes.length == 0 */\n      eq\n        /* \"contracts/CryptoGuardPass.sol\":3601:3628  return strBytes.length == 0 */\n      swap2\n      pop\n      pop\n        /* \"contracts/CryptoGuardPass.sol\":3473:3636  function isStringEmpty(string memory str) internal  pure returns (bool) {... */\n      swap2\n      swap1\n      pop\n      jump\t// out\n        /* \"contracts/CryptoGuardPass.sol\":3177:3465  function generateHashId(string memory _url, string memory _account, string memory _password,string memory _comment) internal view returns (uint256) {... */\n    tag_158:\n        /* \"contracts/CryptoGuardPass.sol\":3316:3323  uint256 */\n      0x00\n        /* \"contracts/CryptoGuardPass.sol\":3336:3348  bytes32 hash */\n      dup1\n        /* \"contracts/CryptoGuardPass.sol\":3378:3388  msg.sender */\n      caller\n        /* \"contracts/CryptoGuardPass.sol\":3390:3394  _url */\n      dup7\n        /* \"contracts/CryptoGuardPass.sol\":3396:3404  _account */\n      dup7\n        /* \"contracts/CryptoGuardPass.sol\":3406:3415  _password */\n      dup7\n        /* \"contracts/CryptoGuardPass.sol\":3416:3424  _comment */\n      dup7\n        /* \"contracts/CryptoGuardPass.sol\":3361:3425  abi.encodePacked(msg.sender, _url, _account, _password,_comment) */\n      add(0x20, mload(0x40))\n      tag_211\n      swap6\n      swap5\n      swap4\n      swap3\n      swap2\n      swap1\n      tag_212\n      jump\t// in\n    tag_211:\n      mload(0x40)\n      0x20\n      dup2\n      dup4\n      sub\n      sub\n      dup2\n      mstore\n      swap1\n      0x40\n      mstore\n        /* \"contracts/CryptoGuardPass.sol\":3351:3426  keccak256(abi.encodePacked(msg.sender, _url, _account, _password,_comment)) */\n      dup1\n      mload\n      swap1\n      0x20\n      add\n      keccak256\n        /* \"contracts/CryptoGuardPass.sol\":3336:3426  bytes32 hash = keccak256(abi.encodePacked(msg.sender, _url, _account, _password,_comment)) */\n      swap1\n      pop\n        /* \"contracts/CryptoGuardPass.sol\":3452:3456  hash */\n      dup1\n        /* \"contracts/CryptoGuardPass.sol\":3444:3457  uint256(hash) */\n      0x00\n      shr\n        /* \"contracts/CryptoGuardPass.sol\":3437:3457  return uint256(hash) */\n      swap2\n      pop\n      pop\n        /* \"contracts/CryptoGuardPass.sol\":3177:3465  function generateHashId(string memory _url, string memory _account, string memory _password,string memory _comment) internal view returns (uint256) {... */\n      swap5\n      swap4\n      pop\n      pop\n      pop\n      pop\n      jump\t// out\n    tag_106:\n      mload(0x40)\n      dup1\n      0xc0\n      add\n      0x40\n      mstore\n      dup1\n      0x00\n      dup2\n      mstore\n      0x20\n      add\n      and(0xffffffffffffffffffffffffffffffffffffffff, 0x00)\n      dup2\n      mstore\n      0x20\n      add\n      0x60\n      dup2\n      mstore\n      0x20\n      add\n      0x60\n      dup2\n      mstore\n      0x20\n      add\n      0x60\n      dup2\n      mstore\n      0x20\n      add\n      0x60\n      dup2\n      mstore\n      pop\n      swap1\n      jump\t// out\n    tag_200:\n      pop\n      dup1\n      sload\n      tag_213\n      swap1\n      tag_79\n      jump\t// in\n    tag_213:\n      0x00\n      dup3\n      sstore\n      dup1\n      0x1f\n      lt\n      tag_215\n      jumpi\n      pop\n      jump(tag_214)\n    tag_215:\n      0x1f\n      add\n      0x20\n      swap1\n      div\n      swap1\n      0x00\n      mstore\n      keccak256(0x00, 0x20)\n      swap1\n      dup2\n      add\n      swap1\n      tag_216\n      swap2\n      swap1\n      tag_217\n      jump\t// in\n    tag_216:\n    tag_214:\n      pop\n      jump\t// out\n    tag_217:\n    tag_218:\n      dup1\n      dup3\n      gt\n      iszero\n      tag_219\n      jumpi\n      0x00\n      dup2\n      0x00\n      swap1\n      sstore\n      pop\n      0x01\n      add\n      jump(tag_218)\n    tag_219:\n      pop\n      swap1\n      jump\t// out\n        /* \"#utility.yul\":7:82   */\n    tag_220:\n        /* \"#utility.yul\":40:46   */\n      0x00\n        /* \"#utility.yul\":73:75   */\n      0x40\n        /* \"#utility.yul\":67:76   */\n      mload\n        /* \"#utility.yul\":57:76   */\n      swap1\n      pop\n        /* \"#utility.yul\":7:82   */\n      swap1\n      jump\t// out\n        /* \"#utility.yul\":88:205   */\n    tag_221:\n        /* \"#utility.yul\":197:198   */\n      0x00\n        /* \"#utility.yul\":194:195   */\n      dup1\n        /* \"#utility.yul\":187:199   */\n      revert\n        /* \"#utility.yul\":211:328   */\n    tag_222:\n        /* \"#utility.yul\":320:321   */\n      0x00\n        /* \"#utility.yul\":317:318   */\n      dup1\n        /* \"#utility.yul\":310:322   */\n      revert\n        /* \"#utility.yul\":334:411   */\n    tag_223:\n        /* \"#utility.yul\":371:378   */\n      0x00\n        /* \"#utility.yul\":400:405   */\n      dup2\n        /* \"#utility.yul\":389:405   */\n      swap1\n      pop\n        /* \"#utility.yul\":334:411   */\n      swap2\n      swap1\n      pop\n      jump\t// out\n        /* \"#utility.yul\":417:539   */\n    tag_224:\n        /* \"#utility.yul\":490:514   */\n      tag_292\n        /* \"#utility.yul\":508:513   */\n      dup2\n        /* \"#utility.yul\":490:514   */\n      tag_223\n      jump\t// in\n    tag_292:\n        /* \"#utility.yul\":483:488   */\n      dup2\n        /* \"#utility.yul\":480:515   */\n      eq\n        /* \"#utility.yul\":470:533   */\n      tag_293\n      jumpi\n        /* \"#utility.yul\":529:530   */\n      0x00\n        /* \"#utility.yul\":526:527   */\n      dup1\n        /* \"#utility.yul\":519:531   */\n      revert\n        /* \"#utility.yul\":470:533   */\n    tag_293:\n        /* \"#utility.yul\":417:539   */\n      pop\n      jump\t// out\n        /* \"#utility.yul\":545:684   */\n    tag_225:\n        /* \"#utility.yul\":591:596   */\n      0x00\n        /* \"#utility.yul\":629:635   */\n      dup2\n        /* \"#utility.yul\":616:636   */\n      calldataload\n        /* \"#utility.yul\":607:636   */\n      swap1\n      pop\n        /* \"#utility.yul\":645:678   */\n      tag_295\n        /* \"#utility.yul\":672:677   */\n      dup2\n        /* \"#utility.yul\":645:678   */\n      tag_224\n      jump\t// in\n    tag_295:\n        /* \"#utility.yul\":545:684   */\n      swap3\n      swap2\n      pop\n      pop\n      jump\t// out\n        /* \"#utility.yul\":690:807   */\n    tag_226:\n        /* \"#utility.yul\":799:800   */\n      0x00\n        /* \"#utility.yul\":796:797   */\n      dup1\n        /* \"#utility.yul\":789:801   */\n      revert\n        /* \"#utility.yul\":813:930   */\n    tag_227:\n        /* \"#utility.yul\":922:923   */\n      0x00\n        /* \"#utility.yul\":919:920   */\n      dup1\n        /* \"#utility.yul\":912:924   */\n      revert\n        /* \"#utility.yul\":936:1038   */\n    tag_228:\n        /* \"#utility.yul\":977:983   */\n      0x00\n        /* \"#utility.yul\":1028:1030   */\n      0x1f\n        /* \"#utility.yul\":1024:1031   */\n      not\n        /* \"#utility.yul\":1019:1021   */\n      0x1f\n        /* \"#utility.yul\":1012:1017   */\n      dup4\n        /* \"#utility.yul\":1008:1022   */\n      add\n        /* \"#utility.yul\":1004:1032   */\n      and\n        /* \"#utility.yul\":994:1032   */\n      swap1\n      pop\n        /* \"#utility.yul\":936:1038   */\n      swap2\n      swap1\n      pop\n      jump\t// out\n        /* \"#utility.yul\":1044:1224   */\n    tag_102:\n        /* \"#utility.yul\":1092:1169   */\n      0x4e487b7100000000000000000000000000000000000000000000000000000000\n        /* \"#utility.yul\":1089:1090   */\n      0x00\n        /* \"#utility.yul\":1082:1170   */\n      mstore\n        /* \"#utility.yul\":1189:1193   */\n      0x41\n        /* \"#utility.yul\":1186:1187   */\n      0x04\n        /* \"#utility.yul\":1179:1194   */\n      mstore\n        /* \"#utility.yul\":1213:1217   */\n      0x24\n        /* \"#utility.yul\":1210:1211   */\n      0x00\n        /* \"#utility.yul\":1203:1218   */\n      revert\n        /* \"#utility.yul\":1230:1511   */\n    tag_229:\n        /* \"#utility.yul\":1313:1340   */\n      tag_301\n        /* \"#utility.yul\":1335:1339   */\n      dup3\n        /* \"#utility.yul\":1313:1340   */\n      tag_228\n      jump\t// in\n    tag_301:\n        /* \"#utility.yul\":1305:1311   */\n      dup2\n        /* \"#utility.yul\":1301:1341   */\n      add\n        /* \"#utility.yul\":1443:1449   */\n      dup2\n        /* \"#utility.yul\":1431:1441   */\n      dup2\n        /* \"#utility.yul\":1428:1450   */\n      lt\n        /* \"#utility.yul\":1407:1425   */\n      0xffffffffffffffff\n        /* \"#utility.yul\":1395:1405   */\n      dup3\n        /* \"#utility.yul\":1392:1426   */\n      gt\n        /* \"#utility.yul\":1389:1451   */\n      or\n        /* \"#utility.yul\":1386:1474   */\n      iszero\n      tag_302\n      jumpi\n        /* \"#utility.yul\":1454:1472   */\n      tag_303\n      tag_102\n      jump\t// in\n    tag_303:\n        /* \"#utility.yul\":1386:1474   */\n    tag_302:\n        /* \"#utility.yul\":1494:1504   */\n      dup1\n        /* \"#utility.yul\":1490:1492   */\n      0x40\n        /* \"#utility.yul\":1483:1505   */\n      mstore\n        /* \"#utility.yul\":1273:1511   */\n      pop\n        /* \"#utility.yul\":1230:1511   */\n      pop\n      pop\n      jump\t// out\n        /* \"#utility.yul\":1517:1646   */\n    tag_230:\n        /* \"#utility.yul\":1551:1557   */\n      0x00\n        /* \"#utility.yul\":1578:1598   */\n      tag_305\n      tag_220\n      jump\t// in\n    tag_305:\n        /* \"#utility.yul\":1568:1598   */\n      swap1\n      pop\n        /* \"#utility.yul\":1607:1640   */\n      tag_306\n        /* \"#utility.yul\":1635:1639   */\n      dup3\n        /* \"#utility.yul\":1627:1633   */\n      dup3\n        /* \"#utility.yul\":1607:1640   */\n      tag_229\n      jump\t// in\n    tag_306:\n        /* \"#utility.yul\":1517:1646   */\n      swap2\n      swap1\n      pop\n      jump\t// out\n        /* \"#utility.yul\":1652:1960   */\n    tag_231:\n        /* \"#utility.yul\":1714:1718   */\n      0x00\n        /* \"#utility.yul\":1804:1822   */\n      0xffffffffffffffff\n        /* \"#utility.yul\":1796:1802   */\n      dup3\n        /* \"#utility.yul\":1793:1823   */\n      gt\n        /* \"#utility.yul\":1790:1846   */\n      iszero\n      tag_308\n      jumpi\n        /* \"#utility.yul\":1826:1844   */\n      tag_309\n      tag_102\n      jump\t// in\n    tag_309:\n        /* \"#utility.yul\":1790:1846   */\n    tag_308:\n        /* \"#utility.yul\":1864:1893   */\n      tag_310\n        /* \"#utility.yul\":1886:1892   */\n      dup3\n        /* \"#utility.yul\":1864:1893   */\n      tag_228\n      jump\t// in\n    tag_310:\n        /* \"#utility.yul\":1856:1893   */\n      swap1\n      pop\n        /* \"#utility.yul\":1948:1952   */\n      0x20\n        /* \"#utility.yul\":1942:1946   */\n      dup2\n        /* \"#utility.yul\":1938:1953   */\n      add\n        /* \"#utility.yul\":1930:1953   */\n      swap1\n      pop\n        /* \"#utility.yul\":1652:1960   */\n      swap2\n      swap1\n      pop\n      jump\t// out\n        /* \"#utility.yul\":1966:2112   */\n    tag_232:\n        /* \"#utility.yul\":2063:2069   */\n      dup3\n        /* \"#utility.yul\":2058:2061   */\n      dup2\n        /* \"#utility.yul\":2053:2056   */\n      dup4\n        /* \"#utility.yul\":2040:2070   */\n      calldatacopy\n        /* \"#utility.yul\":2104:2105   */\n      0x00\n        /* \"#utility.yul\":2095:2101   */\n      dup4\n        /* \"#utility.yul\":2090:2093   */\n      dup4\n        /* \"#utility.yul\":2086:2102   */\n      add\n        /* \"#utility.yul\":2079:2106   */\n      mstore\n        /* \"#utility.yul\":1966:2112   */\n      pop\n      pop\n      pop\n      jump\t// out\n        /* \"#utility.yul\":2118:2543   */\n    tag_233:\n        /* \"#utility.yul\":2196:2201   */\n      0x00\n        /* \"#utility.yul\":2221:2287   */\n      tag_313\n        /* \"#utility.yul\":2237:2286   */\n      tag_314\n        /* \"#utility.yul\":2279:2285   */\n      dup5\n        /* \"#utility.yul\":2237:2286   */\n      tag_231\n      jump\t// in\n    tag_314:\n        /* \"#utility.yul\":2221:2287   */\n      tag_230\n      jump\t// in\n    tag_313:\n        /* \"#utility.yul\":2212:2287   */\n      swap1\n      pop\n        /* \"#utility.yul\":2310:2316   */\n      dup3\n        /* \"#utility.yul\":2303:2308   */\n      dup2\n        /* \"#utility.yul\":2296:2317   */\n      mstore\n        /* \"#utility.yul\":2348:2352   */\n      0x20\n        /* \"#utility.yul\":2341:2346   */\n      dup2\n        /* \"#utility.yul\":2337:2353   */\n      add\n        /* \"#utility.yul\":2386:2389   */\n      dup5\n        /* \"#utility.yul\":2377:2383   */\n      dup5\n        /* \"#utility.yul\":2372:2375   */\n      dup5\n        /* \"#utility.yul\":2368:2384   */\n      add\n        /* \"#utility.yul\":2365:2390   */\n      gt\n        /* \"#utility.yul\":2362:2474   */\n      iszero\n      tag_315\n      jumpi\n        /* \"#utility.yul\":2393:2472   */\n      tag_316\n      tag_227\n      jump\t// in\n    tag_316:\n        /* \"#utility.yul\":2362:2474   */\n    tag_315:\n        /* \"#utility.yul\":2483:2537   */\n      tag_317\n        /* \"#utility.yul\":2530:2536   */\n      dup5\n        /* \"#utility.yul\":2525:2528   */\n      dup3\n        /* \"#utility.yul\":2520:2523   */\n      dup6\n        /* \"#utility.yul\":2483:2537   */\n      tag_232\n      jump\t// in\n    tag_317:\n        /* \"#utility.yul\":2202:2543   */\n      pop\n        /* \"#utility.yul\":2118:2543   */\n      swap4\n      swap3\n      pop\n      pop\n      pop\n      jump\t// out\n        /* \"#utility.yul\":2563:2903   */\n    tag_234:\n        /* \"#utility.yul\":2619:2624   */\n      0x00\n        /* \"#utility.yul\":2668:2671   */\n      dup3\n        /* \"#utility.yul\":2661:2665   */\n      0x1f\n        /* \"#utility.yul\":2653:2659   */\n      dup4\n        /* \"#utility.yul\":2649:2666   */\n      add\n        /* \"#utility.yul\":2645:2672   */\n      slt\n        /* \"#utility.yul\":2635:2757   */\n      tag_319\n      jumpi\n        /* \"#utility.yul\":2676:2755   */\n      tag_320\n      tag_226\n      jump\t// in\n    tag_320:\n        /* \"#utility.yul\":2635:2757   */\n    tag_319:\n        /* \"#utility.yul\":2793:2799   */\n      dup2\n        /* \"#utility.yul\":2780:2800   */\n      calldataload\n        /* \"#utility.yul\":2818:2897   */\n      tag_321\n        /* \"#utility.yul\":2893:2896   */\n      dup5\n        /* \"#utility.yul\":2885:2891   */\n      dup3\n        /* \"#utility.yul\":2878:2882   */\n      0x20\n        /* \"#utility.yul\":2870:2876   */\n      dup7\n        /* \"#utility.yul\":2866:2883   */\n      add\n        /* \"#utility.yul\":2818:2897   */\n      tag_233\n      jump\t// in\n    tag_321:\n        /* \"#utility.yul\":2809:2897   */\n      swap2\n      pop\n        /* \"#utility.yul\":2625:2903   */\n      pop\n        /* \"#utility.yul\":2563:2903   */\n      swap3\n      swap2\n      pop\n      pop\n      jump\t// out\n        /* \"#utility.yul\":2909:4214   */\n    tag_13:\n        /* \"#utility.yul\":3025:3031   */\n      0x00\n        /* \"#utility.yul\":3033:3039   */\n      dup1\n        /* \"#utility.yul\":3041:3047   */\n      0x00\n        /* \"#utility.yul\":3049:3055   */\n      dup1\n        /* \"#utility.yul\":3098:3101   */\n      0x80\n        /* \"#utility.yul\":3086:3095   */\n      dup6\n        /* \"#utility.yul\":3077:3084   */\n      dup8\n        /* \"#utility.yul\":3073:3096   */\n      sub\n        /* \"#utility.yul\":3069:3102   */\n      slt\n        /* \"#utility.yul\":3066:3186   */\n      iszero\n      tag_323\n      jumpi\n        /* \"#utility.yul\":3105:3184   */\n      tag_324\n      tag_221\n      jump\t// in\n    tag_324:\n        /* \"#utility.yul\":3066:3186   */\n    tag_323:\n        /* \"#utility.yul\":3225:3226   */\n      0x00\n        /* \"#utility.yul\":3250:3303   */\n      tag_325\n        /* \"#utility.yul\":3295:3302   */\n      dup8\n        /* \"#utility.yul\":3286:3292   */\n      dup3\n        /* \"#utility.yul\":3275:3284   */\n      dup9\n        /* \"#utility.yul\":3271:3293   */\n      add\n        /* \"#utility.yul\":3250:3303   */\n      tag_225\n      jump\t// in\n    tag_325:\n        /* \"#utility.yul\":3240:3303   */\n      swap5\n      pop\n        /* \"#utility.yul\":3196:3313   */\n      pop\n        /* \"#utility.yul\":3380:3382   */\n      0x20\n        /* \"#utility.yul\":3369:3378   */\n      dup6\n        /* \"#utility.yul\":3365:3383   */\n      add\n        /* \"#utility.yul\":3352:3384   */\n      calldataload\n        /* \"#utility.yul\":3411:3429   */\n      0xffffffffffffffff\n        /* \"#utility.yul\":3403:3409   */\n      dup2\n        /* \"#utility.yul\":3400:3430   */\n      gt\n        /* \"#utility.yul\":3397:3514   */\n      iszero\n      tag_326\n      jumpi\n        /* \"#utility.yul\":3433:3512   */\n      tag_327\n      tag_222\n      jump\t// in\n    tag_327:\n        /* \"#utility.yul\":3397:3514   */\n    tag_326:\n        /* \"#utility.yul\":3538:3601   */\n      tag_328\n        /* \"#utility.yul\":3593:3600   */\n      dup8\n        /* \"#utility.yul\":3584:3590   */\n      dup3\n        /* \"#utility.yul\":3573:3582   */\n      dup9\n        /* \"#utility.yul\":3569:3591   */\n      add\n        /* \"#utility.yul\":3538:3601   */\n      tag_234\n      jump\t// in\n    tag_328:\n        /* \"#utility.yul\":3528:3601   */\n      swap4\n      pop\n        /* \"#utility.yul\":3323:3611   */\n      pop\n        /* \"#utility.yul\":3678:3680   */\n      0x40\n        /* \"#utility.yul\":3667:3676   */\n      dup6\n        /* \"#utility.yul\":3663:3681   */\n      add\n        /* \"#utility.yul\":3650:3682   */\n      calldataload\n        /* \"#utility.yul\":3709:3727   */\n      0xffffffffffffffff\n        /* \"#utility.yul\":3701:3707   */\n      dup2\n        /* \"#utility.yul\":3698:3728   */\n      gt\n        /* \"#utility.yul\":3695:3812   */\n      iszero\n      tag_329\n      jumpi\n        /* \"#utility.yul\":3731:3810   */\n      tag_330\n      tag_222\n      jump\t// in\n    tag_330:\n        /* \"#utility.yul\":3695:3812   */\n    tag_329:\n        /* \"#utility.yul\":3836:3899   */\n      tag_331\n        /* \"#utility.yul\":3891:3898   */\n      dup8\n        /* \"#utility.yul\":3882:3888   */\n      dup3\n        /* \"#utility.yul\":3871:3880   */\n      dup9\n        /* \"#utility.yul\":3867:3889   */\n      add\n        /* \"#utility.yul\":3836:3899   */\n      tag_234\n      jump\t// in\n    tag_331:\n        /* \"#utility.yul\":3826:3899   */\n      swap3\n      pop\n        /* \"#utility.yul\":3621:3909   */\n      pop\n        /* \"#utility.yul\":3976:3978   */\n      0x60\n        /* \"#utility.yul\":3965:3974   */\n      dup6\n        /* \"#utility.yul\":3961:3979   */\n      add\n        /* \"#utility.yul\":3948:3980   */\n      calldataload\n        /* \"#utility.yul\":4007:4025   */\n      0xffffffffffffffff\n        /* \"#utility.yul\":3999:4005   */\n      dup2\n        /* \"#utility.yul\":3996:4026   */\n      gt\n        /* \"#utility.yul\":3993:4110   */\n      iszero\n      tag_332\n      jumpi\n        /* \"#utility.yul\":4029:4108   */\n      tag_333\n      tag_222\n      jump\t// in\n    tag_333:\n        /* \"#utility.yul\":3993:4110   */\n    tag_332:\n        /* \"#utility.yul\":4134:4197   */\n      tag_334\n        /* \"#utility.yul\":4189:4196   */\n      dup8\n        /* \"#utility.yul\":4180:4186   */\n      dup3\n        /* \"#utility.yul\":4169:4178   */\n      dup9\n        /* \"#utility.yul\":4165:4187   */\n      add\n        /* \"#utility.yul\":4134:4197   */\n      tag_234\n      jump\t// in\n    tag_334:\n        /* \"#utility.yul\":4124:4197   */\n      swap2\n      pop\n        /* \"#utility.yul\":3919:4207   */\n      pop\n        /* \"#utility.yul\":2909:4214   */\n      swap3\n      swap6\n      swap2\n      swap5\n      pop\n      swap3\n      pop\n      jump\t// out\n        /* \"#utility.yul\":4220:4549   */\n    tag_17:\n        /* \"#utility.yul\":4279:4285   */\n      0x00\n        /* \"#utility.yul\":4328:4330   */\n      0x20\n        /* \"#utility.yul\":4316:4325   */\n      dup3\n        /* \"#utility.yul\":4307:4314   */\n      dup5\n        /* \"#utility.yul\":4303:4326   */\n      sub\n        /* \"#utility.yul\":4299:4331   */\n      slt\n        /* \"#utility.yul\":4296:4415   */\n      iszero\n      tag_336\n      jumpi\n        /* \"#utility.yul\":4334:4413   */\n      tag_337\n      tag_221\n      jump\t// in\n    tag_337:\n        /* \"#utility.yul\":4296:4415   */\n    tag_336:\n        /* \"#utility.yul\":4454:4455   */\n      0x00\n        /* \"#utility.yul\":4479:4532   */\n      tag_338\n        /* \"#utility.yul\":4524:4531   */\n      dup5\n        /* \"#utility.yul\":4515:4521   */\n      dup3\n        /* \"#utility.yul\":4504:4513   */\n      dup6\n        /* \"#utility.yul\":4500:4522   */\n      add\n        /* \"#utility.yul\":4479:4532   */\n      tag_225\n      jump\t// in\n    tag_338:\n        /* \"#utility.yul\":4469:4532   */\n      swap2\n      pop\n        /* \"#utility.yul\":4425:4542   */\n      pop\n        /* \"#utility.yul\":4220:4549   */\n      swap3\n      swap2\n      pop\n      pop\n      jump\t// out\n        /* \"#utility.yul\":4555:4673   */\n    tag_235:\n        /* \"#utility.yul\":4642:4666   */\n      tag_340\n        /* \"#utility.yul\":4660:4665   */\n      dup2\n        /* \"#utility.yul\":4642:4666   */\n      tag_223\n      jump\t// in\n    tag_340:\n        /* \"#utility.yul\":4637:4640   */\n      dup3\n        /* \"#utility.yul\":4630:4667   */\n      mstore\n        /* \"#utility.yul\":4555:4673   */\n      pop\n      pop\n      jump\t// out\n        /* \"#utility.yul\":4679:4805   */\n    tag_236:\n        /* \"#utility.yul\":4716:4723   */\n      0x00\n        /* \"#utility.yul\":4756:4798   */\n      0xffffffffffffffffffffffffffffffffffffffff\n        /* \"#utility.yul\":4749:4754   */\n      dup3\n        /* \"#utility.yul\":4745:4799   */\n      and\n        /* \"#utility.yul\":4734:4799   */\n      swap1\n      pop\n        /* \"#utility.yul\":4679:4805   */\n      swap2\n      swap1\n      pop\n      jump\t// out\n        /* \"#utility.yul\":4811:4907   */\n    tag_237:\n        /* \"#utility.yul\":4848:4855   */\n      0x00\n        /* \"#utility.yul\":4877:4901   */\n      tag_343\n        /* \"#utility.yul\":4895:4900   */\n      dup3\n        /* \"#utility.yul\":4877:4901   */\n      tag_236\n      jump\t// in\n    tag_343:\n        /* \"#utility.yul\":4866:4901   */\n      swap1\n      pop\n        /* \"#utility.yul\":4811:4907   */\n      swap2\n      swap1\n      pop\n      jump\t// out\n        /* \"#utility.yul\":4913:5031   */\n    tag_238:\n        /* \"#utility.yul\":5000:5024   */\n      tag_345\n        /* \"#utility.yul\":5018:5023   */\n      dup2\n        /* \"#utility.yul\":5000:5024   */\n      tag_237\n      jump\t// in\n    tag_345:\n        /* \"#utility.yul\":4995:4998   */\n      dup3\n        /* \"#utility.yul\":4988:5025   */\n      mstore\n        /* \"#utility.yul\":4913:5031   */\n      pop\n      pop\n      jump\t// out\n        /* \"#utility.yul\":5037:5136   */\n    tag_239:\n        /* \"#utility.yul\":5089:5095   */\n      0x00\n        /* \"#utility.yul\":5123:5128   */\n      dup2\n        /* \"#utility.yul\":5117:5129   */\n      mload\n        /* \"#utility.yul\":5107:5129   */\n      swap1\n      pop\n        /* \"#utility.yul\":5037:5136   */\n      swap2\n      swap1\n      pop\n      jump\t// out\n        /* \"#utility.yul\":5142:5311   */\n    tag_240:\n        /* \"#utility.yul\":5226:5237   */\n      0x00\n        /* \"#utility.yul\":5260:5266   */\n      dup3\n        /* \"#utility.yul\":5255:5258   */\n      dup3\n        /* \"#utility.yul\":5248:5267   */\n      mstore\n        /* \"#utility.yul\":5300:5304   */\n      0x20\n        /* \"#utility.yul\":5295:5298   */\n      dup3\n        /* \"#utility.yul\":5291:5305   */\n      add\n        /* \"#utility.yul\":5276:5305   */\n      swap1\n      pop\n        /* \"#utility.yul\":5142:5311   */\n      swap3\n      swap2\n      pop\n      pop\n      jump\t// out\n        /* \"#utility.yul\":5317:5563   */\n    tag_241:\n        /* \"#utility.yul\":5398:5399   */\n      0x00\n        /* \"#utility.yul\":5408:5521   */\n    tag_349:\n        /* \"#utility.yul\":5422:5428   */\n      dup4\n        /* \"#utility.yul\":5419:5420   */\n      dup2\n        /* \"#utility.yul\":5416:5429   */\n      lt\n        /* \"#utility.yul\":5408:5521   */\n      iszero\n      tag_351\n      jumpi\n        /* \"#utility.yul\":5507:5508   */\n      dup1\n        /* \"#utility.yul\":5502:5505   */\n      dup3\n        /* \"#utility.yul\":5498:5509   */\n      add\n        /* \"#utility.yul\":5492:5510   */\n      mload\n        /* \"#utility.yul\":5488:5489   */\n      dup2\n        /* \"#utility.yul\":5483:5486   */\n      dup5\n        /* \"#utility.yul\":5479:5490   */\n      add\n        /* \"#utility.yul\":5472:5511   */\n      mstore\n        /* \"#utility.yul\":5444:5446   */\n      0x20\n        /* \"#utility.yul\":5441:5442   */\n      dup2\n        /* \"#utility.yul\":5437:5447   */\n      add\n        /* \"#utility.yul\":5432:5447   */\n      swap1\n      pop\n        /* \"#utility.yul\":5408:5521   */\n      jump(tag_349)\n    tag_351:\n        /* \"#utility.yul\":5555:5556   */\n      0x00\n        /* \"#utility.yul\":5546:5552   */\n      dup5\n        /* \"#utility.yul\":5541:5544   */\n      dup5\n        /* \"#utility.yul\":5537:5553   */\n      add\n        /* \"#utility.yul\":5530:5557   */\n      mstore\n        /* \"#utility.yul\":5379:5563   */\n      pop\n        /* \"#utility.yul\":5317:5563   */\n      pop\n      pop\n      pop\n      jump\t// out\n        /* \"#utility.yul\":5569:5946   */\n    tag_242:\n        /* \"#utility.yul\":5657:5660   */\n      0x00\n        /* \"#utility.yul\":5685:5724   */\n      tag_353\n        /* \"#utility.yul\":5718:5723   */\n      dup3\n        /* \"#utility.yul\":5685:5724   */\n      tag_239\n      jump\t// in\n    tag_353:\n        /* \"#utility.yul\":5740:5811   */\n      tag_354\n        /* \"#utility.yul\":5804:5810   */\n      dup2\n        /* \"#utility.yul\":5799:5802   */\n      dup6\n        /* \"#utility.yul\":5740:5811   */\n      tag_240\n      jump\t// in\n    tag_354:\n        /* \"#utility.yul\":5733:5811   */\n      swap4\n      pop\n        /* \"#utility.yul\":5820:5885   */\n      tag_355\n        /* \"#utility.yul\":5878:5884   */\n      dup2\n        /* \"#utility.yul\":5873:5876   */\n      dup6\n        /* \"#utility.yul\":5866:5870   */\n      0x20\n        /* \"#utility.yul\":5859:5864   */\n      dup7\n        /* \"#utility.yul\":5855:5871   */\n      add\n        /* \"#utility.yul\":5820:5885   */\n      tag_241\n      jump\t// in\n    tag_355:\n        /* \"#utility.yul\":5910:5939   */\n      tag_356\n        /* \"#utility.yul\":5932:5938   */\n      dup2\n        /* \"#utility.yul\":5910:5939   */\n      tag_228\n      jump\t// in\n    tag_356:\n        /* \"#utility.yul\":5905:5908   */\n      dup5\n        /* \"#utility.yul\":5901:5940   */\n      add\n        /* \"#utility.yul\":5894:5940   */\n      swap2\n      pop\n        /* \"#utility.yul\":5661:5946   */\n      pop\n        /* \"#utility.yul\":5569:5946   */\n      swap3\n      swap2\n      pop\n      pop\n      jump\t// out\n        /* \"#utility.yul\":5952:7091   */\n    tag_20:\n        /* \"#utility.yul\":6265:6269   */\n      0x00\n        /* \"#utility.yul\":6303:6306   */\n      0xc0\n        /* \"#utility.yul\":6292:6301   */\n      dup3\n        /* \"#utility.yul\":6288:6307   */\n      add\n        /* \"#utility.yul\":6280:6307   */\n      swap1\n      pop\n        /* \"#utility.yul\":6317:6388   */\n      tag_358\n        /* \"#utility.yul\":6385:6386   */\n      0x00\n        /* \"#utility.yul\":6374:6383   */\n      dup4\n        /* \"#utility.yul\":6370:6387   */\n      add\n        /* \"#utility.yul\":6361:6367   */\n      dup10\n        /* \"#utility.yul\":6317:6388   */\n      tag_235\n      jump\t// in\n    tag_358:\n        /* \"#utility.yul\":6398:6470   */\n      tag_359\n        /* \"#utility.yul\":6466:6468   */\n      0x20\n        /* \"#utility.yul\":6455:6464   */\n      dup4\n        /* \"#utility.yul\":6451:6469   */\n      add\n        /* \"#utility.yul\":6442:6448   */\n      dup9\n        /* \"#utility.yul\":6398:6470   */\n      tag_238\n      jump\t// in\n    tag_359:\n        /* \"#utility.yul\":6517:6526   */\n      dup2\n        /* \"#utility.yul\":6511:6515   */\n      dup2\n        /* \"#utility.yul\":6507:6527   */\n      sub\n        /* \"#utility.yul\":6502:6504   */\n      0x40\n        /* \"#utility.yul\":6491:6500   */\n      dup4\n        /* \"#utility.yul\":6487:6505   */\n      add\n        /* \"#utility.yul\":6480:6528   */\n      mstore\n        /* \"#utility.yul\":6545:6623   */\n      tag_360\n        /* \"#utility.yul\":6618:6622   */\n      dup2\n        /* \"#utility.yul\":6609:6615   */\n      dup8\n        /* \"#utility.yul\":6545:6623   */\n      tag_242\n      jump\t// in\n    tag_360:\n        /* \"#utility.yul\":6537:6623   */\n      swap1\n      pop\n        /* \"#utility.yul\":6670:6679   */\n      dup2\n        /* \"#utility.yul\":6664:6668   */\n      dup2\n        /* \"#utility.yul\":6660:6680   */\n      sub\n        /* \"#utility.yul\":6655:6657   */\n      0x60\n        /* \"#utility.yul\":6644:6653   */\n      dup4\n        /* \"#utility.yul\":6640:6658   */\n      add\n        /* \"#utility.yul\":6633:6681   */\n      mstore\n        /* \"#utility.yul\":6698:6776   */\n      tag_361\n        /* \"#utility.yul\":6771:6775   */\n      dup2\n        /* \"#utility.yul\":6762:6768   */\n      dup7\n        /* \"#utility.yul\":6698:6776   */\n      tag_242\n      jump\t// in\n    tag_361:\n        /* \"#utility.yul\":6690:6776   */\n      swap1\n      pop\n        /* \"#utility.yul\":6824:6833   */\n      dup2\n        /* \"#utility.yul\":6818:6822   */\n      dup2\n        /* \"#utility.yul\":6814:6834   */\n      sub\n        /* \"#utility.yul\":6808:6811   */\n      0x80\n        /* \"#utility.yul\":6797:6806   */\n      dup4\n        /* \"#utility.yul\":6793:6812   */\n      add\n        /* \"#utility.yul\":6786:6835   */\n      mstore\n        /* \"#utility.yul\":6852:6930   */\n      tag_362\n        /* \"#utility.yul\":6925:6929   */\n      dup2\n        /* \"#utility.yul\":6916:6922   */\n      dup6\n        /* \"#utility.yul\":6852:6930   */\n      tag_242\n      jump\t// in\n    tag_362:\n        /* \"#utility.yul\":6844:6930   */\n      swap1\n      pop\n        /* \"#utility.yul\":6978:6987   */\n      dup2\n        /* \"#utility.yul\":6972:6976   */\n      dup2\n        /* \"#utility.yul\":6968:6988   */\n      sub\n        /* \"#utility.yul\":6962:6965   */\n      0xa0\n        /* \"#utility.yul\":6951:6960   */\n      dup4\n        /* \"#utility.yul\":6947:6966   */\n      add\n        /* \"#utility.yul\":6940:6989   */\n      mstore\n        /* \"#utility.yul\":7006:7084   */\n      tag_363\n        /* \"#utility.yul\":7079:7083   */\n      dup2\n        /* \"#utility.yul\":7070:7076   */\n      dup5\n        /* \"#utility.yul\":7006:7084   */\n      tag_242\n      jump\t// in\n    tag_363:\n        /* \"#utility.yul\":6998:7084   */\n      swap1\n      pop\n        /* \"#utility.yul\":5952:7091   */\n      swap8\n      swap7\n      pop\n      pop\n      pop\n      pop\n      pop\n      pop\n      pop\n      jump\t// out\n        /* \"#utility.yul\":7097:7230   */\n    tag_243:\n        /* \"#utility.yul\":7183:7189   */\n      0x00\n        /* \"#utility.yul\":7217:7222   */\n      dup2\n        /* \"#utility.yul\":7211:7223   */\n      mload\n        /* \"#utility.yul\":7201:7223   */\n      swap1\n      pop\n        /* \"#utility.yul\":7097:7230   */\n      swap2\n      swap1\n      pop\n      jump\t// out\n        /* \"#utility.yul\":7236:7439   */\n    tag_244:\n        /* \"#utility.yul\":7354:7365   */\n      0x00\n        /* \"#utility.yul\":7388:7394   */\n      dup3\n        /* \"#utility.yul\":7383:7386   */\n      dup3\n        /* \"#utility.yul\":7376:7395   */\n      mstore\n        /* \"#utility.yul\":7428:7432   */\n      0x20\n        /* \"#utility.yul\":7423:7426   */\n      dup3\n        /* \"#utility.yul\":7419:7433   */\n      add\n        /* \"#utility.yul\":7404:7433   */\n      swap1\n      pop\n        /* \"#utility.yul\":7236:7439   */\n      swap3\n      swap2\n      pop\n      pop\n      jump\t// out\n        /* \"#utility.yul\":7445:7596   */\n    tag_245:\n        /* \"#utility.yul\":7531:7535   */\n      0x00\n        /* \"#utility.yul\":7554:7557   */\n      dup2\n        /* \"#utility.yul\":7546:7557   */\n      swap1\n      pop\n        /* \"#utility.yul\":7584:7588   */\n      0x20\n        /* \"#utility.yul\":7579:7582   */\n      dup3\n        /* \"#utility.yul\":7575:7589   */\n      add\n        /* \"#utility.yul\":7567:7589   */\n      swap1\n      pop\n        /* \"#utility.yul\":7445:7596   */\n      swap2\n      swap1\n      pop\n      jump\t// out\n        /* \"#utility.yul\":7602:7710   */\n    tag_246:\n        /* \"#utility.yul\":7679:7703   */\n      tag_368\n        /* \"#utility.yul\":7697:7702   */\n      dup2\n        /* \"#utility.yul\":7679:7703   */\n      tag_223\n      jump\t// in\n    tag_368:\n        /* \"#utility.yul\":7674:7677   */\n      dup3\n        /* \"#utility.yul\":7667:7704   */\n      mstore\n        /* \"#utility.yul\":7602:7710   */\n      pop\n      pop\n      jump\t// out\n        /* \"#utility.yul\":7716:7824   */\n    tag_247:\n        /* \"#utility.yul\":7793:7817   */\n      tag_370\n        /* \"#utility.yul\":7811:7816   */\n      dup2\n        /* \"#utility.yul\":7793:7817   */\n      tag_237\n      jump\t// in\n    tag_370:\n        /* \"#utility.yul\":7788:7791   */\n      dup3\n        /* \"#utility.yul\":7781:7818   */\n      mstore\n        /* \"#utility.yul\":7716:7824   */\n      pop\n      pop\n      jump\t// out\n        /* \"#utility.yul\":7830:7989   */\n    tag_248:\n        /* \"#utility.yul\":7904:7915   */\n      0x00\n        /* \"#utility.yul\":7938:7944   */\n      dup3\n        /* \"#utility.yul\":7933:7936   */\n      dup3\n        /* \"#utility.yul\":7926:7945   */\n      mstore\n        /* \"#utility.yul\":7978:7982   */\n      0x20\n        /* \"#utility.yul\":7973:7976   */\n      dup3\n        /* \"#utility.yul\":7969:7983   */\n      add\n        /* \"#utility.yul\":7954:7983   */\n      swap1\n      pop\n        /* \"#utility.yul\":7830:7989   */\n      swap3\n      swap2\n      pop\n      pop\n      jump\t// out\n        /* \"#utility.yul\":7995:8352   */\n    tag_249:\n        /* \"#utility.yul\":8073:8076   */\n      0x00\n        /* \"#utility.yul\":8101:8140   */\n      tag_373\n        /* \"#utility.yul\":8134:8139   */\n      dup3\n        /* \"#utility.yul\":8101:8140   */\n      tag_239\n      jump\t// in\n    tag_373:\n        /* \"#utility.yul\":8156:8217   */\n      tag_374\n        /* \"#utility.yul\":8210:8216   */\n      dup2\n        /* \"#utility.yul\":8205:8208   */\n      dup6\n        /* \"#utility.yul\":8156:8217   */\n      tag_248\n      jump\t// in\n    tag_374:\n        /* \"#utility.yul\":8149:8217   */\n      swap4\n      pop\n        /* \"#utility.yul\":8226:8291   */\n      tag_375\n        /* \"#utility.yul\":8284:8290   */\n      dup2\n        /* \"#utility.yul\":8279:8282   */\n      dup6\n        /* \"#utility.yul\":8272:8276   */\n      0x20\n        /* \"#utility.yul\":8265:8270   */\n      dup7\n        /* \"#utility.yul\":8261:8277   */\n      add\n        /* \"#utility.yul\":8226:8291   */\n      tag_241\n      jump\t// in\n    tag_375:\n        /* \"#utility.yul\":8316:8345   */\n      tag_376\n        /* \"#utility.yul\":8338:8344   */\n      dup2\n        /* \"#utility.yul\":8316:8345   */\n      tag_228\n      jump\t// in\n    tag_376:\n        /* \"#utility.yul\":8311:8314   */\n      dup5\n        /* \"#utility.yul\":8307:8346   */\n      add\n        /* \"#utility.yul\":8300:8346   */\n      swap2\n      pop\n        /* \"#utility.yul\":8077:8352   */\n      pop\n        /* \"#utility.yul\":7995:8352   */\n      swap3\n      swap2\n      pop\n      pop\n      jump\t// out\n        /* \"#utility.yul\":8422:9926   */\n    tag_250:\n        /* \"#utility.yul\":8519:8522   */\n      0x00\n        /* \"#utility.yul\":8555:8559   */\n      0xc0\n        /* \"#utility.yul\":8550:8553   */\n      dup4\n        /* \"#utility.yul\":8546:8560   */\n      add\n        /* \"#utility.yul\":8643:8647   */\n      0x00\n        /* \"#utility.yul\":8636:8641   */\n      dup4\n        /* \"#utility.yul\":8632:8648   */\n      add\n        /* \"#utility.yul\":8626:8649   */\n      mload\n        /* \"#utility.yul\":8662:8725   */\n      tag_378\n        /* \"#utility.yul\":8719:8723   */\n      0x00\n        /* \"#utility.yul\":8714:8717   */\n      dup7\n        /* \"#utility.yul\":8710:8724   */\n      add\n        /* \"#utility.yul\":8696:8708   */\n      dup3\n        /* \"#utility.yul\":8662:8725   */\n      tag_246\n      jump\t// in\n    tag_378:\n        /* \"#utility.yul\":8570:8735   */\n      pop\n        /* \"#utility.yul\":8818:8822   */\n      0x20\n        /* \"#utility.yul\":8811:8816   */\n      dup4\n        /* \"#utility.yul\":8807:8823   */\n      add\n        /* \"#utility.yul\":8801:8824   */\n      mload\n        /* \"#utility.yul\":8837:8900   */\n      tag_379\n        /* \"#utility.yul\":8894:8898   */\n      0x20\n        /* \"#utility.yul\":8889:8892   */\n      dup7\n        /* \"#utility.yul\":8885:8899   */\n      add\n        /* \"#utility.yul\":8871:8883   */\n      dup3\n        /* \"#utility.yul\":8837:8900   */\n      tag_247\n      jump\t// in\n    tag_379:\n        /* \"#utility.yul\":8745:8910   */\n      pop\n        /* \"#utility.yul\":8991:8995   */\n      0x40\n        /* \"#utility.yul\":8984:8989   */\n      dup4\n        /* \"#utility.yul\":8980:8996   */\n      add\n        /* \"#utility.yul\":8974:8997   */\n      mload\n        /* \"#utility.yul\":9044:9047   */\n      dup5\n        /* \"#utility.yul\":9038:9042   */\n      dup3\n        /* \"#utility.yul\":9034:9048   */\n      sub\n        /* \"#utility.yul\":9027:9031   */\n      0x40\n        /* \"#utility.yul\":9022:9025   */\n      dup7\n        /* \"#utility.yul\":9018:9032   */\n      add\n        /* \"#utility.yul\":9011:9049   */\n      mstore\n        /* \"#utility.yul\":9070:9143   */\n      tag_380\n        /* \"#utility.yul\":9138:9142   */\n      dup3\n        /* \"#utility.yul\":9124:9136   */\n      dup3\n        /* \"#utility.yul\":9070:9143   */\n      tag_249\n      jump\t// in\n    tag_380:\n        /* \"#utility.yul\":9062:9143   */\n      swap2\n      pop\n        /* \"#utility.yul\":8920:9154   */\n      pop\n        /* \"#utility.yul\":9239:9243   */\n      0x60\n        /* \"#utility.yul\":9232:9237   */\n      dup4\n        /* \"#utility.yul\":9228:9244   */\n      add\n        /* \"#utility.yul\":9222:9245   */\n      mload\n        /* \"#utility.yul\":9292:9295   */\n      dup5\n        /* \"#utility.yul\":9286:9290   */\n      dup3\n        /* \"#utility.yul\":9282:9296   */\n      sub\n        /* \"#utility.yul\":9275:9279   */\n      0x60\n        /* \"#utility.yul\":9270:9273   */\n      dup7\n        /* \"#utility.yul\":9266:9280   */\n      add\n        /* \"#utility.yul\":9259:9297   */\n      mstore\n        /* \"#utility.yul\":9318:9391   */\n      tag_381\n        /* \"#utility.yul\":9386:9390   */\n      dup3\n        /* \"#utility.yul\":9372:9384   */\n      dup3\n        /* \"#utility.yul\":9318:9391   */\n      tag_249\n      jump\t// in\n    tag_381:\n        /* \"#utility.yul\":9310:9391   */\n      swap2\n      pop\n        /* \"#utility.yul\":9164:9402   */\n      pop\n        /* \"#utility.yul\":9488:9492   */\n      0x80\n        /* \"#utility.yul\":9481:9486   */\n      dup4\n        /* \"#utility.yul\":9477:9493   */\n      add\n        /* \"#utility.yul\":9471:9494   */\n      mload\n        /* \"#utility.yul\":9541:9544   */\n      dup5\n        /* \"#utility.yul\":9535:9539   */\n      dup3\n        /* \"#utility.yul\":9531:9545   */\n      sub\n        /* \"#utility.yul\":9524:9528   */\n      0x80\n        /* \"#utility.yul\":9519:9522   */\n      dup7\n        /* \"#utility.yul\":9515:9529   */\n      add\n        /* \"#utility.yul\":9508:9546   */\n      mstore\n        /* \"#utility.yul\":9567:9640   */\n      tag_382\n        /* \"#utility.yul\":9635:9639   */\n      dup3\n        /* \"#utility.yul\":9621:9633   */\n      dup3\n        /* \"#utility.yul\":9567:9640   */\n      tag_249\n      jump\t// in\n    tag_382:\n        /* \"#utility.yul\":9559:9640   */\n      swap2\n      pop\n        /* \"#utility.yul\":9412:9651   */\n      pop\n        /* \"#utility.yul\":9736:9740   */\n      0xa0\n        /* \"#utility.yul\":9729:9734   */\n      dup4\n        /* \"#utility.yul\":9725:9741   */\n      add\n        /* \"#utility.yul\":9719:9742   */\n      mload\n        /* \"#utility.yul\":9789:9792   */\n      dup5\n        /* \"#utility.yul\":9783:9787   */\n      dup3\n        /* \"#utility.yul\":9779:9793   */\n      sub\n        /* \"#utility.yul\":9772:9776   */\n      0xa0\n        /* \"#utility.yul\":9767:9770   */\n      dup7\n        /* \"#utility.yul\":9763:9777   */\n      add\n        /* \"#utility.yul\":9756:9794   */\n      mstore\n        /* \"#utility.yul\":9815:9888   */\n      tag_383\n        /* \"#utility.yul\":9883:9887   */\n      dup3\n        /* \"#utility.yul\":9869:9881   */\n      dup3\n        /* \"#utility.yul\":9815:9888   */\n      tag_249\n      jump\t// in\n    tag_383:\n        /* \"#utility.yul\":9807:9888   */\n      swap2\n      pop\n        /* \"#utility.yul\":9661:9899   */\n      pop\n        /* \"#utility.yul\":9916:9920   */\n      dup1\n        /* \"#utility.yul\":9909:9920   */\n      swap2\n      pop\n        /* \"#utility.yul\":8524:9926   */\n      pop\n        /* \"#utility.yul\":8422:9926   */\n      swap3\n      swap2\n      pop\n      pop\n      jump\t// out\n        /* \"#utility.yul\":9932:10164   */\n    tag_251:\n        /* \"#utility.yul\":10039:10049   */\n      0x00\n        /* \"#utility.yul\":10074:10158   */\n      tag_385\n        /* \"#utility.yul\":10154:10157   */\n      dup4\n        /* \"#utility.yul\":10146:10152   */\n      dup4\n        /* \"#utility.yul\":10074:10158   */\n      tag_250\n      jump\t// in\n    tag_385:\n        /* \"#utility.yul\":10060:10158   */\n      swap1\n      pop\n        /* \"#utility.yul\":9932:10164   */\n      swap3\n      swap2\n      pop\n      pop\n      jump\t// out\n        /* \"#utility.yul\":10170:10302   */\n    tag_252:\n        /* \"#utility.yul\":10259:10263   */\n      0x00\n        /* \"#utility.yul\":10291:10295   */\n      0x20\n        /* \"#utility.yul\":10286:10289   */\n      dup3\n        /* \"#utility.yul\":10282:10296   */\n      add\n        /* \"#utility.yul\":10274:10296   */\n      swap1\n      pop\n        /* \"#utility.yul\":10170:10302   */\n      swap2\n      swap1\n      pop\n      jump\t// out\n        /* \"#utility.yul\":10376:11439   */\n    tag_253:\n        /* \"#utility.yul\":10533:10536   */\n      0x00\n        /* \"#utility.yul\":10562:10635   */\n      tag_388\n        /* \"#utility.yul\":10629:10634   */\n      dup3\n        /* \"#utility.yul\":10562:10635   */\n      tag_243\n      jump\t// in\n    tag_388:\n        /* \"#utility.yul\":10651:10756   */\n      tag_389\n        /* \"#utility.yul\":10749:10755   */\n      dup2\n        /* \"#utility.yul\":10744:10747   */\n      dup6\n        /* \"#utility.yul\":10651:10756   */\n      tag_244\n      jump\t// in\n    tag_389:\n        /* \"#utility.yul\":10644:10756   */\n      swap4\n      pop\n        /* \"#utility.yul\":10782:10785   */\n      dup4\n        /* \"#utility.yul\":10827:10831   */\n      0x20\n        /* \"#utility.yul\":10819:10825   */\n      dup3\n        /* \"#utility.yul\":10815:10832   */\n      mul\n        /* \"#utility.yul\":10810:10813   */\n      dup6\n        /* \"#utility.yul\":10806:10833   */\n      add\n        /* \"#utility.yul\":10857:10932   */\n      tag_390\n        /* \"#utility.yul\":10926:10931   */\n      dup6\n        /* \"#utility.yul\":10857:10932   */\n      tag_245\n      jump\t// in\n    tag_390:\n        /* \"#utility.yul\":10955:10962   */\n      dup1\n        /* \"#utility.yul\":10986:10987   */\n      0x00\n        /* \"#utility.yul\":10971:11394   */\n    tag_391:\n        /* \"#utility.yul\":10996:11002   */\n      dup6\n        /* \"#utility.yul\":10993:10994   */\n      dup2\n        /* \"#utility.yul\":10990:11003   */\n      lt\n        /* \"#utility.yul\":10971:11394   */\n      iszero\n      tag_393\n      jumpi\n        /* \"#utility.yul\":11067:11076   */\n      dup5\n        /* \"#utility.yul\":11061:11065   */\n      dup5\n        /* \"#utility.yul\":11057:11077   */\n      sub\n        /* \"#utility.yul\":11052:11055   */\n      dup10\n        /* \"#utility.yul\":11045:11078   */\n      mstore\n        /* \"#utility.yul\":11118:11124   */\n      dup2\n        /* \"#utility.yul\":11112:11125   */\n      mload\n        /* \"#utility.yul\":11146:11248   */\n      tag_394\n        /* \"#utility.yul\":11243:11247   */\n      dup6\n        /* \"#utility.yul\":11228:11241   */\n      dup3\n        /* \"#utility.yul\":11146:11248   */\n      tag_251\n      jump\t// in\n    tag_394:\n        /* \"#utility.yul\":11138:11248   */\n      swap5\n      pop\n        /* \"#utility.yul\":11271:11350   */\n      tag_395\n        /* \"#utility.yul\":11343:11349   */\n      dup4\n        /* \"#utility.yul\":11271:11350   */\n      tag_252\n      jump\t// in\n    tag_395:\n        /* \"#utility.yul\":11261:11350   */\n      swap3\n      pop\n        /* \"#utility.yul\":11379:11383   */\n      0x20\n        /* \"#utility.yul\":11374:11377   */\n      dup11\n        /* \"#utility.yul\":11370:11384   */\n      add\n        /* \"#utility.yul\":11363:11384   */\n      swap10\n      pop\n        /* \"#utility.yul\":11031:11394   */\n      pop\n        /* \"#utility.yul\":11018:11019   */\n      0x01\n        /* \"#utility.yul\":11015:11016   */\n      dup2\n        /* \"#utility.yul\":11011:11020   */\n      add\n        /* \"#utility.yul\":11006:11020   */\n      swap1\n      pop\n        /* \"#utility.yul\":10971:11394   */\n      jump(tag_391)\n    tag_393:\n        /* \"#utility.yul\":10975:10989   */\n      pop\n        /* \"#utility.yul\":11410:11414   */\n      dup3\n        /* \"#utility.yul\":11403:11414   */\n      swap8\n      pop\n        /* \"#utility.yul\":11430:11433   */\n      dup8\n        /* \"#utility.yul\":11423:11433   */\n      swap6\n      pop\n        /* \"#utility.yul\":10538:11439   */\n      pop\n      pop\n      pop\n      pop\n      pop\n        /* \"#utility.yul\":10376:11439   */\n      swap3\n      swap2\n      pop\n      pop\n      jump\t// out\n        /* \"#utility.yul\":11445:12004   */\n    tag_24:\n        /* \"#utility.yul\":11654:11658   */\n      0x00\n        /* \"#utility.yul\":11692:11694   */\n      0x40\n        /* \"#utility.yul\":11681:11690   */\n      dup3\n        /* \"#utility.yul\":11677:11695   */\n      add\n        /* \"#utility.yul\":11669:11695   */\n      swap1\n      pop\n        /* \"#utility.yul\":11741:11750   */\n      dup2\n        /* \"#utility.yul\":11735:11739   */\n      dup2\n        /* \"#utility.yul\":11731:11751   */\n      sub\n        /* \"#utility.yul\":11727:11728   */\n      0x00\n        /* \"#utility.yul\":11716:11725   */\n      dup4\n        /* \"#utility.yul\":11712:11729   */\n      add\n        /* \"#utility.yul\":11705:11752   */\n      mstore\n        /* \"#utility.yul\":11769:11915   */\n      tag_397\n        /* \"#utility.yul\":11910:11914   */\n      dup2\n        /* \"#utility.yul\":11901:11907   */\n      dup6\n        /* \"#utility.yul\":11769:11915   */\n      tag_253\n      jump\t// in\n    tag_397:\n        /* \"#utility.yul\":11761:11915   */\n      swap1\n      pop\n        /* \"#utility.yul\":11925:11997   */\n      tag_398\n        /* \"#utility.yul\":11993:11995   */\n      0x20\n        /* \"#utility.yul\":11982:11991   */\n      dup4\n        /* \"#utility.yul\":11978:11996   */\n      add\n        /* \"#utility.yul\":11969:11975   */\n      dup5\n        /* \"#utility.yul\":11925:11997   */\n      tag_235\n      jump\t// in\n    tag_398:\n        /* \"#utility.yul\":11445:12004   */\n      swap4\n      swap3\n      pop\n      pop\n      pop\n      jump\t// out\n        /* \"#utility.yul\":12010:13495   */\n    tag_27:\n        /* \"#utility.yul\":12136:12142   */\n      0x00\n        /* \"#utility.yul\":12144:12150   */\n      dup1\n        /* \"#utility.yul\":12152:12158   */\n      0x00\n        /* \"#utility.yul\":12160:12166   */\n      dup1\n        /* \"#utility.yul\":12209:12212   */\n      0x80\n        /* \"#utility.yul\":12197:12206   */\n      dup6\n        /* \"#utility.yul\":12188:12195   */\n      dup8\n        /* \"#utility.yul\":12184:12207   */\n      sub\n        /* \"#utility.yul\":12180:12213   */\n      slt\n        /* \"#utility.yul\":12177:12297   */\n      iszero\n      tag_400\n      jumpi\n        /* \"#utility.yul\":12216:12295   */\n      tag_401\n      tag_221\n      jump\t// in\n    tag_401:\n        /* \"#utility.yul\":12177:12297   */\n    tag_400:\n        /* \"#utility.yul\":12364:12365   */\n      0x00\n        /* \"#utility.yul\":12353:12362   */\n      dup6\n        /* \"#utility.yul\":12349:12366   */\n      add\n        /* \"#utility.yul\":12336:12367   */\n      calldataload\n        /* \"#utility.yul\":12394:12412   */\n      0xffffffffffffffff\n        /* \"#utility.yul\":12386:12392   */\n      dup2\n        /* \"#utility.yul\":12383:12413   */\n      gt\n        /* \"#utility.yul\":12380:12497   */\n      iszero\n      tag_402\n      jumpi\n        /* \"#utility.yul\":12416:12495   */\n      tag_403\n      tag_222\n      jump\t// in\n    tag_403:\n        /* \"#utility.yul\":12380:12497   */\n    tag_402:\n        /* \"#utility.yul\":12521:12584   */\n      tag_404\n        /* \"#utility.yul\":12576:12583   */\n      dup8\n        /* \"#utility.yul\":12567:12573   */\n      dup3\n        /* \"#utility.yul\":12556:12565   */\n      dup9\n        /* \"#utility.yul\":12552:12574   */\n      add\n        /* \"#utility.yul\":12521:12584   */\n      tag_234\n      jump\t// in\n    tag_404:\n        /* \"#utility.yul\":12511:12584   */\n      swap5\n      pop\n        /* \"#utility.yul\":12307:12594   */\n      pop\n        /* \"#utility.yul\":12661:12663   */\n      0x20\n        /* \"#utility.yul\":12650:12659   */\n      dup6\n        /* \"#utility.yul\":12646:12664   */\n      add\n        /* \"#utility.yul\":12633:12665   */\n      calldataload\n        /* \"#utility.yul\":12692:12710   */\n      0xffffffffffffffff\n        /* \"#utility.yul\":12684:12690   */\n      dup2\n        /* \"#utility.yul\":12681:12711   */\n      gt\n        /* \"#utility.yul\":12678:12795   */\n      iszero\n      tag_405\n      jumpi\n        /* \"#utility.yul\":12714:12793   */\n      tag_406\n      tag_222\n      jump\t// in\n    tag_406:\n        /* \"#utility.yul\":12678:12795   */\n    tag_405:\n        /* \"#utility.yul\":12819:12882   */\n      tag_407\n        /* \"#utility.yul\":12874:12881   */\n      dup8\n        /* \"#utility.yul\":12865:12871   */\n      dup3\n        /* \"#utility.yul\":12854:12863   */\n      dup9\n        /* \"#utility.yul\":12850:12872   */\n      add\n        /* \"#utility.yul\":12819:12882   */\n      tag_234\n      jump\t// in\n    tag_407:\n        /* \"#utility.yul\":12809:12882   */\n      swap4\n      pop\n        /* \"#utility.yul\":12604:12892   */\n      pop\n        /* \"#utility.yul\":12959:12961   */\n      0x40\n        /* \"#utility.yul\":12948:12957   */\n      dup6\n        /* \"#utility.yul\":12944:12962   */\n      add\n        /* \"#utility.yul\":12931:12963   */\n      calldataload\n        /* \"#utility.yul\":12990:13008   */\n      0xffffffffffffffff\n        /* \"#utility.yul\":12982:12988   */\n      dup2\n        /* \"#utility.yul\":12979:13009   */\n      gt\n        /* \"#utility.yul\":12976:13093   */\n      iszero\n      tag_408\n      jumpi\n        /* \"#utility.yul\":13012:13091   */\n      tag_409\n      tag_222\n      jump\t// in\n    tag_409:\n        /* \"#utility.yul\":12976:13093   */\n    tag_408:\n        /* \"#utility.yul\":13117:13180   */\n      tag_410\n        /* \"#utility.yul\":13172:13179   */\n      dup8\n        /* \"#utility.yul\":13163:13169   */\n      dup3\n        /* \"#utility.yul\":13152:13161   */\n      dup9\n        /* \"#utility.yul\":13148:13170   */\n      add\n        /* \"#utility.yul\":13117:13180   */\n      tag_234\n      jump\t// in\n    tag_410:\n        /* \"#utility.yul\":13107:13180   */\n      swap3\n      pop\n        /* \"#utility.yul\":12902:13190   */\n      pop\n        /* \"#utility.yul\":13257:13259   */\n      0x60\n        /* \"#utility.yul\":13246:13255   */\n      dup6\n        /* \"#utility.yul\":13242:13260   */\n      add\n        /* \"#utility.yul\":13229:13261   */\n      calldataload\n        /* \"#utility.yul\":13288:13306   */\n      0xffffffffffffffff\n        /* \"#utility.yul\":13280:13286   */\n      dup2\n        /* \"#utility.yul\":13277:13307   */\n      gt\n        /* \"#utility.yul\":13274:13391   */\n      iszero\n      tag_411\n      jumpi\n        /* \"#utility.yul\":13310:13389   */\n      tag_412\n      tag_222\n      jump\t// in\n    tag_412:\n        /* \"#utility.yul\":13274:13391   */\n    tag_411:\n        /* \"#utility.yul\":13415:13478   */\n      tag_413\n        /* \"#utility.yul\":13470:13477   */\n      dup8\n        /* \"#utility.yul\":13461:13467   */\n      dup3\n        /* \"#utility.yul\":13450:13459   */\n      dup9\n        /* \"#utility.yul\":13446:13468   */\n      add\n        /* \"#utility.yul\":13415:13478   */\n      tag_234\n      jump\t// in\n    tag_413:\n        /* \"#utility.yul\":13405:13478   */\n      swap2\n      pop\n        /* \"#utility.yul\":13200:13488   */\n      pop\n        /* \"#utility.yul\":12010:13495   */\n      swap3\n      swap6\n      swap2\n      swap5\n      pop\n      swap3\n      pop\n      jump\t// out\n        /* \"#utility.yul\":13501:13723   */\n    tag_32:\n        /* \"#utility.yul\":13594:13598   */\n      0x00\n        /* \"#utility.yul\":13632:13634   */\n      0x20\n        /* \"#utility.yul\":13621:13630   */\n      dup3\n        /* \"#utility.yul\":13617:13635   */\n      add\n        /* \"#utility.yul\":13609:13635   */\n      swap1\n      pop\n        /* \"#utility.yul\":13645:13716   */\n      tag_415\n        /* \"#utility.yul\":13713:13714   */\n      0x00\n        /* \"#utility.yul\":13702:13711   */\n      dup4\n        /* \"#utility.yul\":13698:13715   */\n      add\n        /* \"#utility.yul\":13689:13695   */\n      dup5\n        /* \"#utility.yul\":13645:13716   */\n      tag_238\n      jump\t// in\n    tag_415:\n        /* \"#utility.yul\":13501:13723   */\n      swap3\n      swap2\n      pop\n      pop\n      jump\t// out\n        /* \"#utility.yul\":13729:13951   */\n    tag_40:\n        /* \"#utility.yul\":13822:13826   */\n      0x00\n        /* \"#utility.yul\":13860:13862   */\n      0x20\n        /* \"#utility.yul\":13849:13858   */\n      dup3\n        /* \"#utility.yul\":13845:13863   */\n      add\n        /* \"#utility.yul\":13837:13863   */\n      swap1\n      pop\n        /* \"#utility.yul\":13873:13944   */\n      tag_417\n        /* \"#utility.yul\":13941:13942   */\n      0x00\n        /* \"#utility.yul\":13930:13939   */\n      dup4\n        /* \"#utility.yul\":13926:13943   */\n      add\n        /* \"#utility.yul\":13917:13923   */\n      dup5\n        /* \"#utility.yul\":13873:13944   */\n      tag_235\n      jump\t// in\n    tag_417:\n        /* \"#utility.yul\":13729:13951   */\n      swap3\n      swap2\n      pop\n      pop\n      jump\t// out\n        /* \"#utility.yul\":13957:14181   */\n    tag_254:\n        /* \"#utility.yul\":14097:14131   */\n      0x4163636f756e7420616e642050617373776f72642063616e6e6f742062652065\n        /* \"#utility.yul\":14093:14094   */\n      0x00\n        /* \"#utility.yul\":14085:14091   */\n      dup3\n        /* \"#utility.yul\":14081:14095   */\n      add\n        /* \"#utility.yul\":14074:14132   */\n      mstore\n        /* \"#utility.yul\":14166:14173   */\n      0x6d70747921000000000000000000000000000000000000000000000000000000\n        /* \"#utility.yul\":14161:14163   */\n      0x20\n        /* \"#utility.yul\":14153:14159   */\n      dup3\n        /* \"#utility.yul\":14149:14164   */\n      add\n        /* \"#utility.yul\":14142:14174   */\n      mstore\n        /* \"#utility.yul\":13957:14181   */\n      pop\n      jump\t// out\n        /* \"#utility.yul\":14187:14553   */\n    tag_255:\n        /* \"#utility.yul\":14329:14332   */\n      0x00\n        /* \"#utility.yul\":14350:14417   */\n      tag_420\n        /* \"#utility.yul\":14414:14416   */\n      0x25\n        /* \"#utility.yul\":14409:14412   */\n      dup4\n        /* \"#utility.yul\":14350:14417   */\n      tag_240\n      jump\t// in\n    tag_420:\n        /* \"#utility.yul\":14343:14417   */\n      swap2\n      pop\n        /* \"#utility.yul\":14426:14519   */\n      tag_421\n        /* \"#utility.yul\":14515:14518   */\n      dup3\n        /* \"#utility.yul\":14426:14519   */\n      tag_254\n      jump\t// in\n    tag_421:\n        /* \"#utility.yul\":14544:14546   */\n      0x40\n        /* \"#utility.yul\":14539:14542   */\n      dup3\n        /* \"#utility.yul\":14535:14547   */\n      add\n        /* \"#utility.yul\":14528:14547   */\n      swap1\n      pop\n        /* \"#utility.yul\":14187:14553   */\n      swap2\n      swap1\n      pop\n      jump\t// out\n        /* \"#utility.yul\":14559:14978   */\n    tag_48:\n        /* \"#utility.yul\":14725:14729   */\n      0x00\n        /* \"#utility.yul\":14763:14765   */\n      0x20\n        /* \"#utility.yul\":14752:14761   */\n      dup3\n        /* \"#utility.yul\":14748:14766   */\n      add\n        /* \"#utility.yul\":14740:14766   */\n      swap1\n      pop\n        /* \"#utility.yul\":14812:14821   */\n      dup2\n        /* \"#utility.yul\":14806:14810   */\n      dup2\n        /* \"#utility.yul\":14802:14822   */\n      sub\n        /* \"#utility.yul\":14798:14799   */\n      0x00\n        /* \"#utility.yul\":14787:14796   */\n      dup4\n        /* \"#utility.yul\":14783:14800   */\n      add\n        /* \"#utility.yul\":14776:14823   */\n      mstore\n        /* \"#utility.yul\":14840:14971   */\n      tag_423\n        /* \"#utility.yul\":14966:14970   */\n      dup2\n        /* \"#utility.yul\":14840:14971   */\n      tag_255\n      jump\t// in\n    tag_423:\n        /* \"#utility.yul\":14832:14971   */\n      swap1\n      pop\n        /* \"#utility.yul\":14559:14978   */\n      swap2\n      swap1\n      pop\n      jump\t// out\n        /* \"#utility.yul\":14984:15146   */\n    tag_256:\n        /* \"#utility.yul\":15124:15138   */\n      0x4b657949642057726f6e67210000000000000000000000000000000000000000\n        /* \"#utility.yul\":15120:15121   */\n      0x00\n        /* \"#utility.yul\":15112:15118   */\n      dup3\n        /* \"#utility.yul\":15108:15122   */\n      add\n        /* \"#utility.yul\":15101:15139   */\n      mstore\n        /* \"#utility.yul\":14984:15146   */\n      pop\n      jump\t// out\n        /* \"#utility.yul\":15152:15518   */\n    tag_257:\n        /* \"#utility.yul\":15294:15297   */\n      0x00\n        /* \"#utility.yul\":15315:15382   */\n      tag_426\n        /* \"#utility.yul\":15379:15381   */\n      0x0c\n        /* \"#utility.yul\":15374:15377   */\n      dup4\n        /* \"#utility.yul\":15315:15382   */\n      tag_240\n      jump\t// in\n    tag_426:\n        /* \"#utility.yul\":15308:15382   */\n      swap2\n      pop\n        /* \"#utility.yul\":15391:15484   */\n      tag_427\n        /* \"#utility.yul\":15480:15483   */\n      dup3\n        /* \"#utility.yul\":15391:15484   */\n      tag_256\n      jump\t// in\n    tag_427:\n        /* \"#utility.yul\":15509:15511   */\n      0x20\n        /* \"#utility.yul\":15504:15507   */\n      dup3\n        /* \"#utility.yul\":15500:15512   */\n      add\n        /* \"#utility.yul\":15493:15512   */\n      swap1\n      pop\n        /* \"#utility.yul\":15152:15518   */\n      swap2\n      swap1\n      pop\n      jump\t// out\n        /* \"#utility.yul\":15524:15943   */\n    tag_52:\n        /* \"#utility.yul\":15690:15694   */\n      0x00\n        /* \"#utility.yul\":15728:15730   */\n      0x20\n        /* \"#utility.yul\":15717:15726   */\n      dup3\n        /* \"#utility.yul\":15713:15731   */\n      add\n        /* \"#utility.yul\":15705:15731   */\n      swap1\n      pop\n        /* \"#utility.yul\":15777:15786   */\n      dup2\n        /* \"#utility.yul\":15771:15775   */\n      dup2\n        /* \"#utility.yul\":15767:15787   */\n      sub\n        /* \"#utility.yul\":15763:15764   */\n      0x00\n        /* \"#utility.yul\":15752:15761   */\n      dup4\n        /* \"#utility.yul\":15748:15765   */\n      add\n        /* \"#utility.yul\":15741:15788   */\n      mstore\n        /* \"#utility.yul\":15805:15936   */\n      tag_429\n        /* \"#utility.yul\":15931:15935   */\n      dup2\n        /* \"#utility.yul\":15805:15936   */\n      tag_257\n      jump\t// in\n    tag_429:\n        /* \"#utility.yul\":15797:15936   */\n      swap1\n      pop\n        /* \"#utility.yul\":15524:15943   */\n      swap2\n      swap1\n      pop\n      jump\t// out\n        /* \"#utility.yul\":15949:16124   */\n    tag_258:\n        /* \"#utility.yul\":16089:16116   */\n      0x4f6e6c79206f776e65722063616e2063616c6c20746869732100000000000000\n        /* \"#utility.yul\":16085:16086   */\n      0x00\n        /* \"#utility.yul\":16077:16083   */\n      dup3\n        /* \"#utility.yul\":16073:16087   */\n      add\n        /* \"#utility.yul\":16066:16117   */\n      mstore\n        /* \"#utility.yul\":15949:16124   */\n      pop\n      jump\t// out\n        /* \"#utility.yul\":16130:16496   */\n    tag_259:\n        /* \"#utility.yul\":16272:16275   */\n      0x00\n        /* \"#utility.yul\":16293:16360   */\n      tag_432\n        /* \"#utility.yul\":16357:16359   */\n      0x19\n        /* \"#utility.yul\":16352:16355   */\n      dup4\n        /* \"#utility.yul\":16293:16360   */\n      tag_240\n      jump\t// in\n    tag_432:\n        /* \"#utility.yul\":16286:16360   */\n      swap2\n      pop\n        /* \"#utility.yul\":16369:16462   */\n      tag_433\n        /* \"#utility.yul\":16458:16461   */\n      dup3\n        /* \"#utility.yul\":16369:16462   */\n      tag_258\n      jump\t// in\n    tag_433:\n        /* \"#utility.yul\":16487:16489   */\n      0x20\n        /* \"#utility.yul\":16482:16485   */\n      dup3\n        /* \"#utility.yul\":16478:16490   */\n      add\n        /* \"#utility.yul\":16471:16490   */\n      swap1\n      pop\n        /* \"#utility.yul\":16130:16496   */\n      swap2\n      swap1\n      pop\n      jump\t// out\n        /* \"#utility.yul\":16502:16921   */\n    tag_56:\n        /* \"#utility.yul\":16668:16672   */\n      0x00\n        /* \"#utility.yul\":16706:16708   */\n      0x20\n        /* \"#utility.yul\":16695:16704   */\n      dup3\n        /* \"#utility.yul\":16691:16709   */\n      add\n        /* \"#utility.yul\":16683:16709   */\n      swap1\n      pop\n        /* \"#utility.yul\":16755:16764   */\n      dup2\n        /* \"#utility.yul\":16749:16753   */\n      dup2\n        /* \"#utility.yul\":16745:16765   */\n      sub\n        /* \"#utility.yul\":16741:16742   */\n      0x00\n        /* \"#utility.yul\":16730:16739   */\n      dup4\n        /* \"#utility.yul\":16726:16743   */\n      add\n        /* \"#utility.yul\":16719:16766   */\n      mstore\n        /* \"#utility.yul\":16783:16914   */\n      tag_435\n        /* \"#utility.yul\":16909:16913   */\n      dup2\n        /* \"#utility.yul\":16783:16914   */\n      tag_259\n      jump\t// in\n    tag_435:\n        /* \"#utility.yul\":16775:16914   */\n      swap1\n      pop\n        /* \"#utility.yul\":16502:16921   */\n      swap2\n      swap1\n      pop\n      jump\t// out\n        /* \"#utility.yul\":16927:17107   */\n    tag_260:\n        /* \"#utility.yul\":16975:17052   */\n      0x4e487b7100000000000000000000000000000000000000000000000000000000\n        /* \"#utility.yul\":16972:16973   */\n      0x00\n        /* \"#utility.yul\":16965:17053   */\n      mstore\n        /* \"#utility.yul\":17072:17076   */\n      0x22\n        /* \"#utility.yul\":17069:17070   */\n      0x04\n        /* \"#utility.yul\":17062:17077   */\n      mstore\n        /* \"#utility.yul\":17096:17100   */\n      0x24\n        /* \"#utility.yul\":17093:17094   */\n      0x00\n        /* \"#utility.yul\":17086:17101   */\n      revert\n        /* \"#utility.yul\":17113:17433   */\n    tag_79:\n        /* \"#utility.yul\":17157:17163   */\n      0x00\n        /* \"#utility.yul\":17194:17195   */\n      0x02\n        /* \"#utility.yul\":17188:17192   */\n      dup3\n        /* \"#utility.yul\":17184:17196   */\n      div\n        /* \"#utility.yul\":17174:17196   */\n      swap1\n      pop\n        /* \"#utility.yul\":17241:17242   */\n      0x01\n        /* \"#utility.yul\":17235:17239   */\n      dup3\n        /* \"#utility.yul\":17231:17243   */\n      and\n        /* \"#utility.yul\":17262:17280   */\n      dup1\n        /* \"#utility.yul\":17252:17333   */\n      tag_438\n      jumpi\n        /* \"#utility.yul\":17318:17322   */\n      0x7f\n        /* \"#utility.yul\":17310:17316   */\n      dup3\n        /* \"#utility.yul\":17306:17323   */\n      and\n        /* \"#utility.yul\":17296:17323   */\n      swap2\n      pop\n        /* \"#utility.yul\":17252:17333   */\n    tag_438:\n        /* \"#utility.yul\":17380:17382   */\n      0x20\n        /* \"#utility.yul\":17372:17378   */\n      dup3\n        /* \"#utility.yul\":17369:17383   */\n      lt\n        /* \"#utility.yul\":17349:17367   */\n      dup2\n        /* \"#utility.yul\":17346:17384   */\n      sub\n        /* \"#utility.yul\":17343:17427   */\n      tag_439\n      jumpi\n        /* \"#utility.yul\":17399:17417   */\n      tag_440\n      tag_260\n      jump\t// in\n    tag_440:\n        /* \"#utility.yul\":17343:17427   */\n    tag_439:\n        /* \"#utility.yul\":17164:17433   */\n      pop\n        /* \"#utility.yul\":17113:17433   */\n      swap2\n      swap1\n      pop\n      jump\t// out\n        /* \"#utility.yul\":17439:17580   */\n    tag_261:\n        /* \"#utility.yul\":17488:17492   */\n      0x00\n        /* \"#utility.yul\":17511:17514   */\n      dup2\n        /* \"#utility.yul\":17503:17514   */\n      swap1\n      pop\n        /* \"#utility.yul\":17534:17537   */\n      dup2\n        /* \"#utility.yul\":17531:17532   */\n      0x00\n        /* \"#utility.yul\":17524:17538   */\n      mstore\n        /* \"#utility.yul\":17568:17572   */\n      0x20\n        /* \"#utility.yul\":17565:17566   */\n      0x00\n        /* \"#utility.yul\":17555:17573   */\n      keccak256\n        /* \"#utility.yul\":17547:17573   */\n      swap1\n      pop\n        /* \"#utility.yul\":17439:17580   */\n      swap2\n      swap1\n      pop\n      jump\t// out\n        /* \"#utility.yul\":17586:17679   */\n    tag_262:\n        /* \"#utility.yul\":17623:17629   */\n      0x00\n        /* \"#utility.yul\":17670:17672   */\n      0x20\n        /* \"#utility.yul\":17665:17667   */\n      0x1f\n        /* \"#utility.yul\":17658:17663   */\n      dup4\n        /* \"#utility.yul\":17654:17668   */\n      add\n        /* \"#utility.yul\":17650:17673   */\n      div\n        /* \"#utility.yul\":17640:17673   */\n      swap1\n      pop\n        /* \"#utility.yul\":17586:17679   */\n      swap2\n      swap1\n      pop\n      jump\t// out\n        /* \"#utility.yul\":17685:17792   */\n    tag_263:\n        /* \"#utility.yul\":17729:17737   */\n      0x00\n        /* \"#utility.yul\":17779:17784   */\n      dup3\n        /* \"#utility.yul\":17773:17777   */\n      dup3\n        /* \"#utility.yul\":17769:17785   */\n      shl\n        /* \"#utility.yul\":17748:17785   */\n      swap1\n      pop\n        /* \"#utility.yul\":17685:17792   */\n      swap3\n      swap2\n      pop\n      pop\n      jump\t// out\n        /* \"#utility.yul\":17798:18191   */\n    tag_264:\n        /* \"#utility.yul\":17867:17873   */\n      0x00\n        /* \"#utility.yul\":17917:17918   */\n      0x08\n        /* \"#utility.yul\":17905:17915   */\n      dup4\n        /* \"#utility.yul\":17901:17919   */\n      mul\n        /* \"#utility.yul\":17940:18037   */\n      tag_445\n        /* \"#utility.yul\":17970:18036   */\n      0xffffffffffffffffffffffffffffffffffffffffffffffffffffffffffffffff\n        /* \"#utility.yul\":17959:17968   */\n      dup3\n        /* \"#utility.yul\":17940:18037   */\n      tag_263\n      jump\t// in\n    tag_445:\n        /* \"#utility.yul\":18058:18097   */\n      tag_446\n        /* \"#utility.yul\":18088:18096   */\n      dup7\n        /* \"#utility.yul\":18077:18086   */\n      dup4\n        /* \"#utility.yul\":18058:18097   */\n      tag_263\n      jump\t// in\n    tag_446:\n        /* \"#utility.yul\":18046:18097   */\n      swap6\n      pop\n        /* \"#utility.yul\":18130:18134   */\n      dup1\n        /* \"#utility.yul\":18126:18135   */\n      not\n        /* \"#utility.yul\":18119:18124   */\n      dup5\n        /* \"#utility.yul\":18115:18136   */\n      and\n        /* \"#utility.yul\":18106:18136   */\n      swap4\n      pop\n        /* \"#utility.yul\":18179:18183   */\n      dup1\n        /* \"#utility.yul\":18169:18177   */\n      dup7\n        /* \"#utility.yul\":18165:18184   */\n      and\n        /* \"#utility.yul\":18158:18163   */\n      dup5\n        /* \"#utility.yul\":18155:18185   */\n      or\n        /* \"#utility.yul\":18145:18185   */\n      swap3\n      pop\n        /* \"#utility.yul\":17874:18191   */\n      pop\n      pop\n        /* \"#utility.yul\":17798:18191   */\n      swap4\n      swap3\n      pop\n      pop\n      pop\n      jump\t// out\n        /* \"#utility.yul\":18197:18257   */\n    tag_265:\n        /* \"#utility.yul\":18225:18228   */\n      0x00\n        /* \"#utility.yul\":18246:18251   */\n      dup2\n        /* \"#utility.yul\":18239:18251   */\n      swap1\n      pop\n        /* \"#utility.yul\":18197:18257   */\n      swap2\n      swap1\n      pop\n      jump\t// out\n        /* \"#utility.yul\":18263:18405   */\n    tag_266:\n        /* \"#utility.yul\":18313:18322   */\n      0x00\n        /* \"#utility.yul\":18346:18399   */\n      tag_449\n        /* \"#utility.yul\":18364:18398   */\n      tag_450\n        /* \"#utility.yul\":18373:18397   */\n      tag_451\n        /* \"#utility.yul\":18391:18396   */\n      dup5\n        /* \"#utility.yul\":18373:18397   */\n      tag_223\n      jump\t// in\n    tag_451:\n        /* \"#utility.yul\":18364:18398   */\n      tag_265\n      jump\t// in\n    tag_450:\n        /* \"#utility.yul\":18346:18399   */\n      tag_223\n      jump\t// in\n    tag_449:\n        /* \"#utility.yul\":18333:18399   */\n      swap1\n      pop\n        /* \"#utility.yul\":18263:18405   */\n      swap2\n      swap1\n      pop\n      jump\t// out\n        /* \"#utility.yul\":18411:18486   */\n    tag_267:\n        /* \"#utility.yul\":18454:18457   */\n      0x00\n        /* \"#utility.yul\":18475:18480   */\n      dup2\n        /* \"#utility.yul\":18468:18480   */\n      swap1\n      pop\n        /* \"#utility.yul\":18411:18486   */\n      swap2\n      swap1\n      pop\n      jump\t// out\n        /* \"#utility.yul\":18492:18761   */\n    tag_268:\n        /* \"#utility.yul\":18602:18641   */\n      tag_454\n        /* \"#utility.yul\":18633:18640   */\n      dup4\n        /* \"#utility.yul\":18602:18641   */\n      tag_266\n      jump\t// in\n    tag_454:\n        /* \"#utility.yul\":18663:18754   */\n      tag_455\n        /* \"#utility.yul\":18712:18753   */\n      tag_456\n        /* \"#utility.yul\":18736:18752   */\n      dup3\n        /* \"#utility.yul\":18712:18753   */\n      tag_267\n      jump\t// in\n    tag_456:\n        /* \"#utility.yul\":18704:18710   */\n      dup5\n        /* \"#utility.yul\":18697:18701   */\n      dup5\n        /* \"#utility.yul\":18691:18702   */\n      sload\n        /* \"#utility.yul\":18663:18754   */\n      tag_264\n      jump\t// in\n    tag_455:\n        /* \"#utility.yul\":18657:18661   */\n      dup3\n        /* \"#utility.yul\":18650:18755   */\n      sstore\n        /* \"#utility.yul\":18568:18761   */\n      pop\n        /* \"#utility.yul\":18492:18761   */\n      pop\n      pop\n      pop\n      jump\t// out\n        /* \"#utility.yul\":18767:18840   */\n    tag_269:\n        /* \"#utility.yul\":18812:18815   */\n      0x00\n        /* \"#utility.yul\":18767:18840   */\n      swap1\n      jump\t// out\n        /* \"#utility.yul\":18846:19035   */\n    tag_270:\n        /* \"#utility.yul\":18923:18955   */\n      tag_459\n      tag_269\n      jump\t// in\n    tag_459:\n        /* \"#utility.yul\":18964:19029   */\n      tag_460\n        /* \"#utility.yul\":19022:19028   */\n      dup2\n        /* \"#utility.yul\":19014:19020   */\n      dup5\n        /* \"#utility.yul\":19008:19012   */\n      dup5\n        /* \"#utility.yul\":18964:19029   */\n      tag_268\n      jump\t// in\n    tag_460:\n        /* \"#utility.yul\":18899:19035   */\n      pop\n        /* \"#utility.yul\":18846:19035   */\n      pop\n      pop\n      jump\t// out\n        /* \"#utility.yul\":19041:19227   */\n    tag_271:\n        /* \"#utility.yul\":19101:19221   */\n    tag_462:\n        /* \"#utility.yul\":19118:19121   */\n      dup2\n        /* \"#utility.yul\":19111:19116   */\n      dup2\n        /* \"#utility.yul\":19108:19122   */\n      lt\n        /* \"#utility.yul\":19101:19221   */\n      iszero\n      tag_464\n      jumpi\n        /* \"#utility.yul\":19172:19211   */\n      tag_465\n        /* \"#utility.yul\":19209:19210   */\n      0x00\n        /* \"#utility.yul\":19202:19207   */\n      dup3\n        /* \"#utility.yul\":19172:19211   */\n      tag_270\n      jump\t// in\n    tag_465:\n        /* \"#utility.yul\":19145:19146   */\n      0x01\n        /* \"#utility.yul\":19138:19143   */\n      dup2\n        /* \"#utility.yul\":19134:19147   */\n      add\n        /* \"#utility.yul\":19125:19147   */\n      swap1\n      pop\n        /* \"#utility.yul\":19101:19221   */\n      jump(tag_462)\n    tag_464:\n        /* \"#utility.yul\":19041:19227   */\n      pop\n      pop\n      jump\t// out\n        /* \"#utility.yul\":19233:19776   */\n    tag_272:\n        /* \"#utility.yul\":19334:19336   */\n      0x1f\n        /* \"#utility.yul\":19329:19332   */\n      dup3\n        /* \"#utility.yul\":19326:19337   */\n      gt\n        /* \"#utility.yul\":19323:19769   */\n      iszero\n      tag_467\n      jumpi\n        /* \"#utility.yul\":19368:19406   */\n      tag_468\n        /* \"#utility.yul\":19400:19405   */\n      dup2\n        /* \"#utility.yul\":19368:19406   */\n      tag_261\n      jump\t// in\n    tag_468:\n        /* \"#utility.yul\":19452:19481   */\n      tag_469\n        /* \"#utility.yul\":19470:19480   */\n      dup5\n        /* \"#utility.yul\":19452:19481   */\n      tag_262\n      jump\t// in\n    tag_469:\n        /* \"#utility.yul\":19442:19450   */\n      dup2\n        /* \"#utility.yul\":19438:19482   */\n      add\n        /* \"#utility.yul\":19635:19637   */\n      0x20\n        /* \"#utility.yul\":19623:19633   */\n      dup6\n        /* \"#utility.yul\":19620:19638   */\n      lt\n        /* \"#utility.yul\":19617:19666   */\n      iszero\n      tag_470\n      jumpi\n        /* \"#utility.yul\":19656:19664   */\n      dup2\n        /* \"#utility.yul\":19641:19664   */\n      swap1\n      pop\n        /* \"#utility.yul\":19617:19666   */\n    tag_470:\n        /* \"#utility.yul\":19679:19759   */\n      tag_471\n        /* \"#utility.yul\":19735:19757   */\n      tag_472\n        /* \"#utility.yul\":19753:19756   */\n      dup6\n        /* \"#utility.yul\":19735:19757   */\n      tag_262\n      jump\t// in\n    tag_472:\n        /* \"#utility.yul\":19725:19733   */\n      dup4\n        /* \"#utility.yul\":19721:19758   */\n      add\n        /* \"#utility.yul\":19708:19719   */\n      dup3\n        /* \"#utility.yul\":19679:19759   */\n      tag_271\n      jump\t// in\n    tag_471:\n        /* \"#utility.yul\":19338:19769   */\n      pop\n      pop\n        /* \"#utility.yul\":19323:19769   */\n    tag_467:\n        /* \"#utility.yul\":19233:19776   */\n      pop\n      pop\n      pop\n      jump\t// out\n        /* \"#utility.yul\":19782:19899   */\n    tag_273:\n        /* \"#utility.yul\":19836:19844   */\n      0x00\n        /* \"#utility.yul\":19886:19891   */\n      dup3\n        /* \"#utility.yul\":19880:19884   */\n      dup3\n        /* \"#utility.yul\":19876:19892   */\n      shr\n        /* \"#utility.yul\":19855:19892   */\n      swap1\n      pop\n        /* \"#utility.yul\":19782:19899   */\n      swap3\n      swap2\n      pop\n      pop\n      jump\t// out\n        /* \"#utility.yul\":19905:20074   */\n    tag_274:\n        /* \"#utility.yul\":19949:19955   */\n      0x00\n        /* \"#utility.yul\":19982:20033   */\n      tag_475\n        /* \"#utility.yul\":20030:20031   */\n      0x00\n        /* \"#utility.yul\":20026:20032   */\n      not\n        /* \"#utility.yul\":20018:20023   */\n      dup5\n        /* \"#utility.yul\":20015:20016   */\n      0x08\n        /* \"#utility.yul\":20011:20024   */\n      mul\n        /* \"#utility.yul\":19982:20033   */\n      tag_273\n      jump\t// in\n    tag_475:\n        /* \"#utility.yul\":19978:20034   */\n      not\n        /* \"#utility.yul\":20063:20067   */\n      dup1\n        /* \"#utility.yul\":20057:20061   */\n      dup4\n        /* \"#utility.yul\":20053:20068   */\n      and\n        /* \"#utility.yul\":20043:20068   */\n      swap2\n      pop\n        /* \"#utility.yul\":19956:20074   */\n      pop\n        /* \"#utility.yul\":19905:20074   */\n      swap3\n      swap2\n      pop\n      pop\n      jump\t// out\n        /* \"#utility.yul\":20079:20374   */\n    tag_275:\n        /* \"#utility.yul\":20155:20159   */\n      0x00\n        /* \"#utility.yul\":20301:20330   */\n      tag_477\n        /* \"#utility.yul\":20326:20329   */\n      dup4\n        /* \"#utility.yul\":20320:20324   */\n      dup4\n        /* \"#utility.yul\":20301:20330   */\n      tag_274\n      jump\t// in\n    tag_477:\n        /* \"#utility.yul\":20293:20330   */\n      swap2\n      pop\n        /* \"#utility.yul\":20363:20366   */\n      dup3\n        /* \"#utility.yul\":20360:20361   */\n      0x02\n        /* \"#utility.yul\":20356:20367   */\n      mul\n        /* \"#utility.yul\":20350:20354   */\n      dup3\n        /* \"#utility.yul\":20347:20368   */\n      or\n        /* \"#utility.yul\":20339:20368   */\n      swap1\n      pop\n        /* \"#utility.yul\":20079:20374   */\n      swap3\n      swap2\n      pop\n      pop\n      jump\t// out\n        /* \"#utility.yul\":20379:21774   */\n    tag_58:\n        /* \"#utility.yul\":20496:20533   */\n      tag_479\n        /* \"#utility.yul\":20529:20532   */\n      dup3\n        /* \"#utility.yul\":20496:20533   */\n      tag_239\n      jump\t// in\n    tag_479:\n        /* \"#utility.yul\":20598:20616   */\n      0xffffffffffffffff\n        /* \"#utility.yul\":20590:20596   */\n      dup2\n        /* \"#utility.yul\":20587:20617   */\n      gt\n        /* \"#utility.yul\":20584:20640   */\n      iszero\n      tag_480\n      jumpi\n        /* \"#utility.yul\":20620:20638   */\n      tag_481\n      tag_102\n      jump\t// in\n    tag_481:\n        /* \"#utility.yul\":20584:20640   */\n    tag_480:\n        /* \"#utility.yul\":20664:20702   */\n      tag_482\n        /* \"#utility.yul\":20696:20700   */\n      dup3\n        /* \"#utility.yul\":20690:20701   */\n      sload\n        /* \"#utility.yul\":20664:20702   */\n      tag_79\n      jump\t// in\n    tag_482:\n        /* \"#utility.yul\":20749:20816   */\n      tag_483\n        /* \"#utility.yul\":20809:20815   */\n      dup3\n        /* \"#utility.yul\":20801:20807   */\n      dup3\n        /* \"#utility.yul\":20795:20799   */\n      dup6\n        /* \"#utility.yul\":20749:20816   */\n      tag_272\n      jump\t// in\n    tag_483:\n        /* \"#utility.yul\":20843:20844   */\n      0x00\n        /* \"#utility.yul\":20867:20871   */\n      0x20\n        /* \"#utility.yul\":20854:20871   */\n      swap1\n      pop\n        /* \"#utility.yul\":20899:20901   */\n      0x1f\n        /* \"#utility.yul\":20891:20897   */\n      dup4\n        /* \"#utility.yul\":20888:20902   */\n      gt\n        /* \"#utility.yul\":20916:20917   */\n      0x01\n        /* \"#utility.yul\":20911:21529   */\n      dup2\n      eq\n      tag_485\n      jumpi\n        /* \"#utility.yul\":21573:21574   */\n      0x00\n        /* \"#utility.yul\":21590:21596   */\n      dup5\n        /* \"#utility.yul\":21587:21664   */\n      iszero\n      tag_486\n      jumpi\n        /* \"#utility.yul\":21639:21648   */\n      dup3\n        /* \"#utility.yul\":21634:21637   */\n      dup8\n        /* \"#utility.yul\":21630:21649   */\n      add\n        /* \"#utility.yul\":21624:21650   */\n      mload\n        /* \"#utility.yul\":21615:21650   */\n      swap1\n      pop\n        /* \"#utility.yul\":21587:21664   */\n    tag_486:\n        /* \"#utility.yul\":21690:21757   */\n      tag_487\n        /* \"#utility.yul\":21750:21756   */\n      dup6\n        /* \"#utility.yul\":21743:21748   */\n      dup3\n        /* \"#utility.yul\":21690:21757   */\n      tag_275\n      jump\t// in\n    tag_487:\n        /* \"#utility.yul\":21684:21688   */\n      dup7\n        /* \"#utility.yul\":21677:21758   */\n      sstore\n        /* \"#utility.yul\":21546:21768   */\n      pop\n        /* \"#utility.yul\":20881:21768   */\n      jump(tag_484)\n        /* \"#utility.yul\":20911:21529   */\n    tag_485:\n        /* \"#utility.yul\":20963:20967   */\n      0x1f\n        /* \"#utility.yul\":20959:20968   */\n      not\n        /* \"#utility.yul\":20951:20957   */\n      dup5\n        /* \"#utility.yul\":20947:20969   */\n      and\n        /* \"#utility.yul\":20997:21034   */\n      tag_488\n        /* \"#utility.yul\":21029:21033   */\n      dup7\n        /* \"#utility.yul\":20997:21034   */\n      tag_261\n      jump\t// in\n    tag_488:\n        /* \"#utility.yul\":21056:21057   */\n      0x00\n        /* \"#utility.yul\":21070:21278   */\n    tag_489:\n        /* \"#utility.yul\":21084:21091   */\n      dup3\n        /* \"#utility.yul\":21081:21082   */\n      dup2\n        /* \"#utility.yul\":21078:21092   */\n      lt\n        /* \"#utility.yul\":21070:21278   */\n      iszero\n      tag_491\n      jumpi\n        /* \"#utility.yul\":21163:21172   */\n      dup5\n        /* \"#utility.yul\":21158:21161   */\n      dup10\n        /* \"#utility.yul\":21154:21173   */\n      add\n        /* \"#utility.yul\":21148:21174   */\n      mload\n        /* \"#utility.yul\":21140:21146   */\n      dup3\n        /* \"#utility.yul\":21133:21175   */\n      sstore\n        /* \"#utility.yul\":21214:21215   */\n      0x01\n        /* \"#utility.yul\":21206:21212   */\n      dup3\n        /* \"#utility.yul\":21202:21216   */\n      add\n        /* \"#utility.yul\":21192:21216   */\n      swap2\n      pop\n        /* \"#utility.yul\":21261:21263   */\n      0x20\n        /* \"#utility.yul\":21250:21259   */\n      dup6\n        /* \"#utility.yul\":21246:21264   */\n      add\n        /* \"#utility.yul\":21233:21264   */\n      swap5\n      pop\n        /* \"#utility.yul\":21107:21111   */\n      0x20\n        /* \"#utility.yul\":21104:21105   */\n      dup2\n        /* \"#utility.yul\":21100:21112   */\n      add\n        /* \"#utility.yul\":21095:21112   */\n      swap1\n      pop\n        /* \"#utility.yul\":21070:21278   */\n      jump(tag_489)\n    tag_491:\n        /* \"#utility.yul\":21306:21312   */\n      dup7\n        /* \"#utility.yul\":21297:21304   */\n      dup4\n        /* \"#utility.yul\":21294:21313   */\n      lt\n        /* \"#utility.yul\":21291:21470   */\n      iszero\n      tag_492\n      jumpi\n        /* \"#utility.yul\":21364:21373   */\n      dup5\n        /* \"#utility.yul\":21359:21362   */\n      dup10\n        /* \"#utility.yul\":21355:21374   */\n      add\n        /* \"#utility.yul\":21349:21375   */\n      mload\n        /* \"#utility.yul\":21407:21455   */\n      tag_493\n        /* \"#utility.yul\":21449:21453   */\n      0x1f\n        /* \"#utility.yul\":21441:21447   */\n      dup10\n        /* \"#utility.yul\":21437:21454   */\n      and\n        /* \"#utility.yul\":21426:21435   */\n      dup3\n        /* \"#utility.yul\":21407:21455   */\n      tag_274\n      jump\t// in\n    tag_493:\n        /* \"#utility.yul\":21399:21405   */\n      dup4\n        /* \"#utility.yul\":21392:21456   */\n      sstore\n        /* \"#utility.yul\":21314:21470   */\n      pop\n        /* \"#utility.yul\":21291:21470   */\n    tag_492:\n        /* \"#utility.yul\":21516:21517   */\n      0x01\n        /* \"#utility.yul\":21512:21513   */\n      0x02\n        /* \"#utility.yul\":21504:21510   */\n      dup9\n        /* \"#utility.yul\":21500:21514   */\n      mul\n        /* \"#utility.yul\":21496:21518   */\n      add\n        /* \"#utility.yul\":21490:21494   */\n      dup9\n        /* \"#utility.yul\":21483:21519   */\n      sstore\n        /* \"#utility.yul\":20918:21529   */\n      pop\n      pop\n      pop\n        /* \"#utility.yul\":20881:21768   */\n    tag_484:\n      pop\n        /* \"#utility.yul\":20471:21774   */\n      pop\n      pop\n      pop\n        /* \"#utility.yul\":20379:21774   */\n      pop\n      pop\n      jump\t// out\n        /* \"#utility.yul\":21780:21929   */\n    tag_276:\n        /* \"#utility.yul\":21829:21835   */\n      0x00\n        /* \"#utility.yul\":21863:21868   */\n      dup2\n        /* \"#utility.yul\":21857:21869   */\n      sload\n        /* \"#utility.yul\":21847:21869   */\n      swap1\n      pop\n        /* \"#utility.yul\":21889:21922   */\n      tag_495\n        /* \"#utility.yul\":21915:21921   */\n      dup2\n        /* \"#utility.yul\":21889:21922   */\n      tag_79\n      jump\t// in\n    tag_495:\n        /* \"#utility.yul\":21879:21922   */\n      swap1\n      pop\n        /* \"#utility.yul\":21780:21929   */\n      swap2\n      swap1\n      pop\n      jump\t// out\n        /* \"#utility.yul\":21935:23386   */\n    tag_62:\n        /* \"#utility.yul\":22046:22049   */\n      dup2\n        /* \"#utility.yul\":22040:22044   */\n      dup2\n        /* \"#utility.yul\":22037:22050   */\n      sub\n        /* \"#utility.yul\":22034:22060   */\n      tag_497\n      jumpi\n        /* \"#utility.yul\":22053:22058   */\n      pop\n      pop\n      jump(tag_496)\n        /* \"#utility.yul\":22034:22060   */\n    tag_497:\n        /* \"#utility.yul\":22084:22118   */\n      tag_498\n        /* \"#utility.yul\":22114:22117   */\n      dup3\n        /* \"#utility.yul\":22084:22118   */\n      tag_276\n      jump\t// in\n    tag_498:\n        /* \"#utility.yul\":22183:22201   */\n      0xffffffffffffffff\n        /* \"#utility.yul\":22175:22181   */\n      dup2\n        /* \"#utility.yul\":22172:22202   */\n      gt\n        /* \"#utility.yul\":22169:22225   */\n      iszero\n      tag_499\n      jumpi\n        /* \"#utility.yul\":22205:22223   */\n      tag_500\n      tag_102\n      jump\t// in\n    tag_500:\n        /* \"#utility.yul\":22169:22225   */\n    tag_499:\n        /* \"#utility.yul\":22249:22287   */\n      tag_501\n        /* \"#utility.yul\":22281:22285   */\n      dup3\n        /* \"#utility.yul\":22275:22286   */\n      sload\n        /* \"#utility.yul\":22249:22287   */\n      tag_79\n      jump\t// in\n    tag_501:\n        /* \"#utility.yul\":22334:22401   */\n      tag_502\n        /* \"#utility.yul\":22394:22400   */\n      dup3\n        /* \"#utility.yul\":22386:22392   */\n      dup3\n        /* \"#utility.yul\":22380:22384   */\n      dup6\n        /* \"#utility.yul\":22334:22401   */\n      tag_272\n      jump\t// in\n    tag_502:\n        /* \"#utility.yul\":22428:22429   */\n      0x00\n        /* \"#utility.yul\":22457:22459   */\n      0x1f\n        /* \"#utility.yul\":22449:22455   */\n      dup4\n        /* \"#utility.yul\":22446:22460   */\n      gt\n        /* \"#utility.yul\":22474:22475   */\n      0x01\n        /* \"#utility.yul\":22469:23141   */\n      dup2\n      eq\n      tag_504\n      jumpi\n        /* \"#utility.yul\":23185:23186   */\n      0x00\n        /* \"#utility.yul\":23202:23208   */\n      dup5\n        /* \"#utility.yul\":23199:23276   */\n      iszero\n      tag_505\n      jumpi\n        /* \"#utility.yul\":23251:23260   */\n      dup3\n        /* \"#utility.yul\":23246:23249   */\n      dup8\n        /* \"#utility.yul\":23242:23261   */\n      add\n        /* \"#utility.yul\":23236:23262   */\n      sload\n        /* \"#utility.yul\":23227:23262   */\n      swap1\n      pop\n        /* \"#utility.yul\":23199:23276   */\n    tag_505:\n        /* \"#utility.yul\":23302:23369   */\n      tag_506\n        /* \"#utility.yul\":23362:23368   */\n      dup6\n        /* \"#utility.yul\":23355:23360   */\n      dup3\n        /* \"#utility.yul\":23302:23369   */\n      tag_275\n      jump\t// in\n    tag_506:\n        /* \"#utility.yul\":23296:23300   */\n      dup7\n        /* \"#utility.yul\":23289:23370   */\n      sstore\n        /* \"#utility.yul\":23158:23380   */\n      pop\n        /* \"#utility.yul\":22439:23380   */\n      jump(tag_503)\n        /* \"#utility.yul\":22469:23141   */\n    tag_504:\n        /* \"#utility.yul\":22521:22525   */\n      0x1f\n        /* \"#utility.yul\":22517:22526   */\n      not\n        /* \"#utility.yul\":22509:22515   */\n      dup5\n        /* \"#utility.yul\":22505:22527   */\n      and\n        /* \"#utility.yul\":22547:22583   */\n      tag_507\n        /* \"#utility.yul\":22579:22582   */\n      dup8\n        /* \"#utility.yul\":22547:22583   */\n      tag_261\n      jump\t// in\n    tag_507:\n        /* \"#utility.yul\":22540:22583   */\n      swap7\n      pop\n        /* \"#utility.yul\":22610:22647   */\n      tag_508\n        /* \"#utility.yul\":22642:22646   */\n      dup7\n        /* \"#utility.yul\":22610:22647   */\n      tag_261\n      jump\t// in\n    tag_508:\n        /* \"#utility.yul\":22669:22670   */\n      0x00\n        /* \"#utility.yul\":22683:22890   */\n    tag_509:\n        /* \"#utility.yul\":22697:22704   */\n      dup3\n        /* \"#utility.yul\":22694:22695   */\n      dup2\n        /* \"#utility.yul\":22691:22705   */\n      lt\n        /* \"#utility.yul\":22683:22890   */\n      iszero\n      tag_511\n      jumpi\n        /* \"#utility.yul\":22776:22785   */\n      dup5\n        /* \"#utility.yul\":22771:22774   */\n      dup10\n        /* \"#utility.yul\":22767:22786   */\n      add\n        /* \"#utility.yul\":22761:22787   */\n      sload\n        /* \"#utility.yul\":22753:22759   */\n      dup3\n        /* \"#utility.yul\":22746:22788   */\n      sstore\n        /* \"#utility.yul\":22827:22828   */\n      0x01\n        /* \"#utility.yul\":22819:22825   */\n      dup3\n        /* \"#utility.yul\":22815:22829   */\n      add\n        /* \"#utility.yul\":22805:22829   */\n      swap2\n      pop\n        /* \"#utility.yul\":22874:22875   */\n      0x01\n        /* \"#utility.yul\":22863:22872   */\n      dup6\n        /* \"#utility.yul\":22859:22876   */\n      add\n        /* \"#utility.yul\":22846:22876   */\n      swap5\n      pop\n        /* \"#utility.yul\":22720:22724   */\n      0x20\n        /* \"#utility.yul\":22717:22718   */\n      dup2\n        /* \"#utility.yul\":22713:22725   */\n      add\n        /* \"#utility.yul\":22708:22725   */\n      swap1\n      pop\n        /* \"#utility.yul\":22683:22890   */\n      jump(tag_509)\n    tag_511:\n        /* \"#utility.yul\":22918:22924   */\n      dup7\n        /* \"#utility.yul\":22909:22916   */\n      dup4\n        /* \"#utility.yul\":22906:22925   */\n      lt\n        /* \"#utility.yul\":22903:23082   */\n      iszero\n      tag_512\n      jumpi\n        /* \"#utility.yul\":22976:22985   */\n      dup5\n        /* \"#utility.yul\":22971:22974   */\n      dup10\n        /* \"#utility.yul\":22967:22986   */\n      add\n        /* \"#utility.yul\":22961:22987   */\n      sload\n        /* \"#utility.yul\":23019:23067   */\n      tag_513\n        /* \"#utility.yul\":23061:23065   */\n      0x1f\n        /* \"#utility.yul\":23053:23059   */\n      dup10\n        /* \"#utility.yul\":23049:23066   */\n      and\n        /* \"#utility.yul\":23038:23047   */\n      dup3\n        /* \"#utility.yul\":23019:23067   */\n      tag_274\n      jump\t// in\n    tag_513:\n        /* \"#utility.yul\":23011:23017   */\n      dup4\n        /* \"#utility.yul\":23004:23068   */\n      sstore\n        /* \"#utility.yul\":22926:23082   */\n      pop\n        /* \"#utility.yul\":22903:23082   */\n    tag_512:\n        /* \"#utility.yul\":23128:23129   */\n      0x01\n        /* \"#utility.yul\":23124:23125   */\n      0x02\n        /* \"#utility.yul\":23116:23122   */\n      dup9\n        /* \"#utility.yul\":23112:23126   */\n      mul\n        /* \"#utility.yul\":23108:23130   */\n      add\n        /* \"#utility.yul\":23102:23106   */\n      dup9\n        /* \"#utility.yul\":23095:23131   */\n      sstore\n        /* \"#utility.yul\":22476:23141   */\n      pop\n      pop\n      pop\n        /* \"#utility.yul\":22439:23380   */\n    tag_503:\n      pop\n        /* \"#utility.yul\":22024:23386   */\n      pop\n      pop\n      pop\n        /* \"#utility.yul\":21935:23386   */\n      pop\n      pop\n    tag_496:\n      jump\t// out\n        /* \"#utility.yul\":23392:23572   */\n    tag_68:\n        /* \"#utility.yul\":23440:23517   */\n      0x4e487b7100000000000000000000000000000000000000000000000000000000\n        /* \"#utility.yul\":23437:23438   */\n      0x00\n        /* \"#utility.yul\":23430:23518   */\n      mstore\n        /* \"#utility.yul\":23537:23541   */\n      0x32\n        /* \"#utility.yul\":23534:23535   */\n      0x04\n        /* \"#utility.yul\":23527:23542   */\n      mstore\n        /* \"#utility.yul\":23561:23565   */\n      0x24\n        /* \"#utility.yul\":23558:23559   */\n      0x00\n        /* \"#utility.yul\":23551:23566   */\n      revert\n        /* \"#utility.yul\":23578:23910   */\n    tag_75:\n        /* \"#utility.yul\":23699:23703   */\n      0x00\n        /* \"#utility.yul\":23737:23739   */\n      0x40\n        /* \"#utility.yul\":23726:23735   */\n      dup3\n        /* \"#utility.yul\":23722:23740   */\n      add\n        /* \"#utility.yul\":23714:23740   */\n      swap1\n      pop\n        /* \"#utility.yul\":23750:23821   */\n      tag_516\n        /* \"#utility.yul\":23818:23819   */\n      0x00\n        /* \"#utility.yul\":23807:23816   */\n      dup4\n        /* \"#utility.yul\":23803:23820   */\n      add\n        /* \"#utility.yul\":23794:23800   */\n      dup6\n        /* \"#utility.yul\":23750:23821   */\n      tag_238\n      jump\t// in\n    tag_516:\n        /* \"#utility.yul\":23831:23903   */\n      tag_517\n        /* \"#utility.yul\":23899:23901   */\n      0x20\n        /* \"#utility.yul\":23888:23897   */\n      dup4\n        /* \"#utility.yul\":23884:23902   */\n      add\n        /* \"#utility.yul\":23875:23881   */\n      dup5\n        /* \"#utility.yul\":23831:23903   */\n      tag_235\n      jump\t// in\n    tag_517:\n        /* \"#utility.yul\":23578:23910   */\n      swap4\n      swap3\n      pop\n      pop\n      pop\n      jump\t// out\n        /* \"#utility.yul\":23916:24096   */\n    tag_277:\n        /* \"#utility.yul\":23964:24041   */\n      0x4e487b7100000000000000000000000000000000000000000000000000000000\n        /* \"#utility.yul\":23961:23962   */\n      0x00\n        /* \"#utility.yul\":23954:24042   */\n      mstore\n        /* \"#utility.yul\":24061:24065   */\n      0x11\n        /* \"#utility.yul\":24058:24059   */\n      0x04\n        /* \"#utility.yul\":24051:24066   */\n      mstore\n        /* \"#utility.yul\":24085:24089   */\n      0x24\n        /* \"#utility.yul\":24082:24083   */\n      0x00\n        /* \"#utility.yul\":24075:24090   */\n      revert\n        /* \"#utility.yul\":24102:24335   */\n    tag_144:\n        /* \"#utility.yul\":24141:24144   */\n      0x00\n        /* \"#utility.yul\":24164:24188   */\n      tag_520\n        /* \"#utility.yul\":24182:24187   */\n      dup3\n        /* \"#utility.yul\":24164:24188   */\n      tag_223\n      jump\t// in\n    tag_520:\n        /* \"#utility.yul\":24155:24188   */\n      swap2\n      pop\n        /* \"#utility.yul\":24210:24276   */\n      0xffffffffffffffffffffffffffffffffffffffffffffffffffffffffffffffff\n        /* \"#utility.yul\":24203:24208   */\n      dup3\n        /* \"#utility.yul\":24200:24277   */\n      sub\n        /* \"#utility.yul\":24197:24300   */\n      tag_521\n      jumpi\n        /* \"#utility.yul\":24280:24298   */\n      tag_522\n      tag_277\n      jump\t// in\n    tag_522:\n        /* \"#utility.yul\":24197:24300   */\n    tag_521:\n        /* \"#utility.yul\":24327:24328   */\n      0x01\n        /* \"#utility.yul\":24320:24325   */\n      dup3\n        /* \"#utility.yul\":24316:24329   */\n      add\n        /* \"#utility.yul\":24309:24329   */\n      swap1\n      pop\n        /* \"#utility.yul\":24102:24335   */\n      swap2\n      swap1\n      pop\n      jump\t// out\n        /* \"#utility.yul\":24341:24511   */\n    tag_278:\n        /* \"#utility.yul\":24481:24503   */\n      0x55524c2063616e6e6f7420626520656d70747921000000000000000000000000\n        /* \"#utility.yul\":24477:24478   */\n      0x00\n        /* \"#utility.yul\":24469:24475   */\n      dup3\n        /* \"#utility.yul\":24465:24479   */\n      add\n        /* \"#utility.yul\":24458:24504   */\n      mstore\n        /* \"#utility.yul\":24341:24511   */\n      pop\n      jump\t// out\n        /* \"#utility.yul\":24517:24883   */\n    tag_279:\n        /* \"#utility.yul\":24659:24662   */\n      0x00\n        /* \"#utility.yul\":24680:24747   */\n      tag_525\n        /* \"#utility.yul\":24744:24746   */\n      0x14\n        /* \"#utility.yul\":24739:24742   */\n      dup4\n        /* \"#utility.yul\":24680:24747   */\n      tag_240\n      jump\t// in\n    tag_525:\n        /* \"#utility.yul\":24673:24747   */\n      swap2\n      pop\n        /* \"#utility.yul\":24756:24849   */\n      tag_526\n        /* \"#utility.yul\":24845:24848   */\n      dup3\n        /* \"#utility.yul\":24756:24849   */\n      tag_278\n      jump\t// in\n    tag_526:\n        /* \"#utility.yul\":24874:24876   */\n      0x20\n        /* \"#utility.yul\":24869:24872   */\n      dup3\n        /* \"#utility.yul\":24865:24877   */\n      add\n        /* \"#utility.yul\":24858:24877   */\n      swap1\n      pop\n        /* \"#utility.yul\":24517:24883   */\n      swap2\n      swap1\n      pop\n      jump\t// out\n        /* \"#utility.yul\":24889:25308   */\n    tag_156:\n        /* \"#utility.yul\":25055:25059   */\n      0x00\n        /* \"#utility.yul\":25093:25095   */\n      0x20\n        /* \"#utility.yul\":25082:25091   */\n      dup3\n        /* \"#utility.yul\":25078:25096   */\n      add\n        /* \"#utility.yul\":25070:25096   */\n      swap1\n      pop\n        /* \"#utility.yul\":25142:25151   */\n      dup2\n        /* \"#utility.yul\":25136:25140   */\n      dup2\n        /* \"#utility.yul\":25132:25152   */\n      sub\n        /* \"#utility.yul\":25128:25129   */\n      0x00\n        /* \"#utility.yul\":25117:25126   */\n      dup4\n        /* \"#utility.yul\":25113:25130   */\n      add\n        /* \"#utility.yul\":25106:25153   */\n      mstore\n        /* \"#utility.yul\":25170:25301   */\n      tag_528\n        /* \"#utility.yul\":25296:25300   */\n      dup2\n        /* \"#utility.yul\":25170:25301   */\n      tag_279\n      jump\t// in\n    tag_528:\n        /* \"#utility.yul\":25162:25301   */\n      swap1\n      pop\n        /* \"#utility.yul\":24889:25308   */\n      swap2\n      swap1\n      pop\n      jump\t// out\n        /* \"#utility.yul\":25314:25508   */\n    tag_169:\n        /* \"#utility.yul\":25354:25358   */\n      0x00\n        /* \"#utility.yul\":25374:25394   */\n      tag_530\n        /* \"#utility.yul\":25392:25393   */\n      dup3\n        /* \"#utility.yul\":25374:25394   */\n      tag_223\n      jump\t// in\n    tag_530:\n        /* \"#utility.yul\":25369:25394   */\n      swap2\n      pop\n        /* \"#utility.yul\":25408:25428   */\n      tag_531\n        /* \"#utility.yul\":25426:25427   */\n      dup4\n        /* \"#utility.yul\":25408:25428   */\n      tag_223\n      jump\t// in\n    tag_531:\n        /* \"#utility.yul\":25403:25428   */\n      swap3\n      pop\n        /* \"#utility.yul\":25452:25453   */\n      dup3\n        /* \"#utility.yul\":25449:25450   */\n      dup3\n        /* \"#utility.yul\":25445:25454   */\n      sub\n        /* \"#utility.yul\":25437:25454   */\n      swap1\n      pop\n        /* \"#utility.yul\":25476:25477   */\n      dup2\n        /* \"#utility.yul\":25470:25474   */\n      dup2\n        /* \"#utility.yul\":25467:25478   */\n      gt\n        /* \"#utility.yul\":25464:25501   */\n      iszero\n      tag_532\n      jumpi\n        /* \"#utility.yul\":25481:25499   */\n      tag_533\n      tag_277\n      jump\t// in\n    tag_533:\n        /* \"#utility.yul\":25464:25501   */\n    tag_532:\n        /* \"#utility.yul\":25314:25508   */\n      swap3\n      swap2\n      pop\n      pop\n      jump\t// out\n        /* \"#utility.yul\":25514:26138   */\n    tag_171:\n        /* \"#utility.yul\":25703:25707   */\n      0x00\n        /* \"#utility.yul\":25741:25743   */\n      0x60\n        /* \"#utility.yul\":25730:25739   */\n      dup3\n        /* \"#utility.yul\":25726:25744   */\n      add\n        /* \"#utility.yul\":25718:25744   */\n      swap1\n      pop\n        /* \"#utility.yul\":25754:25825   */\n      tag_535\n        /* \"#utility.yul\":25822:25823   */\n      0x00\n        /* \"#utility.yul\":25811:25820   */\n      dup4\n        /* \"#utility.yul\":25807:25824   */\n      add\n        /* \"#utility.yul\":25798:25804   */\n      dup7\n        /* \"#utility.yul\":25754:25825   */\n      tag_238\n      jump\t// in\n    tag_535:\n        /* \"#utility.yul\":25872:25881   */\n      dup2\n        /* \"#utility.yul\":25866:25870   */\n      dup2\n        /* \"#utility.yul\":25862:25882   */\n      sub\n        /* \"#utility.yul\":25857:25859   */\n      0x20\n        /* \"#utility.yul\":25846:25855   */\n      dup4\n        /* \"#utility.yul\":25842:25860   */\n      add\n        /* \"#utility.yul\":25835:25883   */\n      mstore\n        /* \"#utility.yul\":25900:25978   */\n      tag_536\n        /* \"#utility.yul\":25973:25977   */\n      dup2\n        /* \"#utility.yul\":25964:25970   */\n      dup6\n        /* \"#utility.yul\":25900:25978   */\n      tag_242\n      jump\t// in\n    tag_536:\n        /* \"#utility.yul\":25892:25978   */\n      swap1\n      pop\n        /* \"#utility.yul\":26025:26034   */\n      dup2\n        /* \"#utility.yul\":26019:26023   */\n      dup2\n        /* \"#utility.yul\":26015:26035   */\n      sub\n        /* \"#utility.yul\":26010:26012   */\n      0x40\n        /* \"#utility.yul\":25999:26008   */\n      dup4\n        /* \"#utility.yul\":25995:26013   */\n      add\n        /* \"#utility.yul\":25988:26036   */\n      mstore\n        /* \"#utility.yul\":26053:26131   */\n      tag_537\n        /* \"#utility.yul\":26126:26130   */\n      dup2\n        /* \"#utility.yul\":26117:26123   */\n      dup5\n        /* \"#utility.yul\":26053:26131   */\n      tag_242\n      jump\t// in\n    tag_537:\n        /* \"#utility.yul\":26045:26131   */\n      swap1\n      pop\n        /* \"#utility.yul\":25514:26138   */\n      swap5\n      swap4\n      pop\n      pop\n      pop\n      pop\n      jump\t// out\n        /* \"#utility.yul\":26144:26324   */\n    tag_197:\n        /* \"#utility.yul\":26192:26269   */\n      0x4e487b7100000000000000000000000000000000000000000000000000000000\n        /* \"#utility.yul\":26189:26190   */\n      0x00\n        /* \"#utility.yul\":26182:26270   */\n      mstore\n        /* \"#utility.yul\":26289:26293   */\n      0x31\n        /* \"#utility.yul\":26286:26287   */\n      0x04\n        /* \"#utility.yul\":26279:26294   */\n      mstore\n        /* \"#utility.yul\":26313:26317   */\n      0x24\n        /* \"#utility.yul\":26310:26311   */\n      0x00\n        /* \"#utility.yul\":26303:26318   */\n      revert\n        /* \"#utility.yul\":26330:26424   */\n    tag_280:\n        /* \"#utility.yul\":26363:26371   */\n      0x00\n        /* \"#utility.yul\":26411:26416   */\n      dup2\n        /* \"#utility.yul\":26407:26409   */\n      0x60\n        /* \"#utility.yul\":26403:26417   */\n      shl\n        /* \"#utility.yul\":26382:26417   */\n      swap1\n      pop\n        /* \"#utility.yul\":26330:26424   */\n      swap2\n      swap1\n      pop\n      jump\t// out\n        /* \"#utility.yul\":26430:26524   */\n    tag_281:\n        /* \"#utility.yul\":26469:26476   */\n      0x00\n        /* \"#utility.yul\":26498:26518   */\n      tag_541\n        /* \"#utility.yul\":26512:26517   */\n      dup3\n        /* \"#utility.yul\":26498:26518   */\n      tag_280\n      jump\t// in\n    tag_541:\n        /* \"#utility.yul\":26487:26518   */\n      swap1\n      pop\n        /* \"#utility.yul\":26430:26524   */\n      swap2\n      swap1\n      pop\n      jump\t// out\n        /* \"#utility.yul\":26530:26630   */\n    tag_282:\n        /* \"#utility.yul\":26569:26576   */\n      0x00\n        /* \"#utility.yul\":26598:26624   */\n      tag_543\n        /* \"#utility.yul\":26618:26623   */\n      dup3\n        /* \"#utility.yul\":26598:26624   */\n      tag_281\n      jump\t// in\n    tag_543:\n        /* \"#utility.yul\":26587:26624   */\n      swap1\n      pop\n        /* \"#utility.yul\":26530:26630   */\n      swap2\n      swap1\n      pop\n      jump\t// out\n        /* \"#utility.yul\":26636:26793   */\n    tag_283:\n        /* \"#utility.yul\":26741:26786   */\n      tag_545\n        /* \"#utility.yul\":26761:26785   */\n      tag_546\n        /* \"#utility.yul\":26779:26784   */\n      dup3\n        /* \"#utility.yul\":26761:26785   */\n      tag_237\n      jump\t// in\n    tag_546:\n        /* \"#utility.yul\":26741:26786   */\n      tag_282\n      jump\t// in\n    tag_545:\n        /* \"#utility.yul\":26736:26739   */\n      dup3\n        /* \"#utility.yul\":26729:26787   */\n      mstore\n        /* \"#utility.yul\":26636:26793   */\n      pop\n      pop\n      jump\t// out\n        /* \"#utility.yul\":26799:26947   */\n    tag_284:\n        /* \"#utility.yul\":26901:26912   */\n      0x00\n        /* \"#utility.yul\":26938:26941   */\n      dup2\n        /* \"#utility.yul\":26923:26941   */\n      swap1\n      pop\n        /* \"#utility.yul\":26799:26947   */\n      swap3\n      swap2\n      pop\n      pop\n      jump\t// out\n        /* \"#utility.yul\":26953:27343   */\n    tag_285:\n        /* \"#utility.yul\":27059:27062   */\n      0x00\n        /* \"#utility.yul\":27087:27126   */\n      tag_549\n        /* \"#utility.yul\":27120:27125   */\n      dup3\n        /* \"#utility.yul\":27087:27126   */\n      tag_239\n      jump\t// in\n    tag_549:\n        /* \"#utility.yul\":27142:27231   */\n      tag_550\n        /* \"#utility.yul\":27224:27230   */\n      dup2\n        /* \"#utility.yul\":27219:27222   */\n      dup6\n        /* \"#utility.yul\":27142:27231   */\n      tag_284\n      jump\t// in\n    tag_550:\n        /* \"#utility.yul\":27135:27231   */\n      swap4\n      pop\n        /* \"#utility.yul\":27240:27305   */\n      tag_551\n        /* \"#utility.yul\":27298:27304   */\n      dup2\n        /* \"#utility.yul\":27293:27296   */\n      dup6\n        /* \"#utility.yul\":27286:27290   */\n      0x20\n        /* \"#utility.yul\":27279:27284   */\n      dup7\n        /* \"#utility.yul\":27275:27291   */\n      add\n        /* \"#utility.yul\":27240:27305   */\n      tag_241\n      jump\t// in\n    tag_551:\n        /* \"#utility.yul\":27330:27336   */\n      dup1\n        /* \"#utility.yul\":27325:27328   */\n      dup5\n        /* \"#utility.yul\":27321:27337   */\n      add\n        /* \"#utility.yul\":27314:27337   */\n      swap2\n      pop\n        /* \"#utility.yul\":27063:27343   */\n      pop\n        /* \"#utility.yul\":26953:27343   */\n      swap3\n      swap2\n      pop\n      pop\n      jump\t// out\n        /* \"#utility.yul\":27349:28245   */\n    tag_212:\n        /* \"#utility.yul\":27653:27656   */\n      0x00\n        /* \"#utility.yul\":27668:27743   */\n      tag_553\n        /* \"#utility.yul\":27739:27742   */\n      dup3\n        /* \"#utility.yul\":27730:27736   */\n      dup9\n        /* \"#utility.yul\":27668:27743   */\n      tag_283\n      jump\t// in\n    tag_553:\n        /* \"#utility.yul\":27768:27770   */\n      0x14\n        /* \"#utility.yul\":27763:27766   */\n      dup3\n        /* \"#utility.yul\":27759:27771   */\n      add\n        /* \"#utility.yul\":27752:27771   */\n      swap2\n      pop\n        /* \"#utility.yul\":27788:27883   */\n      tag_554\n        /* \"#utility.yul\":27879:27882   */\n      dup3\n        /* \"#utility.yul\":27870:27876   */\n      dup8\n        /* \"#utility.yul\":27788:27883   */\n      tag_285\n      jump\t// in\n    tag_554:\n        /* \"#utility.yul\":27781:27883   */\n      swap2\n      pop\n        /* \"#utility.yul\":27900:27995   */\n      tag_555\n        /* \"#utility.yul\":27991:27994   */\n      dup3\n        /* \"#utility.yul\":27982:27988   */\n      dup7\n        /* \"#utility.yul\":27900:27995   */\n      tag_285\n      jump\t// in\n    tag_555:\n        /* \"#utility.yul\":27893:27995   */\n      swap2\n      pop\n        /* \"#utility.yul\":28012:28107   */\n      tag_556\n        /* \"#utility.yul\":28103:28106   */\n      dup3\n        /* \"#utility.yul\":28094:28100   */\n      dup6\n        /* \"#utility.yul\":28012:28107   */\n      tag_285\n      jump\t// in\n    tag_556:\n        /* \"#utility.yul\":28005:28107   */\n      swap2\n      pop\n        /* \"#utility.yul\":28124:28219   */\n      tag_557\n        /* \"#utility.yul\":28215:28218   */\n      dup3\n        /* \"#utility.yul\":28206:28212   */\n      dup5\n        /* \"#utility.yul\":28124:28219   */\n      tag_285\n      jump\t// in\n    tag_557:\n        /* \"#utility.yul\":28117:28219   */\n      swap2\n      pop\n        /* \"#utility.yul\":28236:28239   */\n      dup2\n        /* \"#utility.yul\":28229:28239   */\n      swap1\n      pop\n        /* \"#utility.yul\":27349:28245   */\n      swap7\n      swap6\n      pop\n      pop\n      pop\n      pop\n      pop\n      pop\n      jump\t// out\n\n    auxdata: 0xa26469706673582212207c745f93ef05afa6e906f8426d420650b43bc89a70163ec6536b46e2705b998064736f6c63430008140033\n}\n",
				"bytecode": {
					"linkReferences": {},
					"object": "608060405234801561000f575f80fd5b506122768061001d5f395ff3fe608060405234801561000f575f80fd5b506004361061007a575f3560e01c806383659cd91161005957806383659cd9146100ee5780638da5cb5b1461010a578063a8d20d6114610128578063d6700e37146101445761007a565b80625b07321461007e5780630cb6aaf11461009a57806374a2d74e146100cf575b5f80fd5b61009860048036038101906100939190611569565b610174565b005b6100b460048036038101906100af9190611621565b610503565b6040516100c696959493929190611714565b60405180910390f35b6100d7610781565b6040516100e592919061194b565b60405180910390f35b61010860048036038101906101039190611979565b610bf6565b005b610112610ee9565b60405161011f9190611a4d565b60405180910390f35b610142600480360381019061013d9190611621565b610f0c565b005b61015e60048036038101906101599190611621565b6112e0565b60405161016b9190611a66565b60405180910390f35b828261017f826112f5565b1580156101925750610190816112f5565b155b6101d1576040517f08c379a00000000000000000000000000000000000000000000000000000000081526004016101c890611aef565b60405180910390fd5b855f8111610214576040517f08c379a000000000000000000000000000000000000000000000000000000000815260040161020b90611b57565b60405180910390fd5b5f60015f8981526020019081526020015f209050806001015f9054906101000a900473ffffffffffffffffffffffffffffffffffffffff1673ffffffffffffffffffffffffffffffffffffffff163373ffffffffffffffffffffffffffffffffffffffff16146102b9576040517f08c379a00000000000000000000000000000000000000000000000000000000081526004016102b090611bbf565b60405180910390fd5b858160040190816102ca9190611dd7565b50868160030190816102dc9190611dd7565b50848160050190816102ee9190611dd7565b508060015f8a81526020019081526020015f205f820154815f0155600182015f9054906101000a900473ffffffffffffffffffffffffffffffffffffffff16816001015f6101000a81548173ffffffffffffffffffffffffffffffffffffffff021916908373ffffffffffffffffffffffffffffffffffffffff160217905550600282018160020190816103829190611ebb565b50600382018160030190816103979190611ebb565b50600482018160040190816103ac9190611ebb565b50600582018160050190816103c19190611ebb565b509050505f60035f8a81526020019081526020015f2054905081600282815481106103ef576103ee611fa0565b5b905f5260205f2090600602015f820154815f0155600182015f9054906101000a900473ffffffffffffffffffffffffffffffffffffffff16816001015f6101000a81548173ffffffffffffffffffffffffffffffffffffffff021916908373ffffffffffffffffffffffffffffffffffffffff1602179055506002820181600201908161047c9190611ebb565b50600382018160030190816104919190611ebb565b50600482018160040190816104a69190611ebb565b50600582018160050190816104bb9190611ebb565b509050507f76b5986448b778accbcad74a1d0e785699894c90208cdb318547a8a2fb93bf28338a6040516104f0929190611fcd565b60405180910390a1505050505050505050565b60028181548110610512575f80fd5b905f5260205f2090600602015f91509050805f015490806001015f9054906101000a900473ffffffffffffffffffffffffffffffffffffffff169080600201805461055c90611c0a565b80601f016020809104026020016040519081016040528092919081815260200182805461058890611c0a565b80156105d35780601f106105aa576101008083540402835291602001916105d3565b820191905f5260205f20905b8154815290600101906020018083116105b657829003601f168201915b5050505050908060030180546105e890611c0a565b80601f016020809104026020016040519081016040528092919081815260200182805461061490611c0a565b801561065f5780601f106106365761010080835404028352916020019161065f565b820191905f5260205f20905b81548152906001019060200180831161064257829003601f168201915b50505050509080600401805461067490611c0a565b80601f01602080910402602001604051908101604052809291908181526020018280546106a090611c0a565b80156106eb5780601f106106c2576101008083540402835291602001916106eb565b820191905f5260205f20905b8154815290600101906020018083116106ce57829003601f168201915b50505050509080600501805461070090611c0a565b80601f016020809104026020016040519081016040528092919081815260200182805461072c90611c0a565b80156107775780601f1061074e57610100808354040283529160200191610777565b820191905f5260205f20905b81548152906001019060200180831161075a57829003601f168201915b5050505050905086565b60605f8060028054905067ffffffffffffffff8111156107a4576107a3611445565b5b6040519080825280602002602001820160405280156107dd57816020015b6107ca611347565b8152602001906001900390816107c25790505b5090505f805b600280549050811015610be9573373ffffffffffffffffffffffffffffffffffffffff166002828154811061081b5761081a611fa0565b5b905f5260205f2090600602016001015f9054906101000a900473ffffffffffffffffffffffffffffffffffffffff1673ffffffffffffffffffffffffffffffffffffffff161480156108db57505f73ffffffffffffffffffffffffffffffffffffffff166002828154811061089357610892611fa0565b5b905f5260205f2090600602016001015f9054906101000a900473ffffffffffffffffffffffffffffffffffffffff1673ffffffffffffffffffffffffffffffffffffffff1614155b15610bd657600281815481106108f4576108f3611fa0565b5b905f5260205f2090600602016040518060c00160405290815f8201548152602001600182015f9054906101000a900473ffffffffffffffffffffffffffffffffffffffff1673ffffffffffffffffffffffffffffffffffffffff1673ffffffffffffffffffffffffffffffffffffffff16815260200160028201805461097990611c0a565b80601f01602080910402602001604051908101604052809291908181526020018280546109a590611c0a565b80156109f05780601f106109c7576101008083540402835291602001916109f0565b820191905f5260205f20905b8154815290600101906020018083116109d357829003601f168201915b50505050508152602001600382018054610a0990611c0a565b80601f0160208091040260200160405190810160405280929190818152602001828054610a3590611c0a565b8015610a805780601f10610a5757610100808354040283529160200191610a80565b820191905f5260205f20905b815481529060010190602001808311610a6357829003601f168201915b50505050508152602001600482018054610a9990611c0a565b80601f0160208091040260200160405190810160405280929190818152602001828054610ac590611c0a565b8015610b105780601f10610ae757610100808354040283529160200191610b10565b820191905f5260205f20905b815481529060010190602001808311610af357829003601f168201915b50505050508152602001600582018054610b2990611c0a565b80601f0160208091040260200160405190810160405280929190818152602001828054610b5590611c0a565b8015610ba05780601f10610b7757610100808354040283529160200191610ba0565b820191905f5260205f20905b815481529060010190602001808311610b8357829003601f168201915b505050505081525050838381518110610bbc57610bbb611fa0565b5b60200260200101819052508180610bd290612021565b9250505b8080610be190612021565b9150506107e3565b5081819350935050509091565b8282610c01826112f5565b158015610c145750610c12816112f5565b155b610c53576040517f08c379a0000000000000000000000000000000000000000000000000000000008152600401610c4a90611aef565b60405180910390fd5b610c5c866112f5565b15610c9c576040517f08c379a0000000000000000000000000000000000000000000000000000000008152600401610c93906120b2565b60405180910390fd5b5f610ca987878787611306565b90505f6040518060c001604052808381526020013373ffffffffffffffffffffffffffffffffffffffff1681526020018981526020018881526020018781526020018681525090508060015f8481526020019081526020015f205f820151815f01556020820151816001015f6101000a81548173ffffffffffffffffffffffffffffffffffffffff021916908373ffffffffffffffffffffffffffffffffffffffff1602179055506040820151816002019081610d669190611dd7565b506060820151816003019081610d7c9190611dd7565b506080820151816004019081610d929190611dd7565b5060a0820151816005019081610da89190611dd7565b50905050600281908060018154018082558091505060019003905f5260205f2090600602015f909190919091505f820151815f01556020820151816001015f6101000a81548173ffffffffffffffffffffffffffffffffffffffff021916908373ffffffffffffffffffffffffffffffffffffffff1602179055506040820151816002019081610e389190611dd7565b506060820151816003019081610e4e9190611dd7565b506080820151816004019081610e649190611dd7565b5060a0820151816005019081610e7a9190611dd7565b5050506001600280549050610e8f91906120d0565b60035f8481526020019081526020015f20819055507fa9822cc0eabc6aef1c5dd603a158adad7d7dfa01b760a5b9031127808c0728e3338989604051610ed793929190612103565b60405180910390a15050505050505050565b5f8054906101000a900473ffffffffffffffffffffffffffffffffffffffff1681565b5f60035f8381526020019081526020015f205490505f6001600280549050610f3491906120d0565b905060608082841461117d575f60028481548110610f5557610f54611fa0565b5b905f5260205f2090600602019050806002018054610f7290611c0a565b80601f0160208091040260200160405190810160405280929190818152602001828054610f9e90611c0a565b8015610fe95780601f10610fc057610100808354040283529160200191610fe9565b820191905f5260205f20905b815481529060010190602001808311610fcc57829003601f168201915b50505050509250806003018054610fff90611c0a565b80601f016020809104026020016040519081016040528092919081815260200182805461102b90611c0a565b80156110765780601f1061104d57610100808354040283529160200191611076565b820191905f5260205f20905b81548152906001019060200180831161105957829003601f168201915b50505050509150806002868154811061109257611091611fa0565b5b905f5260205f2090600602015f820154815f0155600182015f9054906101000a900473ffffffffffffffffffffffffffffffffffffffff16816001015f6101000a81548173ffffffffffffffffffffffffffffffffffffffff021916908373ffffffffffffffffffffffffffffffffffffffff1602179055506002820181600201908161111f9190611ebb565b50600382018160030190816111349190611ebb565b50600482018160040190816111499190611ebb565b506005820181600501908161115e9190611ebb565b509050508460035f835f015481526020019081526020015f2081905550505b600280548061118f5761118e612146565b5b600190038181905f5260205f2090600602015f8082015f9055600182015f6101000a81549073ffffffffffffffffffffffffffffffffffffffff0219169055600282015f6111dd9190611391565b600382015f6111ec9190611391565b600482015f6111fb9190611391565b600582015f61120a9190611391565b5050905560015f8681526020019081526020015f205f8082015f9055600182015f6101000a81549073ffffffffffffffffffffffffffffffffffffffff0219169055600282015f61125b9190611391565b600382015f61126a9190611391565b600482015f6112799190611391565b600582015f6112889190611391565b505060035f8681526020019081526020015f205f90557f0b3f2c0aa6113baac4dedb6c1515fa11432fedf07a6086743d28b5d82eeb69043383836040516112d193929190612103565b60405180910390a15050505050565b6003602052805f5260405f205f915090505481565b5f808290505f815114915050919050565b5f8033868686866040516020016113219594939291906121f2565b604051602081830303815290604052805190602001209050805f1c915050949350505050565b6040518060c001604052805f81526020015f73ffffffffffffffffffffffffffffffffffffffff168152602001606081526020016060815260200160608152602001606081525090565b50805461139d90611c0a565b5f825580601f106113ae57506113cb565b601f0160209004905f5260205f20908101906113ca91906113ce565b5b50565b5b808211156113e5575f815f9055506001016113cf565b5090565b5f604051905090565b5f80fd5b5f80fd5b5f819050919050565b61140c816113fa565b8114611416575f80fd5b50565b5f8135905061142781611403565b92915050565b5f80fd5b5f80fd5b5f601f19601f8301169050919050565b7f4e487b71000000000000000000000000000000000000000000000000000000005f52604160045260245ffd5b61147b82611435565b810181811067ffffffffffffffff8211171561149a57611499611445565b5b80604052505050565b5f6114ac6113e9565b90506114b88282611472565b919050565b5f67ffffffffffffffff8211156114d7576114d6611445565b5b6114e082611435565b9050602081019050919050565b828183375f83830152505050565b5f61150d611508846114bd565b6114a3565b90508281526020810184848401111561152957611528611431565b5b6115348482856114ed565b509392505050565b5f82601f8301126115505761154f61142d565b5b81356115608482602086016114fb565b91505092915050565b5f805f8060808587031215611581576115806113f2565b5b5f61158e87828801611419565b945050602085013567ffffffffffffffff8111156115af576115ae6113f6565b5b6115bb8782880161153c565b935050604085013567ffffffffffffffff8111156115dc576115db6113f6565b5b6115e88782880161153c565b925050606085013567ffffffffffffffff811115611609576116086113f6565b5b6116158782880161153c565b91505092959194509250565b5f60208284031215611636576116356113f2565b5b5f61164384828501611419565b91505092915050565b611655816113fa565b82525050565b5f73ffffffffffffffffffffffffffffffffffffffff82169050919050565b5f6116848261165b565b9050919050565b6116948161167a565b82525050565b5f81519050919050565b5f82825260208201905092915050565b5f5b838110156116d15780820151818401526020810190506116b6565b5f8484015250505050565b5f6116e68261169a565b6116f081856116a4565b93506117008185602086016116b4565b61170981611435565b840191505092915050565b5f60c0820190506117275f83018961164c565b611734602083018861168b565b818103604083015261174681876116dc565b9050818103606083015261175a81866116dc565b9050818103608083015261176e81856116dc565b905081810360a083015261178281846116dc565b9050979650505050505050565b5f81519050919050565b5f82825260208201905092915050565b5f819050602082019050919050565b6117c1816113fa565b82525050565b6117d08161167a565b82525050565b5f82825260208201905092915050565b5f6117f08261169a565b6117fa81856117d6565b935061180a8185602086016116b4565b61181381611435565b840191505092915050565b5f60c083015f8301516118335f8601826117b8565b50602083015161184660208601826117c7565b506040830151848203604086015261185e82826117e6565b9150506060830151848203606086015261187882826117e6565b9150506080830151848203608086015261189282826117e6565b91505060a083015184820360a08601526118ac82826117e6565b9150508091505092915050565b5f6118c4838361181e565b905092915050565b5f602082019050919050565b5f6118e28261178f565b6118ec8185611799565b9350836020820285016118fe856117a9565b805f5b85811015611939578484038952815161191a85826118b9565b9450611925836118cc565b925060208a01995050600181019050611901565b50829750879550505050505092915050565b5f6040820190508181035f83015261196381856118d8565b9050611972602083018461164c565b9392505050565b5f805f8060808587031215611991576119906113f2565b5b5f85013567ffffffffffffffff8111156119ae576119ad6113f6565b5b6119ba8782880161153c565b945050602085013567ffffffffffffffff8111156119db576119da6113f6565b5b6119e78782880161153c565b935050604085013567ffffffffffffffff811115611a0857611a076113f6565b5b611a148782880161153c565b925050606085013567ffffffffffffffff811115611a3557611a346113f6565b5b611a418782880161153c565b91505092959194509250565b5f602082019050611a605f83018461168b565b92915050565b5f602082019050611a795f83018461164c565b92915050565b7f4163636f756e7420616e642050617373776f72642063616e6e6f7420626520655f8201527f6d70747921000000000000000000000000000000000000000000000000000000602082015250565b5f611ad96025836116a4565b9150611ae482611a7f565b604082019050919050565b5f6020820190508181035f830152611b0681611acd565b9050919050565b7f4b657949642057726f6e672100000000000000000000000000000000000000005f82015250565b5f611b41600c836116a4565b9150611b4c82611b0d565b602082019050919050565b5f6020820190508181035f830152611b6e81611b35565b9050919050565b7f4f6e6c79206f776e65722063616e2063616c6c207468697321000000000000005f82015250565b5f611ba96019836116a4565b9150611bb482611b75565b602082019050919050565b5f6020820190508181035f830152611bd681611b9d565b9050919050565b7f4e487b71000000000000000000000000000000000000000000000000000000005f52602260045260245ffd5b5f6002820490506001821680611c2157607f821691505b602082108103611c3457611c33611bdd565b5b50919050565b5f819050815f5260205f209050919050565b5f6020601f8301049050919050565b5f82821b905092915050565b5f60088302611c967fffffffffffffffffffffffffffffffffffffffffffffffffffffffffffffffff82611c5b565b611ca08683611c5b565b95508019841693508086168417925050509392505050565b5f819050919050565b5f611cdb611cd6611cd1846113fa565b611cb8565b6113fa565b9050919050565b5f819050919050565b611cf483611cc1565b611d08611d0082611ce2565b848454611c67565b825550505050565b5f90565b611d1c611d10565b611d27818484611ceb565b505050565b5b81811015611d4a57611d3f5f82611d14565b600181019050611d2d565b5050565b601f821115611d8f57611d6081611c3a565b611d6984611c4c565b81016020851015611d78578190505b611d8c611d8485611c4c565b830182611d2c565b50505b505050565b5f82821c905092915050565b5f611daf5f1984600802611d94565b1980831691505092915050565b5f611dc78383611da0565b9150826002028217905092915050565b611de08261169a565b67ffffffffffffffff811115611df957611df8611445565b5b611e038254611c0a565b611e0e828285611d4e565b5f60209050601f831160018114611e3f575f8415611e2d578287015190505b611e378582611dbc565b865550611e9e565b601f198416611e4d86611c3a565b5f5b82811015611e7457848901518255600182019150602085019450602081019050611e4f565b86831015611e915784890151611e8d601f891682611da0565b8355505b6001600288020188555050505b505050505050565b5f81549050611eb481611c0a565b9050919050565b818103611ec9575050611f9e565b611ed282611ea6565b67ffffffffffffffff811115611eeb57611eea611445565b5b611ef58254611c0a565b611f00828285611d4e565b5f601f831160018114611f2d575f8415611f1b578287015490505b611f258582611dbc565b865550611f97565b601f198416611f3b87611c3a565b9650611f4686611c3a565b5f5b82811015611f6d57848901548255600182019150600185019450602081019050611f48565b86831015611f8a5784890154611f86601f891682611da0565b8355505b6001600288020188555050505b5050505050505b565b7f4e487b71000000000000000000000000000000000000000000000000000000005f52603260045260245ffd5b5f604082019050611fe05f83018561168b565b611fed602083018461164c565b9392505050565b7f4e487b71000000000000000000000000000000000000000000000000000000005f52601160045260245ffd5b5f61202b826113fa565b91507fffffffffffffffffffffffffffffffffffffffffffffffffffffffffffffffff820361205d5761205c611ff4565b5b600182019050919050565b7f55524c2063616e6e6f7420626520656d707479210000000000000000000000005f82015250565b5f61209c6014836116a4565b91506120a782612068565b602082019050919050565b5f6020820190508181035f8301526120c981612090565b9050919050565b5f6120da826113fa565b91506120e5836113fa565b92508282039050818111156120fd576120fc611ff4565b5b92915050565b5f6060820190506121165f83018661168b565b818103602083015261212881856116dc565b9050818103604083015261213c81846116dc565b9050949350505050565b7f4e487b71000000000000000000000000000000000000000000000000000000005f52603160045260245ffd5b5f8160601b9050919050565b5f61218982612173565b9050919050565b5f61219a8261217f565b9050919050565b6121b26121ad8261167a565b612190565b82525050565b5f81905092915050565b5f6121cc8261169a565b6121d681856121b8565b93506121e68185602086016116b4565b80840191505092915050565b5f6121fd82886121a1565b60148201915061220d82876121c2565b915061221982866121c2565b915061222582856121c2565b915061223182846121c2565b9150819050969550505050505056fea26469706673582212207c745f93ef05afa6e906f8426d420650b43bc89a70163ec6536b46e2705b998064736f6c63430008140033",
					"opcodes": "PUSH1 0x80 PUSH1 0x40 MSTORE CALLVALUE DUP1 ISZERO PUSH2 0xF JUMPI PUSH0 DUP1 REVERT JUMPDEST POP PUSH2 0x2276 DUP1 PUSH2 0x1D PUSH0 CODECOPY PUSH0 RETURN INVALID PUSH1 0x80 PUSH1 0x40 MSTORE CALLVALUE DUP1 ISZERO PUSH2 0xF JUMPI PUSH0 DUP1 REVERT JUMPDEST POP PUSH1 0x4 CALLDATASIZE LT PUSH2 0x7A JUMPI PUSH0 CALLDATALOAD PUSH1 0xE0 SHR DUP1 PUSH4 0x83659CD9 GT PUSH2 0x59 JUMPI DUP1 PUSH4 0x83659CD9 EQ PUSH2 0xEE JUMPI DUP1 PUSH4 0x8DA5CB5B EQ PUSH2 0x10A JUMPI DUP1 PUSH4 0xA8D20D61 EQ PUSH2 0x128 JUMPI DUP1 PUSH4 0xD6700E37 EQ PUSH2 0x144 JUMPI PUSH2 0x7A JUMP JUMPDEST DUP1 PUSH3 0x5B0732 EQ PUSH2 0x7E JUMPI DUP1 PUSH4 0xCB6AAF1 EQ PUSH2 0x9A JUMPI DUP1 PUSH4 0x74A2D74E EQ PUSH2 0xCF JUMPI JUMPDEST PUSH0 DUP1 REVERT JUMPDEST PUSH2 0x98 PUSH1 0x4 DUP1 CALLDATASIZE SUB DUP2 ADD SWAP1 PUSH2 0x93 SWAP2 SWAP1 PUSH2 0x1569 JUMP JUMPDEST PUSH2 0x174 JUMP JUMPDEST STOP JUMPDEST PUSH2 0xB4 PUSH1 0x4 DUP1 CALLDATASIZE SUB DUP2 ADD SWAP1 PUSH2 0xAF SWAP2 SWAP1 PUSH2 0x1621 JUMP JUMPDEST PUSH2 0x503 JUMP JUMPDEST PUSH1 0x40 MLOAD PUSH2 0xC6 SWAP7 SWAP6 SWAP5 SWAP4 SWAP3 SWAP2 SWAP1 PUSH2 0x1714 JUMP JUMPDEST PUSH1 0x40 MLOAD DUP1 SWAP2 SUB SWAP1 RETURN JUMPDEST PUSH2 0xD7 PUSH2 0x781 JUMP JUMPDEST PUSH1 0x40 MLOAD PUSH2 0xE5 SWAP3 SWAP2 SWAP1 PUSH2 0x194B JUMP JUMPDEST PUSH1 0x40 MLOAD DUP1 SWAP2 SUB SWAP1 RETURN JUMPDEST PUSH2 0x108 PUSH1 0x4 DUP1 CALLDATASIZE SUB DUP2 ADD SWAP1 PUSH2 0x103 SWAP2 SWAP1 PUSH2 0x1979 JUMP JUMPDEST PUSH2 0xBF6 JUMP JUMPDEST STOP JUMPDEST PUSH2 0x112 PUSH2 0xEE9 JUMP JUMPDEST PUSH1 0x40 MLOAD PUSH2 0x11F SWAP2 SWAP1 PUSH2 0x1A4D JUMP JUMPDEST PUSH1 0x40 MLOAD DUP1 SWAP2 SUB SWAP1 RETURN JUMPDEST PUSH2 0x142 PUSH1 0x4 DUP1 CALLDATASIZE SUB DUP2 ADD SWAP1 PUSH2 0x13D SWAP2 SWAP1 PUSH2 0x1621 JUMP JUMPDEST PUSH2 0xF0C JUMP JUMPDEST STOP JUMPDEST PUSH2 0x15E PUSH1 0x4 DUP1 CALLDATASIZE SUB DUP2 ADD SWAP1 PUSH2 0x159 SWAP2 SWAP1 PUSH2 0x1621 JUMP JUMPDEST PUSH2 0x12E0 JUMP JUMPDEST PUSH1 0x40 MLOAD PUSH2 0x16B SWAP2 SWAP1 PUSH2 0x1A66 JUMP JUMPDEST PUSH1 0x40 MLOAD DUP1 SWAP2 SUB SWAP1 RETURN JUMPDEST DUP3 DUP3 PUSH2 0x17F DUP3 PUSH2 0x12F5 JUMP JUMPDEST ISZERO DUP1 ISZERO PUSH2 0x192 JUMPI POP PUSH2 0x190 DUP2 PUSH2 0x12F5 JUMP JUMPDEST ISZERO JUMPDEST PUSH2 0x1D1 JUMPI PUSH1 0x40 MLOAD PUSH32 0x8C379A000000000000000000000000000000000000000000000000000000000 DUP2 MSTORE PUSH1 0x4 ADD PUSH2 0x1C8 SWAP1 PUSH2 0x1AEF JUMP JUMPDEST PUSH1 0x40 MLOAD DUP1 SWAP2 SUB SWAP1 REVERT JUMPDEST DUP6 PUSH0 DUP2 GT PUSH2 0x214 JUMPI PUSH1 0x40 MLOAD PUSH32 0x8C379A000000000000000000000000000000000000000000000000000000000 DUP2 MSTORE PUSH1 0x4 ADD PUSH2 0x20B SWAP1 PUSH2 0x1B57 JUMP JUMPDEST PUSH1 0x40 MLOAD DUP1 SWAP2 SUB SWAP1 REVERT JUMPDEST PUSH0 PUSH1 0x1 PUSH0 DUP10 DUP2 MSTORE PUSH1 0x20 ADD SWAP1 DUP2 MSTORE PUSH1 0x20 ADD PUSH0 KECCAK256 SWAP1 POP DUP1 PUSH1 0x1 ADD PUSH0 SWAP1 SLOAD SWAP1 PUSH2 0x100 EXP SWAP1 DIV PUSH20 0xFFFFFFFFFFFFFFFFFFFFFFFFFFFFFFFFFFFFFFFF AND PUSH20 0xFFFFFFFFFFFFFFFFFFFFFFFFFFFFFFFFFFFFFFFF AND CALLER PUSH20 0xFFFFFFFFFFFFFFFFFFFFFFFFFFFFFFFFFFFFFFFF AND EQ PUSH2 0x2B9 JUMPI PUSH1 0x40 MLOAD PUSH32 0x8C379A000000000000000000000000000000000000000000000000000000000 DUP2 MSTORE PUSH1 0x4 ADD PUSH2 0x2B0 SWAP1 PUSH2 0x1BBF JUMP JUMPDEST PUSH1 0x40 MLOAD DUP1 SWAP2 SUB SWAP1 REVERT JUMPDEST DUP6 DUP2 PUSH1 0x4 ADD SWAP1 DUP2 PUSH2 0x2CA SWAP2 SWAP1 PUSH2 0x1DD7 JUMP JUMPDEST POP DUP7 DUP2 PUSH1 0x3 ADD SWAP1 DUP2 PUSH2 0x2DC SWAP2 SWAP1 PUSH2 0x1DD7 JUMP JUMPDEST POP DUP5 DUP2 PUSH1 0x5 ADD SWAP1 DUP2 PUSH2 0x2EE SWAP2 SWAP1 PUSH2 0x1DD7 JUMP JUMPDEST POP DUP1 PUSH1 0x1 PUSH0 DUP11 DUP2 MSTORE PUSH1 0x20 ADD SWAP1 DUP2 MSTORE PUSH1 0x20 ADD PUSH0 KECCAK256 PUSH0 DUP3 ADD SLOAD DUP2 PUSH0 ADD SSTORE PUSH1 0x1 DUP3 ADD PUSH0 SWAP1 SLOAD SWAP1 PUSH2 0x100 EXP SWAP1 DIV PUSH20 0xFFFFFFFFFFFFFFFFFFFFFFFFFFFFFFFFFFFFFFFF AND DUP2 PUSH1 0x1 ADD PUSH0 PUSH2 0x100 EXP DUP2 SLOAD DUP2 PUSH20 0xFFFFFFFFFFFFFFFFFFFFFFFFFFFFFFFFFFFFFFFF MUL NOT AND SWAP1 DUP4 PUSH20 0xFFFFFFFFFFFFFFFFFFFFFFFFFFFFFFFFFFFFFFFF AND MUL OR SWAP1 SSTORE POP PUSH1 0x2 DUP3 ADD DUP2 PUSH1 0x2 ADD SWAP1 DUP2 PUSH2 0x382 SWAP2 SWAP1 PUSH2 0x1EBB JUMP JUMPDEST POP PUSH1 0x3 DUP3 ADD DUP2 PUSH1 0x3 ADD SWAP1 DUP2 PUSH2 0x397 SWAP2 SWAP1 PUSH2 0x1EBB JUMP JUMPDEST POP PUSH1 0x4 DUP3 ADD DUP2 PUSH1 0x4 ADD SWAP1 DUP2 PUSH2 0x3AC SWAP2 SWAP1 PUSH2 0x1EBB JUMP JUMPDEST POP PUSH1 0x5 DUP3 ADD DUP2 PUSH1 0x5 ADD SWAP1 DUP2 PUSH2 0x3C1 SWAP2 SWAP1 PUSH2 0x1EBB JUMP JUMPDEST POP SWAP1 POP POP PUSH0 PUSH1 0x3 PUSH0 DUP11 DUP2 MSTORE PUSH1 0x20 ADD SWAP1 DUP2 MSTORE PUSH1 0x20 ADD PUSH0 KECCAK256 SLOAD SWAP1 POP DUP2 PUSH1 0x2 DUP3 DUP2 SLOAD DUP2 LT PUSH2 0x3EF JUMPI PUSH2 0x3EE PUSH2 0x1FA0 JUMP JUMPDEST JUMPDEST SWAP1 PUSH0 MSTORE PUSH1 0x20 PUSH0 KECCAK256 SWAP1 PUSH1 0x6 MUL ADD PUSH0 DUP3 ADD SLOAD DUP2 PUSH0 ADD SSTORE PUSH1 0x1 DUP3 ADD PUSH0 SWAP1 SLOAD SWAP1 PUSH2 0x100 EXP SWAP1 DIV PUSH20 0xFFFFFFFFFFFFFFFFFFFFFFFFFFFFFFFFFFFFFFFF AND DUP2 PUSH1 0x1 ADD PUSH0 PUSH2 0x100 EXP DUP2 SLOAD DUP2 PUSH20 0xFFFFFFFFFFFFFFFFFFFFFFFFFFFFFFFFFFFFFFFF MUL NOT AND SWAP1 DUP4 PUSH20 0xFFFFFFFFFFFFFFFFFFFFFFFFFFFFFFFFFFFFFFFF AND MUL OR SWAP1 SSTORE POP PUSH1 0x2 DUP3 ADD DUP2 PUSH1 0x2 ADD SWAP1 DUP2 PUSH2 0x47C SWAP2 SWAP1 PUSH2 0x1EBB JUMP JUMPDEST POP PUSH1 0x3 DUP3 ADD DUP2 PUSH1 0x3 ADD SWAP1 DUP2 PUSH2 0x491 SWAP2 SWAP1 PUSH2 0x1EBB JUMP JUMPDEST POP PUSH1 0x4 DUP3 ADD DUP2 PUSH1 0x4 ADD SWAP1 DUP2 PUSH2 0x4A6 SWAP2 SWAP1 PUSH2 0x1EBB JUMP JUMPDEST POP PUSH1 0x5 DUP3 ADD DUP2 PUSH1 0x5 ADD SWAP1 DUP2 PUSH2 0x4BB SWAP2 SWAP1 PUSH2 0x1EBB JUMP JUMPDEST POP SWAP1 POP POP PUSH32 0x76B5986448B778ACCBCAD74A1D0E785699894C90208CDB318547A8A2FB93BF28 CALLER DUP11 PUSH1 0x40 MLOAD PUSH2 0x4F0 SWAP3 SWAP2 SWAP1 PUSH2 0x1FCD JUMP JUMPDEST PUSH1 0x40 MLOAD DUP1 SWAP2 SUB SWAP1 LOG1 POP POP POP POP POP POP POP POP POP JUMP JUMPDEST PUSH1 0x2 DUP2 DUP2 SLOAD DUP2 LT PUSH2 0x512 JUMPI PUSH0 DUP1 REVERT JUMPDEST SWAP1 PUSH0 MSTORE PUSH1 0x20 PUSH0 KECCAK256 SWAP1 PUSH1 0x6 MUL ADD PUSH0 SWAP2 POP SWAP1 POP DUP1 PUSH0 ADD SLOAD SWAP1 DUP1 PUSH1 0x1 ADD PUSH0 SWAP1 SLOAD SWAP1 PUSH2 0x100 EXP SWAP1 DIV PUSH20 0xFFFFFFFFFFFFFFFFFFFFFFFFFFFFFFFFFFFFFFFF AND SWAP1 DUP1 PUSH1 0x2 ADD DUP1 SLOAD PUSH2 0x55C SWAP1 PUSH2 0x1C0A JUMP JUMPDEST DUP1 PUSH1 0x1F ADD PUSH1 0x20 DUP1 SWAP2 DIV MUL PUSH1 0x20 ADD PUSH1 0x40 MLOAD SWAP1 DUP2 ADD PUSH1 0x40 MSTORE DUP1 SWAP3 SWAP2 SWAP1 DUP2 DUP2 MSTORE PUSH1 0x20 ADD DUP3 DUP1 SLOAD PUSH2 0x588 SWAP1 PUSH2 0x1C0A JUMP JUMPDEST DUP1 ISZERO PUSH2 0x5D3 JUMPI DUP1 PUSH1 0x1F LT PUSH2 0x5AA JUMPI PUSH2 0x100 DUP1 DUP4 SLOAD DIV MUL DUP4 MSTORE SWAP2 PUSH1 0x20 ADD SWAP2 PUSH2 0x5D3 JUMP JUMPDEST DUP3 ADD SWAP2 SWAP1 PUSH0 MSTORE PUSH1 0x20 PUSH0 KECCAK256 SWAP1 JUMPDEST DUP2 SLOAD DUP2 MSTORE SWAP1 PUSH1 0x1 ADD SWAP1 PUSH1 0x20 ADD DUP1 DUP4 GT PUSH2 0x5B6 JUMPI DUP3 SWAP1 SUB PUSH1 0x1F AND DUP3 ADD SWAP2 JUMPDEST POP POP POP POP POP SWAP1 DUP1 PUSH1 0x3 ADD DUP1 SLOAD PUSH2 0x5E8 SWAP1 PUSH2 0x1C0A JUMP JUMPDEST DUP1 PUSH1 0x1F ADD PUSH1 0x20 DUP1 SWAP2 DIV MUL PUSH1 0x20 ADD PUSH1 0x40 MLOAD SWAP1 DUP2 ADD PUSH1 0x40 MSTORE DUP1 SWAP3 SWAP2 SWAP1 DUP2 DUP2 MSTORE PUSH1 0x20 ADD DUP3 DUP1 SLOAD PUSH2 0x614 SWAP1 PUSH2 0x1C0A JUMP JUMPDEST DUP1 ISZERO PUSH2 0x65F JUMPI DUP1 PUSH1 0x1F LT PUSH2 0x636 JUMPI PUSH2 0x100 DUP1 DUP4 SLOAD DIV MUL DUP4 MSTORE SWAP2 PUSH1 0x20 ADD SWAP2 PUSH2 0x65F JUMP JUMPDEST DUP3 ADD SWAP2 SWAP1 PUSH0 MSTORE PUSH1 0x20 PUSH0 KECCAK256 SWAP1 JUMPDEST DUP2 SLOAD DUP2 MSTORE SWAP1 PUSH1 0x1 ADD SWAP1 PUSH1 0x20 ADD DUP1 DUP4 GT PUSH2 0x642 JUMPI DUP3 SWAP1 SUB PUSH1 0x1F AND DUP3 ADD SWAP2 JUMPDEST POP POP POP POP POP SWAP1 DUP1 PUSH1 0x4 ADD DUP1 SLOAD PUSH2 0x674 SWAP1 PUSH2 0x1C0A JUMP JUMPDEST DUP1 PUSH1 0x1F ADD PUSH1 0x20 DUP1 SWAP2 DIV MUL PUSH1 0x20 ADD PUSH1 0x40 MLOAD SWAP1 DUP2 ADD PUSH1 0x40 MSTORE DUP1 SWAP3 SWAP2 SWAP1 DUP2 DUP2 MSTORE PUSH1 0x20 ADD DUP3 DUP1 SLOAD PUSH2 0x6A0 SWAP1 PUSH2 0x1C0A JUMP JUMPDEST DUP1 ISZERO PUSH2 0x6EB JUMPI DUP1 PUSH1 0x1F LT PUSH2 0x6C2 JUMPI PUSH2 0x100 DUP1 DUP4 SLOAD DIV MUL DUP4 MSTORE SWAP2 PUSH1 0x20 ADD SWAP2 PUSH2 0x6EB JUMP JUMPDEST DUP3 ADD SWAP2 SWAP1 PUSH0 MSTORE PUSH1 0x20 PUSH0 KECCAK256 SWAP1 JUMPDEST DUP2 SLOAD DUP2 MSTORE SWAP1 PUSH1 0x1 ADD SWAP1 PUSH1 0x20 ADD DUP1 DUP4 GT PUSH2 0x6CE JUMPI DUP3 SWAP1 SUB PUSH1 0x1F AND DUP3 ADD SWAP2 JUMPDEST POP POP POP POP POP SWAP1 DUP1 PUSH1 0x5 ADD DUP1 SLOAD PUSH2 0x700 SWAP1 PUSH2 0x1C0A JUMP JUMPDEST DUP1 PUSH1 0x1F ADD PUSH1 0x20 DUP1 SWAP2 DIV MUL PUSH1 0x20 ADD PUSH1 0x40 MLOAD SWAP1 DUP2 ADD PUSH1 0x40 MSTORE DUP1 SWAP3 SWAP2 SWAP1 DUP2 DUP2 MSTORE PUSH1 0x20 ADD DUP3 DUP1 SLOAD PUSH2 0x72C SWAP1 PUSH2 0x1C0A JUMP JUMPDEST DUP1 ISZERO PUSH2 0x777 JUMPI DUP1 PUSH1 0x1F LT PUSH2 0x74E JUMPI PUSH2 0x100 DUP1 DUP4 SLOAD DIV MUL DUP4 MSTORE SWAP2 PUSH1 0x20 ADD SWAP2 PUSH2 0x777 JUMP JUMPDEST DUP3 ADD SWAP2 SWAP1 PUSH0 MSTORE PUSH1 0x20 PUSH0 KECCAK256 SWAP1 JUMPDEST DUP2 SLOAD DUP2 MSTORE SWAP1 PUSH1 0x1 ADD SWAP1 PUSH1 0x20 ADD DUP1 DUP4 GT PUSH2 0x75A JUMPI DUP3 SWAP1 SUB PUSH1 0x1F AND DUP3 ADD SWAP2 JUMPDEST POP POP POP POP POP SWAP1 POP DUP7 JUMP JUMPDEST PUSH1 0x60 PUSH0 DUP1 PUSH1 0x2 DUP1 SLOAD SWAP1 POP PUSH8 0xFFFFFFFFFFFFFFFF DUP2 GT ISZERO PUSH2 0x7A4 JUMPI PUSH2 0x7A3 PUSH2 0x1445 JUMP JUMPDEST JUMPDEST PUSH1 0x40 MLOAD SWAP1 DUP1 DUP3 MSTORE DUP1 PUSH1 0x20 MUL PUSH1 0x20 ADD DUP3 ADD PUSH1 0x40 MSTORE DUP1 ISZERO PUSH2 0x7DD JUMPI DUP2 PUSH1 0x20 ADD JUMPDEST PUSH2 0x7CA PUSH2 0x1347 JUMP JUMPDEST DUP2 MSTORE PUSH1 0x20 ADD SWAP1 PUSH1 0x1 SWAP1 SUB SWAP1 DUP2 PUSH2 0x7C2 JUMPI SWAP1 POP JUMPDEST POP SWAP1 POP PUSH0 DUP1 JUMPDEST PUSH1 0x2 DUP1 SLOAD SWAP1 POP DUP2 LT ISZERO PUSH2 0xBE9 JUMPI CALLER PUSH20 0xFFFFFFFFFFFFFFFFFFFFFFFFFFFFFFFFFFFFFFFF AND PUSH1 0x2 DUP3 DUP2 SLOAD DUP2 LT PUSH2 0x81B JUMPI PUSH2 0x81A PUSH2 0x1FA0 JUMP JUMPDEST JUMPDEST SWAP1 PUSH0 MSTORE PUSH1 0x20 PUSH0 KECCAK256 SWAP1 PUSH1 0x6 MUL ADD PUSH1 0x1 ADD PUSH0 SWAP1 SLOAD SWAP1 PUSH2 0x100 EXP SWAP1 DIV PUSH20 0xFFFFFFFFFFFFFFFFFFFFFFFFFFFFFFFFFFFFFFFF AND PUSH20 0xFFFFFFFFFFFFFFFFFFFFFFFFFFFFFFFFFFFFFFFF AND EQ DUP1 ISZERO PUSH2 0x8DB JUMPI POP PUSH0 PUSH20 0xFFFFFFFFFFFFFFFFFFFFFFFFFFFFFFFFFFFFFFFF AND PUSH1 0x2 DUP3 DUP2 SLOAD DUP2 LT PUSH2 0x893 JUMPI PUSH2 0x892 PUSH2 0x1FA0 JUMP JUMPDEST JUMPDEST SWAP1 PUSH0 MSTORE PUSH1 0x20 PUSH0 KECCAK256 SWAP1 PUSH1 0x6 MUL ADD PUSH1 0x1 ADD PUSH0 SWAP1 SLOAD SWAP1 PUSH2 0x100 EXP SWAP1 DIV PUSH20 0xFFFFFFFFFFFFFFFFFFFFFFFFFFFFFFFFFFFFFFFF AND PUSH20 0xFFFFFFFFFFFFFFFFFFFFFFFFFFFFFFFFFFFFFFFF AND EQ ISZERO JUMPDEST ISZERO PUSH2 0xBD6 JUMPI PUSH1 0x2 DUP2 DUP2 SLOAD DUP2 LT PUSH2 0x8F4 JUMPI PUSH2 0x8F3 PUSH2 0x1FA0 JUMP JUMPDEST JUMPDEST SWAP1 PUSH0 MSTORE PUSH1 0x20 PUSH0 KECCAK256 SWAP1 PUSH1 0x6 MUL ADD PUSH1 0x40 MLOAD DUP1 PUSH1 0xC0 ADD PUSH1 0x40 MSTORE SWAP1 DUP2 PUSH0 DUP3 ADD SLOAD DUP2 MSTORE PUSH1 0x20 ADD PUSH1 0x1 DUP3 ADD PUSH0 SWAP1 SLOAD SWAP1 PUSH2 0x100 EXP SWAP1 DIV PUSH20 0xFFFFFFFFFFFFFFFFFFFFFFFFFFFFFFFFFFFFFFFF AND PUSH20 0xFFFFFFFFFFFFFFFFFFFFFFFFFFFFFFFFFFFFFFFF AND PUSH20 0xFFFFFFFFFFFFFFFFFFFFFFFFFFFFFFFFFFFFFFFF AND DUP2 MSTORE PUSH1 0x20 ADD PUSH1 0x2 DUP3 ADD DUP1 SLOAD PUSH2 0x979 SWAP1 PUSH2 0x1C0A JUMP JUMPDEST DUP1 PUSH1 0x1F ADD PUSH1 0x20 DUP1 SWAP2 DIV MUL PUSH1 0x20 ADD PUSH1 0x40 MLOAD SWAP1 DUP2 ADD PUSH1 0x40 MSTORE DUP1 SWAP3 SWAP2 SWAP1 DUP2 DUP2 MSTORE PUSH1 0x20 ADD DUP3 DUP1 SLOAD PUSH2 0x9A5 SWAP1 PUSH2 0x1C0A JUMP JUMPDEST DUP1 ISZERO PUSH2 0x9F0 JUMPI DUP1 PUSH1 0x1F LT PUSH2 0x9C7 JUMPI PUSH2 0x100 DUP1 DUP4 SLOAD DIV MUL DUP4 MSTORE SWAP2 PUSH1 0x20 ADD SWAP2 PUSH2 0x9F0 JUMP JUMPDEST DUP3 ADD SWAP2 SWAP1 PUSH0 MSTORE PUSH1 0x20 PUSH0 KECCAK256 SWAP1 JUMPDEST DUP2 SLOAD DUP2 MSTORE SWAP1 PUSH1 0x1 ADD SWAP1 PUSH1 0x20 ADD DUP1 DUP4 GT PUSH2 0x9D3 JUMPI DUP3 SWAP1 SUB PUSH1 0x1F AND DUP3 ADD SWAP2 JUMPDEST POP POP POP POP POP DUP2 MSTORE PUSH1 0x20 ADD PUSH1 0x3 DUP3 ADD DUP1 SLOAD PUSH2 0xA09 SWAP1 PUSH2 0x1C0A JUMP JUMPDEST DUP1 PUSH1 0x1F ADD PUSH1 0x20 DUP1 SWAP2 DIV MUL PUSH1 0x20 ADD PUSH1 0x40 MLOAD SWAP1 DUP2 ADD PUSH1 0x40 MSTORE DUP1 SWAP3 SWAP2 SWAP1 DUP2 DUP2 MSTORE PUSH1 0x20 ADD DUP3 DUP1 SLOAD PUSH2 0xA35 SWAP1 PUSH2 0x1C0A JUMP JUMPDEST DUP1 ISZERO PUSH2 0xA80 JUMPI DUP1 PUSH1 0x1F LT PUSH2 0xA57 JUMPI PUSH2 0x100 DUP1 DUP4 SLOAD DIV MUL DUP4 MSTORE SWAP2 PUSH1 0x20 ADD SWAP2 PUSH2 0xA80 JUMP JUMPDEST DUP3 ADD SWAP2 SWAP1 PUSH0 MSTORE PUSH1 0x20 PUSH0 KECCAK256 SWAP1 JUMPDEST DUP2 SLOAD DUP2 MSTORE SWAP1 PUSH1 0x1 ADD SWAP1 PUSH1 0x20 ADD DUP1 DUP4 GT PUSH2 0xA63 JUMPI DUP3 SWAP1 SUB PUSH1 0x1F AND DUP3 ADD SWAP2 JUMPDEST POP POP POP POP POP DUP2 MSTORE PUSH1 0x20 ADD PUSH1 0x4 DUP3 ADD DUP1 SLOAD PUSH2 0xA99 SWAP1 PUSH2 0x1C0A JUMP JUMPDEST DUP1 PUSH1 0x1F ADD PUSH1 0x20 DUP1 SWAP2 DIV MUL PUSH1 0x20 ADD PUSH1 0x40 MLOAD SWAP1 DUP2 ADD PUSH1 0x40 MSTORE DUP1 SWAP3 SWAP2 SWAP1 DUP2 DUP2 MSTORE PUSH1 0x20 ADD DUP3 DUP1 SLOAD PUSH2 0xAC5 SWAP1 PUSH2 0x1C0A JUMP JUMPDEST DUP1 ISZERO PUSH2 0xB10 JUMPI DUP1 PUSH1 0x1F LT PUSH2 0xAE7 JUMPI PUSH2 0x100 DUP1 DUP4 SLOAD DIV MUL DUP4 MSTORE SWAP2 PUSH1 0x20 ADD SWAP2 PUSH2 0xB10 JUMP JUMPDEST DUP3 ADD SWAP2 SWAP1 PUSH0 MSTORE PUSH1 0x20 PUSH0 KECCAK256 SWAP1 JUMPDEST DUP2 SLOAD DUP2 MSTORE SWAP1 PUSH1 0x1 ADD SWAP1 PUSH1 0x20 ADD DUP1 DUP4 GT PUSH2 0xAF3 JUMPI DUP3 SWAP1 SUB PUSH1 0x1F AND DUP3 ADD SWAP2 JUMPDEST POP POP POP POP POP DUP2 MSTORE PUSH1 0x20 ADD PUSH1 0x5 DUP3 ADD DUP1 SLOAD PUSH2 0xB29 SWAP1 PUSH2 0x1C0A JUMP JUMPDEST DUP1 PUSH1 0x1F ADD PUSH1 0x20 DUP1 SWAP2 DIV MUL PUSH1 0x20 ADD PUSH1 0x40 MLOAD SWAP1 DUP2 ADD PUSH1 0x40 MSTORE DUP1 SWAP3 SWAP2 SWAP1 DUP2 DUP2 MSTORE PUSH1 0x20 ADD DUP3 DUP1 SLOAD PUSH2 0xB55 SWAP1 PUSH2 0x1C0A JUMP JUMPDEST DUP1 ISZERO PUSH2 0xBA0 JUMPI DUP1 PUSH1 0x1F LT PUSH2 0xB77 JUMPI PUSH2 0x100 DUP1 DUP4 SLOAD DIV MUL DUP4 MSTORE SWAP2 PUSH1 0x20 ADD SWAP2 PUSH2 0xBA0 JUMP JUMPDEST DUP3 ADD SWAP2 SWAP1 PUSH0 MSTORE PUSH1 0x20 PUSH0 KECCAK256 SWAP1 JUMPDEST DUP2 SLOAD DUP2 MSTORE SWAP1 PUSH1 0x1 ADD SWAP1 PUSH1 0x20 ADD DUP1 DUP4 GT PUSH2 0xB83 JUMPI DUP3 SWAP1 SUB PUSH1 0x1F AND DUP3 ADD SWAP2 JUMPDEST POP POP POP POP POP DUP2 MSTORE POP POP DUP4 DUP4 DUP2 MLOAD DUP2 LT PUSH2 0xBBC JUMPI PUSH2 0xBBB PUSH2 0x1FA0 JUMP JUMPDEST JUMPDEST PUSH1 0x20 MUL PUSH1 0x20 ADD ADD DUP2 SWAP1 MSTORE POP DUP2 DUP1 PUSH2 0xBD2 SWAP1 PUSH2 0x2021 JUMP JUMPDEST SWAP3 POP POP JUMPDEST DUP1 DUP1 PUSH2 0xBE1 SWAP1 PUSH2 0x2021 JUMP JUMPDEST SWAP2 POP POP PUSH2 0x7E3 JUMP JUMPDEST POP DUP2 DUP2 SWAP4 POP SWAP4 POP POP POP SWAP1 SWAP2 JUMP JUMPDEST DUP3 DUP3 PUSH2 0xC01 DUP3 PUSH2 0x12F5 JUMP JUMPDEST ISZERO DUP1 ISZERO PUSH2 0xC14 JUMPI POP PUSH2 0xC12 DUP2 PUSH2 0x12F5 JUMP JUMPDEST ISZERO JUMPDEST PUSH2 0xC53 JUMPI PUSH1 0x40 MLOAD PUSH32 0x8C379A000000000000000000000000000000000000000000000000000000000 DUP2 MSTORE PUSH1 0x4 ADD PUSH2 0xC4A SWAP1 PUSH2 0x1AEF JUMP JUMPDEST PUSH1 0x40 MLOAD DUP1 SWAP2 SUB SWAP1 REVERT JUMPDEST PUSH2 0xC5C DUP7 PUSH2 0x12F5 JUMP JUMPDEST ISZERO PUSH2 0xC9C JUMPI PUSH1 0x40 MLOAD PUSH32 0x8C379A000000000000000000000000000000000000000000000000000000000 DUP2 MSTORE PUSH1 0x4 ADD PUSH2 0xC93 SWAP1 PUSH2 0x20B2 JUMP JUMPDEST PUSH1 0x40 MLOAD DUP1 SWAP2 SUB SWAP1 REVERT JUMPDEST PUSH0 PUSH2 0xCA9 DUP8 DUP8 DUP8 DUP8 PUSH2 0x1306 JUMP JUMPDEST SWAP1 POP PUSH0 PUSH1 0x40 MLOAD DUP1 PUSH1 0xC0 ADD PUSH1 0x40 MSTORE DUP1 DUP4 DUP2 MSTORE PUSH1 0x20 ADD CALLER PUSH20 0xFFFFFFFFFFFFFFFFFFFFFFFFFFFFFFFFFFFFFFFF AND DUP2 MSTORE PUSH1 0x20 ADD DUP10 DUP2 MSTORE PUSH1 0x20 ADD DUP9 DUP2 MSTORE PUSH1 0x20 ADD DUP8 DUP2 MSTORE PUSH1 0x20 ADD DUP7 DUP2 MSTORE POP SWAP1 POP DUP1 PUSH1 0x1 PUSH0 DUP5 DUP2 MSTORE PUSH1 0x20 ADD SWAP1 DUP2 MSTORE PUSH1 0x20 ADD PUSH0 KECCAK256 PUSH0 DUP3 ADD MLOAD DUP2 PUSH0 ADD SSTORE PUSH1 0x20 DUP3 ADD MLOAD DUP2 PUSH1 0x1 ADD PUSH0 PUSH2 0x100 EXP DUP2 SLOAD DUP2 PUSH20 0xFFFFFFFFFFFFFFFFFFFFFFFFFFFFFFFFFFFFFFFF MUL NOT AND SWAP1 DUP4 PUSH20 0xFFFFFFFFFFFFFFFFFFFFFFFFFFFFFFFFFFFFFFFF AND MUL OR SWAP1 SSTORE POP PUSH1 0x40 DUP3 ADD MLOAD DUP2 PUSH1 0x2 ADD SWAP1 DUP2 PUSH2 0xD66 SWAP2 SWAP1 PUSH2 0x1DD7 JUMP JUMPDEST POP PUSH1 0x60 DUP3 ADD MLOAD DUP2 PUSH1 0x3 ADD SWAP1 DUP2 PUSH2 0xD7C SWAP2 SWAP1 PUSH2 0x1DD7 JUMP JUMPDEST POP PUSH1 0x80 DUP3 ADD MLOAD DUP2 PUSH1 0x4 ADD SWAP1 DUP2 PUSH2 0xD92 SWAP2 SWAP1 PUSH2 0x1DD7 JUMP JUMPDEST POP PUSH1 0xA0 DUP3 ADD MLOAD DUP2 PUSH1 0x5 ADD SWAP1 DUP2 PUSH2 0xDA8 SWAP2 SWAP1 PUSH2 0x1DD7 JUMP JUMPDEST POP SWAP1 POP POP PUSH1 0x2 DUP2 SWAP1 DUP1 PUSH1 0x1 DUP2 SLOAD ADD DUP1 DUP3 SSTORE DUP1 SWAP2 POP POP PUSH1 0x1 SWAP1 SUB SWAP1 PUSH0 MSTORE PUSH1 0x20 PUSH0 KECCAK256 SWAP1 PUSH1 0x6 MUL ADD PUSH0 SWAP1 SWAP2 SWAP1 SWAP2 SWAP1 SWAP2 POP PUSH0 DUP3 ADD MLOAD DUP2 PUSH0 ADD SSTORE PUSH1 0x20 DUP3 ADD MLOAD DUP2 PUSH1 0x1 ADD PUSH0 PUSH2 0x100 EXP DUP2 SLOAD DUP2 PUSH20 0xFFFFFFFFFFFFFFFFFFFFFFFFFFFFFFFFFFFFFFFF MUL NOT AND SWAP1 DUP4 PUSH20 0xFFFFFFFFFFFFFFFFFFFFFFFFFFFFFFFFFFFFFFFF AND MUL OR SWAP1 SSTORE POP PUSH1 0x40 DUP3 ADD MLOAD DUP2 PUSH1 0x2 ADD SWAP1 DUP2 PUSH2 0xE38 SWAP2 SWAP1 PUSH2 0x1DD7 JUMP JUMPDEST POP PUSH1 0x60 DUP3 ADD MLOAD DUP2 PUSH1 0x3 ADD SWAP1 DUP2 PUSH2 0xE4E SWAP2 SWAP1 PUSH2 0x1DD7 JUMP JUMPDEST POP PUSH1 0x80 DUP3 ADD MLOAD DUP2 PUSH1 0x4 ADD SWAP1 DUP2 PUSH2 0xE64 SWAP2 SWAP1 PUSH2 0x1DD7 JUMP JUMPDEST POP PUSH1 0xA0 DUP3 ADD MLOAD DUP2 PUSH1 0x5 ADD SWAP1 DUP2 PUSH2 0xE7A SWAP2 SWAP1 PUSH2 0x1DD7 JUMP JUMPDEST POP POP POP PUSH1 0x1 PUSH1 0x2 DUP1 SLOAD SWAP1 POP PUSH2 0xE8F SWAP2 SWAP1 PUSH2 0x20D0 JUMP JUMPDEST PUSH1 0x3 PUSH0 DUP5 DUP2 MSTORE PUSH1 0x20 ADD SWAP1 DUP2 MSTORE PUSH1 0x20 ADD PUSH0 KECCAK256 DUP2 SWAP1 SSTORE POP PUSH32 0xA9822CC0EABC6AEF1C5DD603A158ADAD7D7DFA01B760A5B9031127808C0728E3 CALLER DUP10 DUP10 PUSH1 0x40 MLOAD PUSH2 0xED7 SWAP4 SWAP3 SWAP2 SWAP1 PUSH2 0x2103 JUMP JUMPDEST PUSH1 0x40 MLOAD DUP1 SWAP2 SUB SWAP1 LOG1 POP POP POP POP POP POP POP POP JUMP JUMPDEST PUSH0 DUP1 SLOAD SWAP1 PUSH2 0x100 EXP SWAP1 DIV PUSH20 0xFFFFFFFFFFFFFFFFFFFFFFFFFFFFFFFFFFFFFFFF AND DUP2 JUMP JUMPDEST PUSH0 PUSH1 0x3 PUSH0 DUP4 DUP2 MSTORE PUSH1 0x20 ADD SWAP1 DUP2 MSTORE PUSH1 0x20 ADD PUSH0 KECCAK256 SLOAD SWAP1 POP PUSH0 PUSH1 0x1 PUSH1 0x2 DUP1 SLOAD SWAP1 POP PUSH2 0xF34 SWAP2 SWAP1 PUSH2 0x20D0 JUMP JUMPDEST SWAP1 POP PUSH1 0x60 DUP1 DUP3 DUP5 EQ PUSH2 0x117D JUMPI PUSH0 PUSH1 0x2 DUP5 DUP2 SLOAD DUP2 LT PUSH2 0xF55 JUMPI PUSH2 0xF54 PUSH2 0x1FA0 JUMP JUMPDEST JUMPDEST SWAP1 PUSH0 MSTORE PUSH1 0x20 PUSH0 KECCAK256 SWAP1 PUSH1 0x6 MUL ADD SWAP1 POP DUP1 PUSH1 0x2 ADD DUP1 SLOAD PUSH2 0xF72 SWAP1 PUSH2 0x1C0A JUMP JUMPDEST DUP1 PUSH1 0x1F ADD PUSH1 0x20 DUP1 SWAP2 DIV MUL PUSH1 0x20 ADD PUSH1 0x40 MLOAD SWAP1 DUP2 ADD PUSH1 0x40 MSTORE DUP1 SWAP3 SWAP2 SWAP1 DUP2 DUP2 MSTORE PUSH1 0x20 ADD DUP3 DUP1 SLOAD PUSH2 0xF9E SWAP1 PUSH2 0x1C0A JUMP JUMPDEST DUP1 ISZERO PUSH2 0xFE9 JUMPI DUP1 PUSH1 0x1F LT PUSH2 0xFC0 JUMPI PUSH2 0x100 DUP1 DUP4 SLOAD DIV MUL DUP4 MSTORE SWAP2 PUSH1 0x20 ADD SWAP2 PUSH2 0xFE9 JUMP JUMPDEST DUP3 ADD SWAP2 SWAP1 PUSH0 MSTORE PUSH1 0x20 PUSH0 KECCAK256 SWAP1 JUMPDEST DUP2 SLOAD DUP2 MSTORE SWAP1 PUSH1 0x1 ADD SWAP1 PUSH1 0x20 ADD DUP1 DUP4 GT PUSH2 0xFCC JUMPI DUP3 SWAP1 SUB PUSH1 0x1F AND DUP3 ADD SWAP2 JUMPDEST POP POP POP POP POP SWAP3 POP DUP1 PUSH1 0x3 ADD DUP1 SLOAD PUSH2 0xFFF SWAP1 PUSH2 0x1C0A JUMP JUMPDEST DUP1 PUSH1 0x1F ADD PUSH1 0x20 DUP1 SWAP2 DIV MUL PUSH1 0x20 ADD PUSH1 0x40 MLOAD SWAP1 DUP2 ADD PUSH1 0x40 MSTORE DUP1 SWAP3 SWAP2 SWAP1 DUP2 DUP2 MSTORE PUSH1 0x20 ADD DUP3 DUP1 SLOAD PUSH2 0x102B SWAP1 PUSH2 0x1C0A JUMP JUMPDEST DUP1 ISZERO PUSH2 0x1076 JUMPI DUP1 PUSH1 0x1F LT PUSH2 0x104D JUMPI PUSH2 0x100 DUP1 DUP4 SLOAD DIV MUL DUP4 MSTORE SWAP2 PUSH1 0x20 ADD SWAP2 PUSH2 0x1076 JUMP JUMPDEST DUP3 ADD SWAP2 SWAP1 PUSH0 MSTORE PUSH1 0x20 PUSH0 KECCAK256 SWAP1 JUMPDEST DUP2 SLOAD DUP2 MSTORE SWAP1 PUSH1 0x1 ADD SWAP1 PUSH1 0x20 ADD DUP1 DUP4 GT PUSH2 0x1059 JUMPI DUP3 SWAP1 SUB PUSH1 0x1F AND DUP3 ADD SWAP2 JUMPDEST POP POP POP POP POP SWAP2 POP DUP1 PUSH1 0x2 DUP7 DUP2 SLOAD DUP2 LT PUSH2 0x1092 JUMPI PUSH2 0x1091 PUSH2 0x1FA0 JUMP JUMPDEST JUMPDEST SWAP1 PUSH0 MSTORE PUSH1 0x20 PUSH0 KECCAK256 SWAP1 PUSH1 0x6 MUL ADD PUSH0 DUP3 ADD SLOAD DUP2 PUSH0 ADD SSTORE PUSH1 0x1 DUP3 ADD PUSH0 SWAP1 SLOAD SWAP1 PUSH2 0x100 EXP SWAP1 DIV PUSH20 0xFFFFFFFFFFFFFFFFFFFFFFFFFFFFFFFFFFFFFFFF AND DUP2 PUSH1 0x1 ADD PUSH0 PUSH2 0x100 EXP DUP2 SLOAD DUP2 PUSH20 0xFFFFFFFFFFFFFFFFFFFFFFFFFFFFFFFFFFFFFFFF MUL NOT AND SWAP1 DUP4 PUSH20 0xFFFFFFFFFFFFFFFFFFFFFFFFFFFFFFFFFFFFFFFF AND MUL OR SWAP1 SSTORE POP PUSH1 0x2 DUP3 ADD DUP2 PUSH1 0x2 ADD SWAP1 DUP2 PUSH2 0x111F SWAP2 SWAP1 PUSH2 0x1EBB JUMP JUMPDEST POP PUSH1 0x3 DUP3 ADD DUP2 PUSH1 0x3 ADD SWAP1 DUP2 PUSH2 0x1134 SWAP2 SWAP1 PUSH2 0x1EBB JUMP JUMPDEST POP PUSH1 0x4 DUP3 ADD DUP2 PUSH1 0x4 ADD SWAP1 DUP2 PUSH2 0x1149 SWAP2 SWAP1 PUSH2 0x1EBB JUMP JUMPDEST POP PUSH1 0x5 DUP3 ADD DUP2 PUSH1 0x5 ADD SWAP1 DUP2 PUSH2 0x115E SWAP2 SWAP1 PUSH2 0x1EBB JUMP JUMPDEST POP SWAP1 POP POP DUP5 PUSH1 0x3 PUSH0 DUP4 PUSH0 ADD SLOAD DUP2 MSTORE PUSH1 0x20 ADD SWAP1 DUP2 MSTORE PUSH1 0x20 ADD PUSH0 KECCAK256 DUP2 SWAP1 SSTORE POP POP JUMPDEST PUSH1 0x2 DUP1 SLOAD DUP1 PUSH2 0x118F JUMPI PUSH2 0x118E PUSH2 0x2146 JUMP JUMPDEST JUMPDEST PUSH1 0x1 SWAP1 SUB DUP2 DUP2 SWAP1 PUSH0 MSTORE PUSH1 0x20 PUSH0 KECCAK256 SWAP1 PUSH1 0x6 MUL ADD PUSH0 DUP1 DUP3 ADD PUSH0 SWAP1 SSTORE PUSH1 0x1 DUP3 ADD PUSH0 PUSH2 0x100 EXP DUP2 SLOAD SWAP1 PUSH20 0xFFFFFFFFFFFFFFFFFFFFFFFFFFFFFFFFFFFFFFFF MUL NOT AND SWAP1 SSTORE PUSH1 0x2 DUP3 ADD PUSH0 PUSH2 0x11DD SWAP2 SWAP1 PUSH2 0x1391 JUMP JUMPDEST PUSH1 0x3 DUP3 ADD PUSH0 PUSH2 0x11EC SWAP2 SWAP1 PUSH2 0x1391 JUMP JUMPDEST PUSH1 0x4 DUP3 ADD PUSH0 PUSH2 0x11FB SWAP2 SWAP1 PUSH2 0x1391 JUMP JUMPDEST PUSH1 0x5 DUP3 ADD PUSH0 PUSH2 0x120A SWAP2 SWAP1 PUSH2 0x1391 JUMP JUMPDEST POP POP SWAP1 SSTORE PUSH1 0x1 PUSH0 DUP7 DUP2 MSTORE PUSH1 0x20 ADD SWAP1 DUP2 MSTORE PUSH1 0x20 ADD PUSH0 KECCAK256 PUSH0 DUP1 DUP3 ADD PUSH0 SWAP1 SSTORE PUSH1 0x1 DUP3 ADD PUSH0 PUSH2 0x100 EXP DUP2 SLOAD SWAP1 PUSH20 0xFFFFFFFFFFFFFFFFFFFFFFFFFFFFFFFFFFFFFFFF MUL NOT AND SWAP1 SSTORE PUSH1 0x2 DUP3 ADD PUSH0 PUSH2 0x125B SWAP2 SWAP1 PUSH2 0x1391 JUMP JUMPDEST PUSH1 0x3 DUP3 ADD PUSH0 PUSH2 0x126A SWAP2 SWAP1 PUSH2 0x1391 JUMP JUMPDEST PUSH1 0x4 DUP3 ADD PUSH0 PUSH2 0x1279 SWAP2 SWAP1 PUSH2 0x1391 JUMP JUMPDEST PUSH1 0x5 DUP3 ADD PUSH0 PUSH2 0x1288 SWAP2 SWAP1 PUSH2 0x1391 JUMP JUMPDEST POP POP PUSH1 0x3 PUSH0 DUP7 DUP2 MSTORE PUSH1 0x20 ADD SWAP1 DUP2 MSTORE PUSH1 0x20 ADD PUSH0 KECCAK256 PUSH0 SWAP1 SSTORE PUSH32 0xB3F2C0AA6113BAAC4DEDB6C1515FA11432FEDF07A6086743D28B5D82EEB6904 CALLER DUP4 DUP4 PUSH1 0x40 MLOAD PUSH2 0x12D1 SWAP4 SWAP3 SWAP2 SWAP1 PUSH2 0x2103 JUMP JUMPDEST PUSH1 0x40 MLOAD DUP1 SWAP2 SUB SWAP1 LOG1 POP POP POP POP POP JUMP JUMPDEST PUSH1 0x3 PUSH1 0x20 MSTORE DUP1 PUSH0 MSTORE PUSH1 0x40 PUSH0 KECCAK256 PUSH0 SWAP2 POP SWAP1 POP SLOAD DUP2 JUMP JUMPDEST PUSH0 DUP1 DUP3 SWAP1 POP PUSH0 DUP2 MLOAD EQ SWAP2 POP POP SWAP2 SWAP1 POP JUMP JUMPDEST PUSH0 DUP1 CALLER DUP7 DUP7 DUP7 DUP7 PUSH1 0x40 MLOAD PUSH1 0x20 ADD PUSH2 0x1321 SWAP6 SWAP5 SWAP4 SWAP3 SWAP2 SWAP1 PUSH2 0x21F2 JUMP JUMPDEST PUSH1 0x40 MLOAD PUSH1 0x20 DUP2 DUP4 SUB SUB DUP2 MSTORE SWAP1 PUSH1 0x40 MSTORE DUP1 MLOAD SWAP1 PUSH1 0x20 ADD KECCAK256 SWAP1 POP DUP1 PUSH0 SHR SWAP2 POP POP SWAP5 SWAP4 POP POP POP POP JUMP JUMPDEST PUSH1 0x40 MLOAD DUP1 PUSH1 0xC0 ADD PUSH1 0x40 MSTORE DUP1 PUSH0 DUP2 MSTORE PUSH1 0x20 ADD PUSH0 PUSH20 0xFFFFFFFFFFFFFFFFFFFFFFFFFFFFFFFFFFFFFFFF AND DUP2 MSTORE PUSH1 0x20 ADD PUSH1 0x60 DUP2 MSTORE PUSH1 0x20 ADD PUSH1 0x60 DUP2 MSTORE PUSH1 0x20 ADD PUSH1 0x60 DUP2 MSTORE PUSH1 0x20 ADD PUSH1 0x60 DUP2 MSTORE POP SWAP1 JUMP JUMPDEST POP DUP1 SLOAD PUSH2 0x139D SWAP1 PUSH2 0x1C0A JUMP JUMPDEST PUSH0 DUP3 SSTORE DUP1 PUSH1 0x1F LT PUSH2 0x13AE JUMPI POP PUSH2 0x13CB JUMP JUMPDEST PUSH1 0x1F ADD PUSH1 0x20 SWAP1 DIV SWAP1 PUSH0 MSTORE PUSH1 0x20 PUSH0 KECCAK256 SWAP1 DUP2 ADD SWAP1 PUSH2 0x13CA SWAP2 SWAP1 PUSH2 0x13CE JUMP JUMPDEST JUMPDEST POP JUMP JUMPDEST JUMPDEST DUP1 DUP3 GT ISZERO PUSH2 0x13E5 JUMPI PUSH0 DUP2 PUSH0 SWAP1 SSTORE POP PUSH1 0x1 ADD PUSH2 0x13CF JUMP JUMPDEST POP SWAP1 JUMP JUMPDEST PUSH0 PUSH1 0x40 MLOAD SWAP1 POP SWAP1 JUMP JUMPDEST PUSH0 DUP1 REVERT JUMPDEST PUSH0 DUP1 REVERT JUMPDEST PUSH0 DUP2 SWAP1 POP SWAP2 SWAP1 POP JUMP JUMPDEST PUSH2 0x140C DUP2 PUSH2 0x13FA JUMP JUMPDEST DUP2 EQ PUSH2 0x1416 JUMPI PUSH0 DUP1 REVERT JUMPDEST POP JUMP JUMPDEST PUSH0 DUP2 CALLDATALOAD SWAP1 POP PUSH2 0x1427 DUP2 PUSH2 0x1403 JUMP JUMPDEST SWAP3 SWAP2 POP POP JUMP JUMPDEST PUSH0 DUP1 REVERT JUMPDEST PUSH0 DUP1 REVERT JUMPDEST PUSH0 PUSH1 0x1F NOT PUSH1 0x1F DUP4 ADD AND SWAP1 POP SWAP2 SWAP1 POP JUMP JUMPDEST PUSH32 0x4E487B7100000000000000000000000000000000000000000000000000000000 PUSH0 MSTORE PUSH1 0x41 PUSH1 0x4 MSTORE PUSH1 0x24 PUSH0 REVERT JUMPDEST PUSH2 0x147B DUP3 PUSH2 0x1435 JUMP JUMPDEST DUP2 ADD DUP2 DUP2 LT PUSH8 0xFFFFFFFFFFFFFFFF DUP3 GT OR ISZERO PUSH2 0x149A JUMPI PUSH2 0x1499 PUSH2 0x1445 JUMP JUMPDEST JUMPDEST DUP1 PUSH1 0x40 MSTORE POP POP POP JUMP JUMPDEST PUSH0 PUSH2 0x14AC PUSH2 0x13E9 JUMP JUMPDEST SWAP1 POP PUSH2 0x14B8 DUP3 DUP3 PUSH2 0x1472 JUMP JUMPDEST SWAP2 SWAP1 POP JUMP JUMPDEST PUSH0 PUSH8 0xFFFFFFFFFFFFFFFF DUP3 GT ISZERO PUSH2 0x14D7 JUMPI PUSH2 0x14D6 PUSH2 0x1445 JUMP JUMPDEST JUMPDEST PUSH2 0x14E0 DUP3 PUSH2 0x1435 JUMP JUMPDEST SWAP1 POP PUSH1 0x20 DUP2 ADD SWAP1 POP SWAP2 SWAP1 POP JUMP JUMPDEST DUP3 DUP2 DUP4 CALLDATACOPY PUSH0 DUP4 DUP4 ADD MSTORE POP POP POP JUMP JUMPDEST PUSH0 PUSH2 0x150D PUSH2 0x1508 DUP5 PUSH2 0x14BD JUMP JUMPDEST PUSH2 0x14A3 JUMP JUMPDEST SWAP1 POP DUP3 DUP2 MSTORE PUSH1 0x20 DUP2 ADD DUP5 DUP5 DUP5 ADD GT ISZERO PUSH2 0x1529 JUMPI PUSH2 0x1528 PUSH2 0x1431 JUMP JUMPDEST JUMPDEST PUSH2 0x1534 DUP5 DUP3 DUP6 PUSH2 0x14ED JUMP JUMPDEST POP SWAP4 SWAP3 POP POP POP JUMP JUMPDEST PUSH0 DUP3 PUSH1 0x1F DUP4 ADD SLT PUSH2 0x1550 JUMPI PUSH2 0x154F PUSH2 0x142D JUMP JUMPDEST JUMPDEST DUP2 CALLDATALOAD PUSH2 0x1560 DUP5 DUP3 PUSH1 0x20 DUP7 ADD PUSH2 0x14FB JUMP JUMPDEST SWAP2 POP POP SWAP3 SWAP2 POP POP JUMP JUMPDEST PUSH0 DUP1 PUSH0 DUP1 PUSH1 0x80 DUP6 DUP8 SUB SLT ISZERO PUSH2 0x1581 JUMPI PUSH2 0x1580 PUSH2 0x13F2 JUMP JUMPDEST JUMPDEST PUSH0 PUSH2 0x158E DUP8 DUP3 DUP9 ADD PUSH2 0x1419 JUMP JUMPDEST SWAP5 POP POP PUSH1 0x20 DUP6 ADD CALLDATALOAD PUSH8 0xFFFFFFFFFFFFFFFF DUP2 GT ISZERO PUSH2 0x15AF JUMPI PUSH2 0x15AE PUSH2 0x13F6 JUMP JUMPDEST JUMPDEST PUSH2 0x15BB DUP8 DUP3 DUP9 ADD PUSH2 0x153C JUMP JUMPDEST SWAP4 POP POP PUSH1 0x40 DUP6 ADD CALLDATALOAD PUSH8 0xFFFFFFFFFFFFFFFF DUP2 GT ISZERO PUSH2 0x15DC JUMPI PUSH2 0x15DB PUSH2 0x13F6 JUMP JUMPDEST JUMPDEST PUSH2 0x15E8 DUP8 DUP3 DUP9 ADD PUSH2 0x153C JUMP JUMPDEST SWAP3 POP POP PUSH1 0x60 DUP6 ADD CALLDATALOAD PUSH8 0xFFFFFFFFFFFFFFFF DUP2 GT ISZERO PUSH2 0x1609 JUMPI PUSH2 0x1608 PUSH2 0x13F6 JUMP JUMPDEST JUMPDEST PUSH2 0x1615 DUP8 DUP3 DUP9 ADD PUSH2 0x153C JUMP JUMPDEST SWAP2 POP POP SWAP3 SWAP6 SWAP2 SWAP5 POP SWAP3 POP JUMP JUMPDEST PUSH0 PUSH1 0x20 DUP3 DUP5 SUB SLT ISZERO PUSH2 0x1636 JUMPI PUSH2 0x1635 PUSH2 0x13F2 JUMP JUMPDEST JUMPDEST PUSH0 PUSH2 0x1643 DUP5 DUP3 DUP6 ADD PUSH2 0x1419 JUMP JUMPDEST SWAP2 POP POP SWAP3 SWAP2 POP POP JUMP JUMPDEST PUSH2 0x1655 DUP2 PUSH2 0x13FA JUMP JUMPDEST DUP3 MSTORE POP POP JUMP JUMPDEST PUSH0 PUSH20 0xFFFFFFFFFFFFFFFFFFFFFFFFFFFFFFFFFFFFFFFF DUP3 AND SWAP1 POP SWAP2 SWAP1 POP JUMP JUMPDEST PUSH0 PUSH2 0x1684 DUP3 PUSH2 0x165B JUMP JUMPDEST SWAP1 POP SWAP2 SWAP1 POP JUMP JUMPDEST PUSH2 0x1694 DUP2 PUSH2 0x167A JUMP JUMPDEST DUP3 MSTORE POP POP JUMP JUMPDEST PUSH0 DUP2 MLOAD SWAP1 POP SWAP2 SWAP1 POP JUMP JUMPDEST PUSH0 DUP3 DUP3 MSTORE PUSH1 0x20 DUP3 ADD SWAP1 POP SWAP3 SWAP2 POP POP JUMP JUMPDEST PUSH0 JUMPDEST DUP4 DUP2 LT ISZERO PUSH2 0x16D1 JUMPI DUP1 DUP3 ADD MLOAD DUP2 DUP5 ADD MSTORE PUSH1 0x20 DUP2 ADD SWAP1 POP PUSH2 0x16B6 JUMP JUMPDEST PUSH0 DUP5 DUP5 ADD MSTORE POP POP POP POP JUMP JUMPDEST PUSH0 PUSH2 0x16E6 DUP3 PUSH2 0x169A JUMP JUMPDEST PUSH2 0x16F0 DUP2 DUP6 PUSH2 0x16A4 JUMP JUMPDEST SWAP4 POP PUSH2 0x1700 DUP2 DUP6 PUSH1 0x20 DUP7 ADD PUSH2 0x16B4 JUMP JUMPDEST PUSH2 0x1709 DUP2 PUSH2 0x1435 JUMP JUMPDEST DUP5 ADD SWAP2 POP POP SWAP3 SWAP2 POP POP JUMP JUMPDEST PUSH0 PUSH1 0xC0 DUP3 ADD SWAP1 POP PUSH2 0x1727 PUSH0 DUP4 ADD DUP10 PUSH2 0x164C JUMP JUMPDEST PUSH2 0x1734 PUSH1 0x20 DUP4 ADD DUP9 PUSH2 0x168B JUMP JUMPDEST DUP2 DUP2 SUB PUSH1 0x40 DUP4 ADD MSTORE PUSH2 0x1746 DUP2 DUP8 PUSH2 0x16DC JUMP JUMPDEST SWAP1 POP DUP2 DUP2 SUB PUSH1 0x60 DUP4 ADD MSTORE PUSH2 0x175A DUP2 DUP7 PUSH2 0x16DC JUMP JUMPDEST SWAP1 POP DUP2 DUP2 SUB PUSH1 0x80 DUP4 ADD MSTORE PUSH2 0x176E DUP2 DUP6 PUSH2 0x16DC JUMP JUMPDEST SWAP1 POP DUP2 DUP2 SUB PUSH1 0xA0 DUP4 ADD MSTORE PUSH2 0x1782 DUP2 DUP5 PUSH2 0x16DC JUMP JUMPDEST SWAP1 POP SWAP8 SWAP7 POP POP POP POP POP POP POP JUMP JUMPDEST PUSH0 DUP2 MLOAD SWAP1 POP SWAP2 SWAP1 POP JUMP JUMPDEST PUSH0 DUP3 DUP3 MSTORE PUSH1 0x20 DUP3 ADD SWAP1 POP SWAP3 SWAP2 POP POP JUMP JUMPDEST PUSH0 DUP2 SWAP1 POP PUSH1 0x20 DUP3 ADD SWAP1 POP SWAP2 SWAP1 POP JUMP JUMPDEST PUSH2 0x17C1 DUP2 PUSH2 0x13FA JUMP JUMPDEST DUP3 MSTORE POP POP JUMP JUMPDEST PUSH2 0x17D0 DUP2 PUSH2 0x167A JUMP JUMPDEST DUP3 MSTORE POP POP JUMP JUMPDEST PUSH0 DUP3 DUP3 MSTORE PUSH1 0x20 DUP3 ADD SWAP1 POP SWAP3 SWAP2 POP POP JUMP JUMPDEST PUSH0 PUSH2 0x17F0 DUP3 PUSH2 0x169A JUMP JUMPDEST PUSH2 0x17FA DUP2 DUP6 PUSH2 0x17D6 JUMP JUMPDEST SWAP4 POP PUSH2 0x180A DUP2 DUP6 PUSH1 0x20 DUP7 ADD PUSH2 0x16B4 JUMP JUMPDEST PUSH2 0x1813 DUP2 PUSH2 0x1435 JUMP JUMPDEST DUP5 ADD SWAP2 POP POP SWAP3 SWAP2 POP POP JUMP JUMPDEST PUSH0 PUSH1 0xC0 DUP4 ADD PUSH0 DUP4 ADD MLOAD PUSH2 0x1833 PUSH0 DUP7 ADD DUP3 PUSH2 0x17B8 JUMP JUMPDEST POP PUSH1 0x20 DUP4 ADD MLOAD PUSH2 0x1846 PUSH1 0x20 DUP7 ADD DUP3 PUSH2 0x17C7 JUMP JUMPDEST POP PUSH1 0x40 DUP4 ADD MLOAD DUP5 DUP3 SUB PUSH1 0x40 DUP7 ADD MSTORE PUSH2 0x185E DUP3 DUP3 PUSH2 0x17E6 JUMP JUMPDEST SWAP2 POP POP PUSH1 0x60 DUP4 ADD MLOAD DUP5 DUP3 SUB PUSH1 0x60 DUP7 ADD MSTORE PUSH2 0x1878 DUP3 DUP3 PUSH2 0x17E6 JUMP JUMPDEST SWAP2 POP POP PUSH1 0x80 DUP4 ADD MLOAD DUP5 DUP3 SUB PUSH1 0x80 DUP7 ADD MSTORE PUSH2 0x1892 DUP3 DUP3 PUSH2 0x17E6 JUMP JUMPDEST SWAP2 POP POP PUSH1 0xA0 DUP4 ADD MLOAD DUP5 DUP3 SUB PUSH1 0xA0 DUP7 ADD MSTORE PUSH2 0x18AC DUP3 DUP3 PUSH2 0x17E6 JUMP JUMPDEST SWAP2 POP POP DUP1 SWAP2 POP POP SWAP3 SWAP2 POP POP JUMP JUMPDEST PUSH0 PUSH2 0x18C4 DUP4 DUP4 PUSH2 0x181E JUMP JUMPDEST SWAP1 POP SWAP3 SWAP2 POP POP JUMP JUMPDEST PUSH0 PUSH1 0x20 DUP3 ADD SWAP1 POP SWAP2 SWAP1 POP JUMP JUMPDEST PUSH0 PUSH2 0x18E2 DUP3 PUSH2 0x178F JUMP JUMPDEST PUSH2 0x18EC DUP2 DUP6 PUSH2 0x1799 JUMP JUMPDEST SWAP4 POP DUP4 PUSH1 0x20 DUP3 MUL DUP6 ADD PUSH2 0x18FE DUP6 PUSH2 0x17A9 JUMP JUMPDEST DUP1 PUSH0 JUMPDEST DUP6 DUP2 LT ISZERO PUSH2 0x1939 JUMPI DUP5 DUP5 SUB DUP10 MSTORE DUP2 MLOAD PUSH2 0x191A DUP6 DUP3 PUSH2 0x18B9 JUMP JUMPDEST SWAP5 POP PUSH2 0x1925 DUP4 PUSH2 0x18CC JUMP JUMPDEST SWAP3 POP PUSH1 0x20 DUP11 ADD SWAP10 POP POP PUSH1 0x1 DUP2 ADD SWAP1 POP PUSH2 0x1901 JUMP JUMPDEST POP DUP3 SWAP8 POP DUP8 SWAP6 POP POP POP POP POP POP SWAP3 SWAP2 POP POP JUMP JUMPDEST PUSH0 PUSH1 0x40 DUP3 ADD SWAP1 POP DUP2 DUP2 SUB PUSH0 DUP4 ADD MSTORE PUSH2 0x1963 DUP2 DUP6 PUSH2 0x18D8 JUMP JUMPDEST SWAP1 POP PUSH2 0x1972 PUSH1 0x20 DUP4 ADD DUP5 PUSH2 0x164C JUMP JUMPDEST SWAP4 SWAP3 POP POP POP JUMP JUMPDEST PUSH0 DUP1 PUSH0 DUP1 PUSH1 0x80 DUP6 DUP8 SUB SLT ISZERO PUSH2 0x1991 JUMPI PUSH2 0x1990 PUSH2 0x13F2 JUMP JUMPDEST JUMPDEST PUSH0 DUP6 ADD CALLDATALOAD PUSH8 0xFFFFFFFFFFFFFFFF DUP2 GT ISZERO PUSH2 0x19AE JUMPI PUSH2 0x19AD PUSH2 0x13F6 JUMP JUMPDEST JUMPDEST PUSH2 0x19BA DUP8 DUP3 DUP9 ADD PUSH2 0x153C JUMP JUMPDEST SWAP5 POP POP PUSH1 0x20 DUP6 ADD CALLDATALOAD PUSH8 0xFFFFFFFFFFFFFFFF DUP2 GT ISZERO PUSH2 0x19DB JUMPI PUSH2 0x19DA PUSH2 0x13F6 JUMP JUMPDEST JUMPDEST PUSH2 0x19E7 DUP8 DUP3 DUP9 ADD PUSH2 0x153C JUMP JUMPDEST SWAP4 POP POP PUSH1 0x40 DUP6 ADD CALLDATALOAD PUSH8 0xFFFFFFFFFFFFFFFF DUP2 GT ISZERO PUSH2 0x1A08 JUMPI PUSH2 0x1A07 PUSH2 0x13F6 JUMP JUMPDEST JUMPDEST PUSH2 0x1A14 DUP8 DUP3 DUP9 ADD PUSH2 0x153C JUMP JUMPDEST SWAP3 POP POP PUSH1 0x60 DUP6 ADD CALLDATALOAD PUSH8 0xFFFFFFFFFFFFFFFF DUP2 GT ISZERO PUSH2 0x1A35 JUMPI PUSH2 0x1A34 PUSH2 0x13F6 JUMP JUMPDEST JUMPDEST PUSH2 0x1A41 DUP8 DUP3 DUP9 ADD PUSH2 0x153C JUMP JUMPDEST SWAP2 POP POP SWAP3 SWAP6 SWAP2 SWAP5 POP SWAP3 POP JUMP JUMPDEST PUSH0 PUSH1 0x20 DUP3 ADD SWAP1 POP PUSH2 0x1A60 PUSH0 DUP4 ADD DUP5 PUSH2 0x168B JUMP JUMPDEST SWAP3 SWAP2 POP POP JUMP JUMPDEST PUSH0 PUSH1 0x20 DUP3 ADD SWAP1 POP PUSH2 0x1A79 PUSH0 DUP4 ADD DUP5 PUSH2 0x164C JUMP JUMPDEST SWAP3 SWAP2 POP POP JUMP JUMPDEST PUSH32 0x4163636F756E7420616E642050617373776F72642063616E6E6F742062652065 PUSH0 DUP3 ADD MSTORE PUSH32 0x6D70747921000000000000000000000000000000000000000000000000000000 PUSH1 0x20 DUP3 ADD MSTORE POP JUMP JUMPDEST PUSH0 PUSH2 0x1AD9 PUSH1 0x25 DUP4 PUSH2 0x16A4 JUMP JUMPDEST SWAP2 POP PUSH2 0x1AE4 DUP3 PUSH2 0x1A7F JUMP JUMPDEST PUSH1 0x40 DUP3 ADD SWAP1 POP SWAP2 SWAP1 POP JUMP JUMPDEST PUSH0 PUSH1 0x20 DUP3 ADD SWAP1 POP DUP2 DUP2 SUB PUSH0 DUP4 ADD MSTORE PUSH2 0x1B06 DUP2 PUSH2 0x1ACD JUMP JUMPDEST SWAP1 POP SWAP2 SWAP1 POP JUMP JUMPDEST PUSH32 0x4B657949642057726F6E67210000000000000000000000000000000000000000 PUSH0 DUP3 ADD MSTORE POP JUMP JUMPDEST PUSH0 PUSH2 0x1B41 PUSH1 0xC DUP4 PUSH2 0x16A4 JUMP JUMPDEST SWAP2 POP PUSH2 0x1B4C DUP3 PUSH2 0x1B0D JUMP JUMPDEST PUSH1 0x20 DUP3 ADD SWAP1 POP SWAP2 SWAP1 POP JUMP JUMPDEST PUSH0 PUSH1 0x20 DUP3 ADD SWAP1 POP DUP2 DUP2 SUB PUSH0 DUP4 ADD MSTORE PUSH2 0x1B6E DUP2 PUSH2 0x1B35 JUMP JUMPDEST SWAP1 POP SWAP2 SWAP1 POP JUMP JUMPDEST PUSH32 0x4F6E6C79206F776E65722063616E2063616C6C20746869732100000000000000 PUSH0 DUP3 ADD MSTORE POP JUMP JUMPDEST PUSH0 PUSH2 0x1BA9 PUSH1 0x19 DUP4 PUSH2 0x16A4 JUMP JUMPDEST SWAP2 POP PUSH2 0x1BB4 DUP3 PUSH2 0x1B75 JUMP JUMPDEST PUSH1 0x20 DUP3 ADD SWAP1 POP SWAP2 SWAP1 POP JUMP JUMPDEST PUSH0 PUSH1 0x20 DUP3 ADD SWAP1 POP DUP2 DUP2 SUB PUSH0 DUP4 ADD MSTORE PUSH2 0x1BD6 DUP2 PUSH2 0x1B9D JUMP JUMPDEST SWAP1 POP SWAP2 SWAP1 POP JUMP JUMPDEST PUSH32 0x4E487B7100000000000000000000000000000000000000000000000000000000 PUSH0 MSTORE PUSH1 0x22 PUSH1 0x4 MSTORE PUSH1 0x24 PUSH0 REVERT JUMPDEST PUSH0 PUSH1 0x2 DUP3 DIV SWAP1 POP PUSH1 0x1 DUP3 AND DUP1 PUSH2 0x1C21 JUMPI PUSH1 0x7F DUP3 AND SWAP2 POP JUMPDEST PUSH1 0x20 DUP3 LT DUP2 SUB PUSH2 0x1C34 JUMPI PUSH2 0x1C33 PUSH2 0x1BDD JUMP JUMPDEST JUMPDEST POP SWAP2 SWAP1 POP JUMP JUMPDEST PUSH0 DUP2 SWAP1 POP DUP2 PUSH0 MSTORE PUSH1 0x20 PUSH0 KECCAK256 SWAP1 POP SWAP2 SWAP1 POP JUMP JUMPDEST PUSH0 PUSH1 0x20 PUSH1 0x1F DUP4 ADD DIV SWAP1 POP SWAP2 SWAP1 POP JUMP JUMPDEST PUSH0 DUP3 DUP3 SHL SWAP1 POP SWAP3 SWAP2 POP POP JUMP JUMPDEST PUSH0 PUSH1 0x8 DUP4 MUL PUSH2 0x1C96 PUSH32 0xFFFFFFFFFFFFFFFFFFFFFFFFFFFFFFFFFFFFFFFFFFFFFFFFFFFFFFFFFFFFFFFF DUP3 PUSH2 0x1C5B JUMP JUMPDEST PUSH2 0x1CA0 DUP7 DUP4 PUSH2 0x1C5B JUMP JUMPDEST SWAP6 POP DUP1 NOT DUP5 AND SWAP4 POP DUP1 DUP7 AND DUP5 OR SWAP3 POP POP POP SWAP4 SWAP3 POP POP POP JUMP JUMPDEST PUSH0 DUP2 SWAP1 POP SWAP2 SWAP1 POP JUMP JUMPDEST PUSH0 PUSH2 0x1CDB PUSH2 0x1CD6 PUSH2 0x1CD1 DUP5 PUSH2 0x13FA JUMP JUMPDEST PUSH2 0x1CB8 JUMP JUMPDEST PUSH2 0x13FA JUMP JUMPDEST SWAP1 POP SWAP2 SWAP1 POP JUMP JUMPDEST PUSH0 DUP2 SWAP1 POP SWAP2 SWAP1 POP JUMP JUMPDEST PUSH2 0x1CF4 DUP4 PUSH2 0x1CC1 JUMP JUMPDEST PUSH2 0x1D08 PUSH2 0x1D00 DUP3 PUSH2 0x1CE2 JUMP JUMPDEST DUP5 DUP5 SLOAD PUSH2 0x1C67 JUMP JUMPDEST DUP3 SSTORE POP POP POP POP JUMP JUMPDEST PUSH0 SWAP1 JUMP JUMPDEST PUSH2 0x1D1C PUSH2 0x1D10 JUMP JUMPDEST PUSH2 0x1D27 DUP2 DUP5 DUP5 PUSH2 0x1CEB JUMP JUMPDEST POP POP POP JUMP JUMPDEST JUMPDEST DUP2 DUP2 LT ISZERO PUSH2 0x1D4A JUMPI PUSH2 0x1D3F PUSH0 DUP3 PUSH2 0x1D14 JUMP JUMPDEST PUSH1 0x1 DUP2 ADD SWAP1 POP PUSH2 0x1D2D JUMP JUMPDEST POP POP JUMP JUMPDEST PUSH1 0x1F DUP3 GT ISZERO PUSH2 0x1D8F JUMPI PUSH2 0x1D60 DUP2 PUSH2 0x1C3A JUMP JUMPDEST PUSH2 0x1D69 DUP5 PUSH2 0x1C4C JUMP JUMPDEST DUP2 ADD PUSH1 0x20 DUP6 LT ISZERO PUSH2 0x1D78 JUMPI DUP2 SWAP1 POP JUMPDEST PUSH2 0x1D8C PUSH2 0x1D84 DUP6 PUSH2 0x1C4C JUMP JUMPDEST DUP4 ADD DUP3 PUSH2 0x1D2C JUMP JUMPDEST POP POP JUMPDEST POP POP POP JUMP JUMPDEST PUSH0 DUP3 DUP3 SHR SWAP1 POP SWAP3 SWAP2 POP POP JUMP JUMPDEST PUSH0 PUSH2 0x1DAF PUSH0 NOT DUP5 PUSH1 0x8 MUL PUSH2 0x1D94 JUMP JUMPDEST NOT DUP1 DUP4 AND SWAP2 POP POP SWAP3 SWAP2 POP POP JUMP JUMPDEST PUSH0 PUSH2 0x1DC7 DUP4 DUP4 PUSH2 0x1DA0 JUMP JUMPDEST SWAP2 POP DUP3 PUSH1 0x2 MUL DUP3 OR SWAP1 POP SWAP3 SWAP2 POP POP JUMP JUMPDEST PUSH2 0x1DE0 DUP3 PUSH2 0x169A JUMP JUMPDEST PUSH8 0xFFFFFFFFFFFFFFFF DUP2 GT ISZERO PUSH2 0x1DF9 JUMPI PUSH2 0x1DF8 PUSH2 0x1445 JUMP JUMPDEST JUMPDEST PUSH2 0x1E03 DUP3 SLOAD PUSH2 0x1C0A JUMP JUMPDEST PUSH2 0x1E0E DUP3 DUP3 DUP6 PUSH2 0x1D4E JUMP JUMPDEST PUSH0 PUSH1 0x20 SWAP1 POP PUSH1 0x1F DUP4 GT PUSH1 0x1 DUP2 EQ PUSH2 0x1E3F JUMPI PUSH0 DUP5 ISZERO PUSH2 0x1E2D JUMPI DUP3 DUP8 ADD MLOAD SWAP1 POP JUMPDEST PUSH2 0x1E37 DUP6 DUP3 PUSH2 0x1DBC JUMP JUMPDEST DUP7 SSTORE POP PUSH2 0x1E9E JUMP JUMPDEST PUSH1 0x1F NOT DUP5 AND PUSH2 0x1E4D DUP7 PUSH2 0x1C3A JUMP JUMPDEST PUSH0 JUMPDEST DUP3 DUP2 LT ISZERO PUSH2 0x1E74 JUMPI DUP5 DUP10 ADD MLOAD DUP3 SSTORE PUSH1 0x1 DUP3 ADD SWAP2 POP PUSH1 0x20 DUP6 ADD SWAP5 POP PUSH1 0x20 DUP2 ADD SWAP1 POP PUSH2 0x1E4F JUMP JUMPDEST DUP7 DUP4 LT ISZERO PUSH2 0x1E91 JUMPI DUP5 DUP10 ADD MLOAD PUSH2 0x1E8D PUSH1 0x1F DUP10 AND DUP3 PUSH2 0x1DA0 JUMP JUMPDEST DUP4 SSTORE POP JUMPDEST PUSH1 0x1 PUSH1 0x2 DUP9 MUL ADD DUP9 SSTORE POP POP POP JUMPDEST POP POP POP POP POP POP JUMP JUMPDEST PUSH0 DUP2 SLOAD SWAP1 POP PUSH2 0x1EB4 DUP2 PUSH2 0x1C0A JUMP JUMPDEST SWAP1 POP SWAP2 SWAP1 POP JUMP JUMPDEST DUP2 DUP2 SUB PUSH2 0x1EC9 JUMPI POP POP PUSH2 0x1F9E JUMP JUMPDEST PUSH2 0x1ED2 DUP3 PUSH2 0x1EA6 JUMP JUMPDEST PUSH8 0xFFFFFFFFFFFFFFFF DUP2 GT ISZERO PUSH2 0x1EEB JUMPI PUSH2 0x1EEA PUSH2 0x1445 JUMP JUMPDEST JUMPDEST PUSH2 0x1EF5 DUP3 SLOAD PUSH2 0x1C0A JUMP JUMPDEST PUSH2 0x1F00 DUP3 DUP3 DUP6 PUSH2 0x1D4E JUMP JUMPDEST PUSH0 PUSH1 0x1F DUP4 GT PUSH1 0x1 DUP2 EQ PUSH2 0x1F2D JUMPI PUSH0 DUP5 ISZERO PUSH2 0x1F1B JUMPI DUP3 DUP8 ADD SLOAD SWAP1 POP JUMPDEST PUSH2 0x1F25 DUP6 DUP3 PUSH2 0x1DBC JUMP JUMPDEST DUP7 SSTORE POP PUSH2 0x1F97 JUMP JUMPDEST PUSH1 0x1F NOT DUP5 AND PUSH2 0x1F3B DUP8 PUSH2 0x1C3A JUMP JUMPDEST SWAP7 POP PUSH2 0x1F46 DUP7 PUSH2 0x1C3A JUMP JUMPDEST PUSH0 JUMPDEST DUP3 DUP2 LT ISZERO PUSH2 0x1F6D JUMPI DUP5 DUP10 ADD SLOAD DUP3 SSTORE PUSH1 0x1 DUP3 ADD SWAP2 POP PUSH1 0x1 DUP6 ADD SWAP5 POP PUSH1 0x20 DUP2 ADD SWAP1 POP PUSH2 0x1F48 JUMP JUMPDEST DUP7 DUP4 LT ISZERO PUSH2 0x1F8A JUMPI DUP5 DUP10 ADD SLOAD PUSH2 0x1F86 PUSH1 0x1F DUP10 AND DUP3 PUSH2 0x1DA0 JUMP JUMPDEST DUP4 SSTORE POP JUMPDEST PUSH1 0x1 PUSH1 0x2 DUP9 MUL ADD DUP9 SSTORE POP POP POP JUMPDEST POP POP POP POP POP POP JUMPDEST JUMP JUMPDEST PUSH32 0x4E487B7100000000000000000000000000000000000000000000000000000000 PUSH0 MSTORE PUSH1 0x32 PUSH1 0x4 MSTORE PUSH1 0x24 PUSH0 REVERT JUMPDEST PUSH0 PUSH1 0x40 DUP3 ADD SWAP1 POP PUSH2 0x1FE0 PUSH0 DUP4 ADD DUP6 PUSH2 0x168B JUMP JUMPDEST PUSH2 0x1FED PUSH1 0x20 DUP4 ADD DUP5 PUSH2 0x164C JUMP JUMPDEST SWAP4 SWAP3 POP POP POP JUMP JUMPDEST PUSH32 0x4E487B7100000000000000000000000000000000000000000000000000000000 PUSH0 MSTORE PUSH1 0x11 PUSH1 0x4 MSTORE PUSH1 0x24 PUSH0 REVERT JUMPDEST PUSH0 PUSH2 0x202B DUP3 PUSH2 0x13FA JUMP JUMPDEST SWAP2 POP PUSH32 0xFFFFFFFFFFFFFFFFFFFFFFFFFFFFFFFFFFFFFFFFFFFFFFFFFFFFFFFFFFFFFFFF DUP3 SUB PUSH2 0x205D JUMPI PUSH2 0x205C PUSH2 0x1FF4 JUMP JUMPDEST JUMPDEST PUSH1 0x1 DUP3 ADD SWAP1 POP SWAP2 SWAP1 POP JUMP JUMPDEST PUSH32 0x55524C2063616E6E6F7420626520656D70747921000000000000000000000000 PUSH0 DUP3 ADD MSTORE POP JUMP JUMPDEST PUSH0 PUSH2 0x209C PUSH1 0x14 DUP4 PUSH2 0x16A4 JUMP JUMPDEST SWAP2 POP PUSH2 0x20A7 DUP3 PUSH2 0x2068 JUMP JUMPDEST PUSH1 0x20 DUP3 ADD SWAP1 POP SWAP2 SWAP1 POP JUMP JUMPDEST PUSH0 PUSH1 0x20 DUP3 ADD SWAP1 POP DUP2 DUP2 SUB PUSH0 DUP4 ADD MSTORE PUSH2 0x20C9 DUP2 PUSH2 0x2090 JUMP JUMPDEST SWAP1 POP SWAP2 SWAP1 POP JUMP JUMPDEST PUSH0 PUSH2 0x20DA DUP3 PUSH2 0x13FA JUMP JUMPDEST SWAP2 POP PUSH2 0x20E5 DUP4 PUSH2 0x13FA JUMP JUMPDEST SWAP3 POP DUP3 DUP3 SUB SWAP1 POP DUP2 DUP2 GT ISZERO PUSH2 0x20FD JUMPI PUSH2 0x20FC PUSH2 0x1FF4 JUMP JUMPDEST JUMPDEST SWAP3 SWAP2 POP POP JUMP JUMPDEST PUSH0 PUSH1 0x60 DUP3 ADD SWAP1 POP PUSH2 0x2116 PUSH0 DUP4 ADD DUP7 PUSH2 0x168B JUMP JUMPDEST DUP2 DUP2 SUB PUSH1 0x20 DUP4 ADD MSTORE PUSH2 0x2128 DUP2 DUP6 PUSH2 0x16DC JUMP JUMPDEST SWAP1 POP DUP2 DUP2 SUB PUSH1 0x40 DUP4 ADD MSTORE PUSH2 0x213C DUP2 DUP5 PUSH2 0x16DC JUMP JUMPDEST SWAP1 POP SWAP5 SWAP4 POP POP POP POP JUMP JUMPDEST PUSH32 0x4E487B7100000000000000000000000000000000000000000000000000000000 PUSH0 MSTORE PUSH1 0x31 PUSH1 0x4 MSTORE PUSH1 0x24 PUSH0 REVERT JUMPDEST PUSH0 DUP2 PUSH1 0x60 SHL SWAP1 POP SWAP2 SWAP1 POP JUMP JUMPDEST PUSH0 PUSH2 0x2189 DUP3 PUSH2 0x2173 JUMP JUMPDEST SWAP1 POP SWAP2 SWAP1 POP JUMP JUMPDEST PUSH0 PUSH2 0x219A DUP3 PUSH2 0x217F JUMP JUMPDEST SWAP1 POP SWAP2 SWAP1 POP JUMP JUMPDEST PUSH2 0x21B2 PUSH2 0x21AD DUP3 PUSH2 0x167A JUMP JUMPDEST PUSH2 0x2190 JUMP JUMPDEST DUP3 MSTORE POP POP JUMP JUMPDEST PUSH0 DUP2 SWAP1 POP SWAP3 SWAP2 POP POP JUMP JUMPDEST PUSH0 PUSH2 0x21CC DUP3 PUSH2 0x169A JUMP JUMPDEST PUSH2 0x21D6 DUP2 DUP6 PUSH2 0x21B8 JUMP JUMPDEST SWAP4 POP PUSH2 0x21E6 DUP2 DUP6 PUSH1 0x20 DUP7 ADD PUSH2 0x16B4 JUMP JUMPDEST DUP1 DUP5 ADD SWAP2 POP POP SWAP3 SWAP2 POP POP JUMP JUMPDEST PUSH0 PUSH2 0x21FD DUP3 DUP9 PUSH2 0x21A1 JUMP JUMPDEST PUSH1 0x14 DUP3 ADD SWAP2 POP PUSH2 0x220D DUP3 DUP8 PUSH2 0x21C2 JUMP JUMPDEST SWAP2 POP PUSH2 0x2219 DUP3 DUP7 PUSH2 0x21C2 JUMP JUMPDEST SWAP2 POP PUSH2 0x2225 DUP3 DUP6 PUSH2 0x21C2 JUMP JUMPDEST SWAP2 POP PUSH2 0x2231 DUP3 DUP5 PUSH2 0x21C2 JUMP JUMPDEST SWAP2 POP DUP2 SWAP1 POP SWAP7 SWAP6 POP POP POP POP POP POP JUMP INVALID LOG2 PUSH5 0x6970667358 0x22 SLT KECCAK256 PUSH29 0x745F93EF05AFA6E906F8426D420650B43BC89A70163EC6536B46E2705B SWAP10 DUP1 PUSH5 0x736F6C6343 STOP ADDMOD EQ STOP CALLER "
				},
				"gasEstimates": {
					"creation": {
						"codeDepositCost": "1764400",
						"executionCost": "1853",
						"totalCost": "1766253"
					},
					"external": {
						"addKey(string,string,string,string)": "infinite",
						"getAllMyKeys()": "infinite",
						"idToKeyIndex(uint256)": "infinite",
						"keys(uint256)": "infinite",
						"owner()": "2527",
						"removeKey(uint256)": "infinite",
						"updateInfo(uint256,string,string,string)": "infinite"
					},
					"internal": {
						"generateHashId(string memory,string memory,string memory,string memory)": "infinite",
						"isStringEmpty(string memory)": "infinite"
					}
				},
				"methodIdentifiers": {
					"addKey(string,string,string,string)": "83659cd9",
					"getAllMyKeys()": "74a2d74e",
					"idToKeyIndex(uint256)": "d6700e37",
					"keys(uint256)": "0cb6aaf1",
					"owner()": "8da5cb5b",
					"removeKey(uint256)": "a8d20d61",
					"updateInfo(uint256,string,string,string)": "005b0732"
				}
			},
			"storageLayout": {
				"storage": [
					{
						"astId": 3,
						"contract": "contracts/CryptoGuardPass.sol:CryptoGuardPass",
						"label": "owner",
						"offset": 0,
						"slot": "0",
						"type": "t_address"
					},
					{
						"astId": 21,
						"contract": "contracts/CryptoGuardPass.sol:CryptoGuardPass",
						"label": "keyOfId",
						"offset": 0,
						"slot": "1",
						"type": "t_mapping(t_uint256,t_struct(Key)16_storage)"
					},
					{
						"astId": 25,
						"contract": "contracts/CryptoGuardPass.sol:CryptoGuardPass",
						"label": "keys",
						"offset": 0,
						"slot": "2",
						"type": "t_array(t_struct(Key)16_storage)dyn_storage"
					},
					{
						"astId": 29,
						"contract": "contracts/CryptoGuardPass.sol:CryptoGuardPass",
						"label": "idToKeyIndex",
						"offset": 0,
						"slot": "3",
						"type": "t_mapping(t_uint256,t_uint256)"
					}
				],
				"types": {
					"t_address": {
						"encoding": "inplace",
						"label": "address",
						"numberOfBytes": "20"
					},
					"t_array(t_struct(Key)16_storage)dyn_storage": {
						"base": "t_struct(Key)16_storage",
						"encoding": "dynamic_array",
						"label": "struct CryptoGuardPass.Key[]",
						"numberOfBytes": "32"
					},
					"t_mapping(t_uint256,t_struct(Key)16_storage)": {
						"encoding": "mapping",
						"key": "t_uint256",
						"label": "mapping(uint256 => struct CryptoGuardPass.Key)",
						"numberOfBytes": "32",
						"value": "t_struct(Key)16_storage"
					},
					"t_mapping(t_uint256,t_uint256)": {
						"encoding": "mapping",
						"key": "t_uint256",
						"label": "mapping(uint256 => uint256)",
						"numberOfBytes": "32",
						"value": "t_uint256"
					},
					"t_string_storage": {
						"encoding": "bytes",
						"label": "string",
						"numberOfBytes": "32"
					},
					"t_struct(Key)16_storage": {
						"encoding": "inplace",
						"label": "struct CryptoGuardPass.Key",
						"members": [
							{
								"astId": 5,
								"contract": "contracts/CryptoGuardPass.sol:CryptoGuardPass",
								"label": "keyId",
								"offset": 0,
								"slot": "0",
								"type": "t_uint256"
							},
							{
								"astId": 7,
								"contract": "contracts/CryptoGuardPass.sol:CryptoGuardPass",
								"label": "owner",
								"offset": 0,
								"slot": "1",
								"type": "t_address"
							},
							{
								"astId": 9,
								"contract": "contracts/CryptoGuardPass.sol:CryptoGuardPass",
								"label": "url",
								"offset": 0,
								"slot": "2",
								"type": "t_string_storage"
							},
							{
								"astId": 11,
								"contract": "contracts/CryptoGuardPass.sol:CryptoGuardPass",
								"label": "account",
								"offset": 0,
								"slot": "3",
								"type": "t_string_storage"
							},
							{
								"astId": 13,
								"contract": "contracts/CryptoGuardPass.sol:CryptoGuardPass",
								"label": "password",
								"offset": 0,
								"slot": "4",
								"type": "t_string_storage"
							},
							{
								"astId": 15,
								"contract": "contracts/CryptoGuardPass.sol:CryptoGuardPass",
								"label": "comment",
								"offset": 0,
								"slot": "5",
								"type": "t_string_storage"
							}
						],
						"numberOfBytes": "192"
					},
					"t_uint256": {
						"encoding": "inplace",
						"label": "uint256",
						"numberOfBytes": "32"
					}
				}
			},
			"userdoc": {
				"kind": "user",
				"methods": {},
				"version": 1
			}
		}
	}
}